{
  "_format": "hh-sol-artifact-1",
  "contractName": "AyurChakra",
  "sourceName": "contracts/AyurChakra.sol",
  "abi": [
    {
      "inputs": [],
      "stateMutability": "nonpayable",
      "type": "constructor"
    },
    {
      "anonymous": false,
      "inputs": [
        {
          "indexed": true,
          "internalType": "string",
          "name": "harvestId",
          "type": "string"
        },
        {
          "indexed": true,
          "internalType": "string",
          "name": "farmerId",
          "type": "string"
        },
        {
          "indexed": false,
          "internalType": "string",
          "name": "cropData",
          "type": "string"
        },
        {
          "indexed": false,
          "internalType": "string",
          "name": "locationData",
          "type": "string"
        },
        {
          "indexed": false,
          "internalType": "uint256",
          "name": "timestamp",
          "type": "uint256"
        }
      ],
      "name": "HarvestRecorded",
      "type": "event"
    },
    {
      "anonymous": false,
      "inputs": [
        {
          "indexed": true,
          "internalType": "string",
          "name": "processingId",
          "type": "string"
        },
        {
          "indexed": true,
          "internalType": "string",
          "name": "harvestId",
          "type": "string"
        },
        {
          "indexed": false,
          "internalType": "string",
          "name": "processingData",
          "type": "string"
        },
        {
          "indexed": false,
          "internalType": "uint256",
          "name": "timestamp",
          "type": "uint256"
        }
      ],
      "name": "ProcessingRecorded",
      "type": "event"
    },
    {
      "anonymous": false,
      "inputs": [
        {
          "indexed": true,
          "internalType": "string",
          "name": "testId",
          "type": "string"
        },
        {
          "indexed": true,
          "internalType": "string",
          "name": "batchId",
          "type": "string"
        },
        {
          "indexed": false,
          "internalType": "string",
          "name": "testResults",
          "type": "string"
        },
        {
          "indexed": false,
          "internalType": "uint256",
          "name": "timestamp",
          "type": "uint256"
        }
      ],
      "name": "QualityTestRecorded",
      "type": "event"
    },
    {
      "anonymous": false,
      "inputs": [
        {
          "indexed": true,
          "internalType": "string",
          "name": "supplyChainId",
          "type": "string"
        },
        {
          "indexed": false,
          "internalType": "string",
          "name": "updateData",
          "type": "string"
        },
        {
          "indexed": false,
          "internalType": "uint256",
          "name": "timestamp",
          "type": "uint256"
        }
      ],
      "name": "SupplyChainUpdated",
      "type": "event"
    },
    {
      "inputs": [],
      "name": "getContractInfo",
      "outputs": [
        {
          "internalType": "address",
          "name": "contractOwner",
          "type": "address"
        },
        {
          "internalType": "uint256",
          "name": "blockNumber",
          "type": "uint256"
        },
        {
          "internalType": "uint256",
          "name": "timestamp",
          "type": "uint256"
        }
      ],
      "stateMutability": "view",
      "type": "function"
    },
    {
      "inputs": [
        {
          "internalType": "string",
          "name": "_harvestId",
          "type": "string"
        }
      ],
      "name": "getHarvest",
      "outputs": [
        {
          "internalType": "string",
          "name": "harvestId",
          "type": "string"
        },
        {
          "internalType": "string",
          "name": "farmerId",
          "type": "string"
        },
        {
          "internalType": "string",
          "name": "cropData",
          "type": "string"
        },
        {
          "internalType": "string",
          "name": "locationData",
          "type": "string"
        },
        {
          "internalType": "uint256",
          "name": "timestamp",
          "type": "uint256"
        },
        {
          "internalType": "bool",
          "name": "exists",
          "type": "bool"
        }
      ],
      "stateMutability": "view",
      "type": "function"
    },
    {
      "inputs": [
        {
          "internalType": "string",
          "name": "_processingId",
          "type": "string"
        }
      ],
      "name": "getProcessing",
      "outputs": [
        {
          "internalType": "string",
          "name": "processingId",
          "type": "string"
        },
        {
          "internalType": "string",
          "name": "harvestId",
          "type": "string"
        },
        {
          "internalType": "string",
          "name": "processingData",
          "type": "string"
        },
        {
          "internalType": "uint256",
          "name": "timestamp",
          "type": "uint256"
        },
        {
          "internalType": "bool",
          "name": "exists",
          "type": "bool"
        }
      ],
      "stateMutability": "view",
      "type": "function"
    },
    {
      "inputs": [
        {
          "internalType": "string",
          "name": "_testId",
          "type": "string"
        }
      ],
      "name": "getQualityTest",
      "outputs": [
        {
          "internalType": "string",
          "name": "testId",
          "type": "string"
        },
        {
          "internalType": "string",
          "name": "batchId",
          "type": "string"
        },
        {
          "internalType": "string",
          "name": "testResults",
          "type": "string"
        },
        {
          "internalType": "uint256",
          "name": "timestamp",
          "type": "uint256"
        },
        {
          "internalType": "bool",
          "name": "exists",
          "type": "bool"
        }
      ],
      "stateMutability": "view",
      "type": "function"
    },
    {
      "inputs": [
        {
          "internalType": "string",
          "name": "",
          "type": "string"
        }
      ],
      "name": "harvests",
      "outputs": [
        {
          "internalType": "string",
          "name": "harvestId",
          "type": "string"
        },
        {
          "internalType": "string",
          "name": "farmerId",
          "type": "string"
        },
        {
          "internalType": "string",
          "name": "cropData",
          "type": "string"
        },
        {
          "internalType": "string",
          "name": "locationData",
          "type": "string"
        },
        {
          "internalType": "uint256",
          "name": "timestamp",
          "type": "uint256"
        },
        {
          "internalType": "bool",
          "name": "exists",
          "type": "bool"
        }
      ],
      "stateMutability": "view",
      "type": "function"
    },
    {
      "inputs": [],
      "name": "owner",
      "outputs": [
        {
          "internalType": "address",
          "name": "",
          "type": "address"
        }
      ],
      "stateMutability": "view",
      "type": "function"
    },
    {
      "inputs": [
        {
          "internalType": "string",
          "name": "",
          "type": "string"
        }
      ],
      "name": "processings",
      "outputs": [
        {
          "internalType": "string",
          "name": "processingId",
          "type": "string"
        },
        {
          "internalType": "string",
          "name": "harvestId",
          "type": "string"
        },
        {
          "internalType": "string",
          "name": "processingData",
          "type": "string"
        },
        {
          "internalType": "uint256",
          "name": "timestamp",
          "type": "uint256"
        },
        {
          "internalType": "bool",
          "name": "exists",
          "type": "bool"
        }
      ],
      "stateMutability": "view",
      "type": "function"
    },
    {
      "inputs": [
        {
          "internalType": "string",
          "name": "",
          "type": "string"
        }
      ],
      "name": "qualityTests",
      "outputs": [
        {
          "internalType": "string",
          "name": "testId",
          "type": "string"
        },
        {
          "internalType": "string",
          "name": "batchId",
          "type": "string"
        },
        {
          "internalType": "string",
          "name": "testResults",
          "type": "string"
        },
        {
          "internalType": "uint256",
          "name": "timestamp",
          "type": "uint256"
        },
        {
          "internalType": "bool",
          "name": "exists",
          "type": "bool"
        }
      ],
      "stateMutability": "view",
      "type": "function"
    },
    {
      "inputs": [
        {
          "internalType": "string",
          "name": "_harvestId",
          "type": "string"
        },
        {
          "internalType": "string",
          "name": "_farmerId",
          "type": "string"
        },
        {
          "internalType": "string",
          "name": "_cropData",
          "type": "string"
        },
        {
          "internalType": "string",
          "name": "_locationData",
          "type": "string"
        }
      ],
      "name": "recordHarvest",
      "outputs": [],
      "stateMutability": "nonpayable",
      "type": "function"
    },
    {
      "inputs": [
        {
          "internalType": "string",
          "name": "_processingId",
          "type": "string"
        },
        {
          "internalType": "string",
          "name": "_harvestId",
          "type": "string"
        },
        {
          "internalType": "string",
          "name": "_processingData",
          "type": "string"
        }
      ],
      "name": "recordProcessing",
      "outputs": [],
      "stateMutability": "nonpayable",
      "type": "function"
    },
    {
      "inputs": [
        {
          "internalType": "string",
          "name": "_testId",
          "type": "string"
        },
        {
          "internalType": "string",
          "name": "_batchId",
          "type": "string"
        },
        {
          "internalType": "string",
          "name": "_testResults",
          "type": "string"
        }
      ],
      "name": "recordQualityTest",
      "outputs": [],
      "stateMutability": "nonpayable",
      "type": "function"
    },
    {
      "inputs": [
        {
          "internalType": "string",
          "name": "_supplyChainId",
          "type": "string"
        },
        {
          "internalType": "string",
          "name": "_updateData",
          "type": "string"
        }
      ],
      "name": "updateSupplyChain",
      "outputs": [],
      "stateMutability": "nonpayable",
      "type": "function"
    },
    {
      "inputs": [
        {
          "internalType": "string",
          "name": "_harvestId",
          "type": "string"
        }
      ],
      "name": "verifyHarvest",
      "outputs": [
        {
          "internalType": "bool",
          "name": "",
          "type": "bool"
        }
      ],
      "stateMutability": "view",
      "type": "function"
    },
    {
      "inputs": [
        {
          "internalType": "string",
          "name": "_processingId",
          "type": "string"
        }
      ],
      "name": "verifyProcessing",
      "outputs": [
        {
          "internalType": "bool",
          "name": "",
          "type": "bool"
        }
      ],
      "stateMutability": "view",
      "type": "function"
    },
    {
      "inputs": [
        {
          "internalType": "string",
          "name": "_testId",
          "type": "string"
        }
      ],
      "name": "verifyQualityTest",
      "outputs": [
        {
          "internalType": "bool",
          "name": "",
          "type": "bool"
        }
      ],
      "stateMutability": "view",
      "type": "function"
    }
  ],
  "bytecode": "0x608060405234801561001057600080fd5b50600380546001600160a01b03191633179055611816806100326000396000f3fe608060405234801561001057600080fd5b50600436106100f55760003560e01c80638da5cb5b11610097578063b51d897c11610066578063b51d897c14610235578063c00ce32d14610248578063d8fab3ea1461025b578063da480e3c1461026e57600080fd5b80638da5cb5b146101d1578063a0179b9e146101fc578063a439def31461020f578063b1b919931461022257600080fd5b80636dea7dbe116100d35780636dea7dbe1461014f57806372c9379b146101725780637cc1f86714610197578063888a9306146101be57600080fd5b80630ec4a56b146100fa5780633921b438146101275780636b59b16d1461013c575b600080fd5b61010d610108366004611301565b610281565b60405161011e95949392919061138e565b60405180910390f35b61013a6101353660046113e1565b6104af565b005b61013a61014a366004611445565b610535565b61016261015d366004611301565b6106f9565b604051901515815260200161011e565b610185610180366004611301565b610726565b60405161011e969594939291906114f2565b600354604080516001600160a01b039092168252436020830152429082015260600161011e565b6101626101cc366004611301565b6109ee565b6003546101e4906001600160a01b031681565b6040516001600160a01b03909116815260200161011e565b61013a61020a36600461155a565b610a1c565b61010d61021d366004611301565b610bc9565b610162610230366004611301565b610be3565b610185610243366004611301565b610bf5565b61010d610256366004611301565b610e58565b61010d610269366004611301565b61102d565b61013a61027c36600461155a565b611053565b6060806060600080600060018760405161029b91906115e2565b90815260200160405180910390206040518060a00160405290816000820180546102c4906115fe565b80601f01602080910402602001604051908101604052809291908181526020018280546102f0906115fe565b801561033d5780601f106103125761010080835404028352916020019161033d565b820191906000526020600020905b81548152906001019060200180831161032057829003601f168201915b50505050508152602001600182018054610356906115fe565b80601f0160208091040260200160405190810160405280929190818152602001828054610382906115fe565b80156103cf5780601f106103a4576101008083540402835291602001916103cf565b820191906000526020600020905b8154815290600101906020018083116103b257829003601f168201915b505050505081526020016002820180546103e8906115fe565b80601f0160208091040260200160405190810160405280929190818152602001828054610414906115fe565b80156104615780601f1061043657610100808354040283529160200191610461565b820191906000526020600020905b81548152906001019060200180831161044457829003601f168201915b5050509183525050600382015460208083019190915260049092015460ff161515604091820152825191830151908301516060840151608090940151929b919a509850919650945092505050565b6003546001600160a01b031633146104e25760405162461bcd60e51b81526004016104d990611638565b60405180910390fd5b816040516104f091906115e2565b60405180910390207fd1b5cb679b308cfb2e4215f2fe23a4dd2d41f3ebfb8c3a5ee3d5369cac6d67908242604051610529929190611679565b60405180910390a25050565b6003546001600160a01b0316331461055f5760405162461bcd60e51b81526004016104d990611638565b60008460405161056f91906115e2565b9081526040519081900360200190206005015460ff16156105cb5760405162461bcd60e51b81526020600482015260166024820152754861727665737420616c72656164792065786973747360501b60448201526064016104d9565b6040518060c001604052808581526020018481526020018381526020018281526020014281526020016001151581525060008560405161060b91906115e2565b9081526040519081900360200190208151819061062890826116ea565b506020820151600182019061063d90826116ea565b506040820151600282019061065290826116ea565b506060820151600382019061066790826116ea565b506080820151600482015560a0909101516005909101805460ff191691151591909117905560405161069a9084906115e2565b6040518091039020846040516106b091906115e2565b60405180910390207f6f474d51d157bff6b48d484588e6c3cec75936479a79a0a318c231473ae1f5038484426040516106eb939291906117aa565b60405180910390a350505050565b6000808260405161070a91906115e2565b9081526040519081900360200190206005015460ff1692915050565b6060806060806000806000808860405161074091906115e2565b90815260200160405180910390206040518060c0016040529081600082018054610769906115fe565b80601f0160208091040260200160405190810160405280929190818152602001828054610795906115fe565b80156107e25780601f106107b7576101008083540402835291602001916107e2565b820191906000526020600020905b8154815290600101906020018083116107c557829003601f168201915b505050505081526020016001820180546107fb906115fe565b80601f0160208091040260200160405190810160405280929190818152602001828054610827906115fe565b80156108745780601f1061084957610100808354040283529160200191610874565b820191906000526020600020905b81548152906001019060200180831161085757829003601f168201915b5050505050815260200160028201805461088d906115fe565b80601f01602080910402602001604051908101604052809291908181526020018280546108b9906115fe565b80156109065780601f106108db57610100808354040283529160200191610906565b820191906000526020600020905b8154815290600101906020018083116108e957829003601f168201915b5050505050815260200160038201805461091f906115fe565b80601f016020809104026020016040519081016040528092919081815260200182805461094b906115fe565b80156109985780601f1061096d57610100808354040283529160200191610998565b820191906000526020600020905b81548152906001019060200180831161097b57829003601f168201915b5050509183525050600482015460208083019190915260059092015460ff161515604091820152825191830151908301516060840151608085015160a090950151939d929c50909a509850919650945092505050565b6000600282604051610a0091906115e2565b9081526040519081900360200190206004015460ff1692915050565b6003546001600160a01b03163314610a465760405162461bcd60e51b81526004016104d990611638565b600283604051610a5691906115e2565b9081526040519081900360200190206004015460ff1615610ab95760405162461bcd60e51b815260206004820152601b60248201527f5175616c697479207465737420616c726561647920657869737473000000000060448201526064016104d9565b6040518060a0016040528084815260200183815260200182815260200142815260200160011515815250600284604051610af391906115e2565b90815260405190819003602001902081518190610b1090826116ea565b5060208201516001820190610b2590826116ea565b5060408201516002820190610b3a90826116ea565b50606082015160038201556080909101516004909101805460ff1916911515919091179055604051610b6d9083906115e2565b604051809103902083604051610b8391906115e2565b60405180910390207f25713ff612e7a35b57b87028eda85358200382f37aaaee6ef45430c127de2bf18342604051610bbc929190611679565b60405180910390a3505050565b6060806060600080600060028760405161029b91906115e2565b6000600182604051610a0091906115e2565b8051602081830181018051600082529282019190930120915280548190610c1b906115fe565b80601f0160208091040260200160405190810160405280929190818152602001828054610c47906115fe565b8015610c945780601f10610c6957610100808354040283529160200191610c94565b820191906000526020600020905b815481529060010190602001808311610c7757829003601f168201915b505050505090806001018054610ca9906115fe565b80601f0160208091040260200160405190810160405280929190818152602001828054610cd5906115fe565b8015610d225780601f10610cf757610100808354040283529160200191610d22565b820191906000526020600020905b815481529060010190602001808311610d0557829003601f168201915b505050505090806002018054610d37906115fe565b80601f0160208091040260200160405190810160405280929190818152602001828054610d63906115fe565b8015610db05780601f10610d8557610100808354040283529160200191610db0565b820191906000526020600020905b815481529060010190602001808311610d9357829003601f168201915b505050505090806003018054610dc5906115fe565b80601f0160208091040260200160405190810160405280929190818152602001828054610df1906115fe565b8015610e3e5780601f10610e1357610100808354040283529160200191610e3e565b820191906000526020600020905b815481529060010190602001808311610e2157829003601f168201915b50505050600483015460059093015491929160ff16905086565b8051602081830181018051600282529282019190930120915280548190610e7e906115fe565b80601f0160208091040260200160405190810160405280929190818152602001828054610eaa906115fe565b8015610ef75780601f10610ecc57610100808354040283529160200191610ef7565b820191906000526020600020905b815481529060010190602001808311610eda57829003601f168201915b505050505090806001018054610f0c906115fe565b80601f0160208091040260200160405190810160405280929190818152602001828054610f38906115fe565b8015610f855780601f10610f5a57610100808354040283529160200191610f85565b820191906000526020600020905b815481529060010190602001808311610f6857829003601f168201915b505050505090806002018054610f9a906115fe565b80601f0160208091040260200160405190810160405280929190818152602001828054610fc6906115fe565b80156110135780601f10610fe857610100808354040283529160200191611013565b820191906000526020600020905b815481529060010190602001808311610ff657829003601f168201915b50505050600383015460049093015491929160ff16905085565b8051602081830181018051600182529282019190930120915280548190610e7e906115fe565b6003546001600160a01b0316331461107d5760405162461bcd60e51b81526004016104d990611638565b60008260405161108d91906115e2565b9081526040519081900360200190206005015460ff166110e85760405162461bcd60e51b815260206004820152601660248201527512185c9d995cdd08191bd95cc81b9bdd08195e1a5cdd60521b60448201526064016104d9565b6001836040516110f891906115e2565b9081526040519081900360200190206004015460ff161561115b5760405162461bcd60e51b815260206004820152601960248201527f50726f63657373696e6720616c7265616479206578697374730000000000000060448201526064016104d9565b6040518060a001604052808481526020018381526020018281526020014281526020016001151581525060018460405161119591906115e2565b908152604051908190036020019020815181906111b290826116ea565b50602082015160018201906111c790826116ea565b50604082015160028201906111dc90826116ea565b50606082015160038201556080909101516004909101805460ff191691151591909117905560405161120f9083906115e2565b60405180910390208360405161122591906115e2565b60405180910390207fda8e3f71ecbe33ba15c47ee62a132805c47f264d8d52257f7f47f39bb13adce28342604051610bbc929190611679565b634e487b7160e01b600052604160045260246000fd5b600082601f83011261128557600080fd5b813567ffffffffffffffff808211156112a0576112a061125e565b604051601f8301601f19908116603f011681019082821181831017156112c8576112c861125e565b816040528381528660208588010111156112e157600080fd5b836020870160208301376000602085830101528094505050505092915050565b60006020828403121561131357600080fd5b813567ffffffffffffffff81111561132a57600080fd5b61133684828501611274565b949350505050565b60005b83811015611359578181015183820152602001611341565b50506000910152565b6000815180845261137a81602086016020860161133e565b601f01601f19169290920160200192915050565b60a0815260006113a160a0830188611362565b82810360208401526113b38188611362565b905082810360408401526113c78187611362565b606084019590955250509015156080909101529392505050565b600080604083850312156113f457600080fd5b823567ffffffffffffffff8082111561140c57600080fd5b61141886838701611274565b9350602085013591508082111561142e57600080fd5b5061143b85828601611274565b9150509250929050565b6000806000806080858703121561145b57600080fd5b843567ffffffffffffffff8082111561147357600080fd5b61147f88838901611274565b9550602087013591508082111561149557600080fd5b6114a188838901611274565b945060408701359150808211156114b757600080fd5b6114c388838901611274565b935060608701359150808211156114d957600080fd5b506114e687828801611274565b91505092959194509250565b60c08152600061150560c0830189611362565b82810360208401526115178189611362565b9050828103604084015261152b8188611362565b9050828103606084015261153f8187611362565b6080840195909552505090151560a090910152949350505050565b60008060006060848603121561156f57600080fd5b833567ffffffffffffffff8082111561158757600080fd5b61159387838801611274565b945060208601359150808211156115a957600080fd5b6115b587838801611274565b935060408601359150808211156115cb57600080fd5b506115d886828701611274565b9150509250925092565b600082516115f481846020870161133e565b9190910192915050565b600181811c9082168061161257607f821691505b60208210810361163257634e487b7160e01b600052602260045260246000fd5b50919050565b60208082526021908201527f4f6e6c79206f776e65722063616e2063616c6c20746869732066756e6374696f6040820152603760f91b606082015260800190565b60408152600061168c6040830185611362565b90508260208301529392505050565b601f8211156116e557600081815260208120601f850160051c810160208610156116c25750805b601f850160051c820191505b818110156116e1578281556001016116ce565b5050505b505050565b815167ffffffffffffffff8111156117045761170461125e565b6117188161171284546115fe565b8461169b565b602080601f83116001811461174d57600084156117355750858301515b600019600386901b1c1916600185901b1785556116e1565b600085815260208120601f198616915b8281101561177c5788860151825594840194600190910190840161175d565b508582101561179a5787850151600019600388901b60f8161c191681555b5050505050600190811b01905550565b6060815260006117bd6060830186611362565b82810360208401526117cf8186611362565b91505082604083015294935050505056fea2646970667358221220f943697a05ba102cdfe38afa6d85adb85ee9cfc916018905ce92eabdd3f5960164736f6c63430008130033",
  "linkReferences": {},
  "deployedLinkReferences": {}
}