{"contracts/AyurChakraHerbTraceability.sol":{"AyurChakraHerbTraceability":{"abi":[{"inputs":[],"stateMutability":"nonpayable","type":"constructor"},{"anonymous":false,"inputs":[{"indexed":true,"internalType":"address","name":"account","type":"address"},{"indexed":false,"internalType":"string","name":"role","type":"string"}],"name":"AuthorizationGranted","type":"event"},{"anonymous":false,"inputs":[{"indexed":true,"internalType":"uint256","name":"batchId","type":"uint256"},{"indexed":false,"internalType":"string","name":"herbName","type":"string"},{"indexed":false,"internalType":"address","name":"farmer","type":"address"}],"name":"HerbBatchCreated","type":"event"},{"anonymous":false,"inputs":[{"indexed":true,"internalType":"uint256","name":"batchId","type":"uint256"},{"indexed":false,"internalType":"address","name":"from","type":"address"},{"indexed":false,"internalType":"address","name":"to","type":"address"}],"name":"OwnershipTransferred","type":"event"},{"anonymous":false,"inputs":[{"indexed":true,"internalType":"uint256","name":"batchId","type":"uint256"},{"indexed":false,"internalType":"uint256","name":"stepId","type":"uint256"},{"indexed":false,"internalType":"address","name":"processor","type":"address"}],"name":"ProcessingStepAdded","type":"event"},{"anonymous":false,"inputs":[{"indexed":true,"internalType":"uint256","name":"batchId","type":"uint256"},{"indexed":false,"internalType":"uint256","name":"testId","type":"uint256"},{"indexed":false,"internalType":"address","name":"laboratory","type":"address"}],"name":"QualityTestAdded","type":"event"},{"inputs":[{"internalType":"uint256","name":"_batchId","type":"uint256"},{"internalType":"string","name":"_processType","type":"string"},{"internalType":"string","name":"_processDetails","type":"string"},{"internalType":"string","name":"_gpsLocation","type":"string"}],"name":"addProcessingStep","outputs":[{"internalType":"uint256","name":"","type":"uint256"}],"stateMutability":"nonpayable","type":"function"},{"inputs":[{"internalType":"uint256","name":"_batchId","type":"uint256"},{"internalType":"string","name":"_testType","type":"string"},{"internalType":"uint256","name":"_activeCompoundPercentage","type":"uint256"},{"internalType":"bool","name":"_isAdulterated","type":"bool"},{"internalType":"string","name":"_testResult","type":"string"},{"internalType":"string","name":"_certificateHash","type":"string"}],"name":"addQualityTest","outputs":[{"internalType":"uint256","name":"","type":"uint256"}],"stateMutability":"nonpayable","type":"function"},{"inputs":[{"internalType":"address","name":"_farmer","type":"address"}],"name":"authorizeFarmer","outputs":[],"stateMutability":"nonpayable","type":"function"},{"inputs":[{"internalType":"address","name":"_laboratory","type":"address"}],"name":"authorizeLaboratory","outputs":[],"stateMutability":"nonpayable","type":"function"},{"inputs":[{"internalType":"address","name":"_processor","type":"address"}],"name":"authorizeProcessor","outputs":[],"stateMutability":"nonpayable","type":"function"},{"inputs":[{"internalType":"address","name":"","type":"address"}],"name":"authorizedFarmers","outputs":[{"internalType":"bool","name":"","type":"bool"}],"stateMutability":"view","type":"function"},{"inputs":[{"internalType":"address","name":"","type":"address"}],"name":"authorizedLaboratories","outputs":[{"internalType":"bool","name":"","type":"bool"}],"stateMutability":"view","type":"function"},{"inputs":[{"internalType":"address","name":"","type":"address"}],"name":"authorizedProcessors","outputs":[{"internalType":"bool","name":"","type":"bool"}],"stateMutability":"view","type":"function"},{"inputs":[{"internalType":"string","name":"_herbName","type":"string"},{"internalType":"string","name":"_scientificName","type":"string"},{"internalType":"string","name":"_cultivationRegion","type":"string"},{"internalType":"string","name":"_gpsCoordinates","type":"string"},{"internalType":"uint256","name":"_quantity","type":"uint256"},{"internalType":"string","name":"_qualityGrade","type":"string"}],"name":"createHerbBatch","outputs":[{"internalType":"uint256","name":"","type":"uint256"}],"stateMutability":"nonpayable","type":"function"},{"inputs":[{"internalType":"uint256","name":"_batchId","type":"uint256"}],"name":"getHerbBatch","outputs":[{"components":[{"internalType":"uint256","name":"batchId","type":"uint256"},{"internalType":"string","name":"herbName","type":"string"},{"internalType":"string","name":"scientificName","type":"string"},{"internalType":"address","name":"farmer","type":"address"},{"internalType":"string","name":"cultivationRegion","type":"string"},{"internalType":"uint256","name":"harvestTimestamp","type":"uint256"},{"internalType":"string","name":"gpsCoordinates","type":"string"},{"internalType":"uint256","name":"quantity","type":"uint256"},{"internalType":"string","name":"qualityGrade","type":"string"},{"internalType":"bool","name":"isProcessed","type":"bool"},{"internalType":"bool","name":"isTested","type":"bool"},{"internalType":"bool","name":"isDistributed","type":"bool"},{"internalType":"address","name":"currentOwner","type":"address"},{"internalType":"string[]","name":"qualityTestResults","type":"string[]"},{"internalType":"string[]","name":"processingHistory","type":"string[]"}],"internalType":"struct AyurChakraHerbTraceability.HerbBatch","name":"","type":"tuple"}],"stateMutability":"view","type":"function"},{"inputs":[{"internalType":"uint256","name":"_batchId","type":"uint256"}],"name":"getProcessingSteps","outputs":[{"components":[{"internalType":"uint256","name":"stepId","type":"uint256"},{"internalType":"uint256","name":"batchId","type":"uint256"},{"internalType":"address","name":"processor","type":"address"},{"internalType":"string","name":"processType","type":"string"},{"internalType":"string","name":"processDetails","type":"string"},{"internalType":"uint256","name":"processTimestamp","type":"uint256"},{"internalType":"string","name":"gpsLocation","type":"string"}],"internalType":"struct AyurChakraHerbTraceability.ProcessingStep[]","name":"","type":"tuple[]"}],"stateMutability":"view","type":"function"},{"inputs":[{"internalType":"uint256","name":"_batchId","type":"uint256"}],"name":"getQualityTests","outputs":[{"components":[{"internalType":"uint256","name":"testId","type":"uint256"},{"internalType":"uint256","name":"batchId","type":"uint256"},{"internalType":"address","name":"laboratory","type":"address"},{"internalType":"string","name":"testType","type":"string"},{"internalType":"uint256","name":"activeCompoundPercentage","type":"uint256"},{"internalType":"bool","name":"isAdulterated","type":"bool"},{"internalType":"string","name":"testResult","type":"string"},{"internalType":"uint256","name":"testTimestamp","type":"uint256"},{"internalType":"string","name":"certificateHash","type":"string"}],"internalType":"struct AyurChakraHerbTraceability.QualityTest[]","name":"","type":"tuple[]"}],"stateMutability":"view","type":"function"},{"inputs":[],"name":"getTotalBatches","outputs":[{"internalType":"uint256","name":"","type":"uint256"}],"stateMutability":"view","type":"function"},{"inputs":[{"internalType":"uint256","name":"_batchId","type":"uint256"}],"name":"getTraceabilityChain","outputs":[{"components":[{"internalType":"uint256","name":"batchId","type":"uint256"},{"internalType":"string","name":"herbName","type":"string"},{"internalType":"string","name":"scientificName","type":"string"},{"internalType":"address","name":"farmer","type":"address"},{"internalType":"string","name":"cultivationRegion","type":"string"},{"internalType":"uint256","name":"harvestTimestamp","type":"uint256"},{"internalType":"string","name":"gpsCoordinates","type":"string"},{"internalType":"uint256","name":"quantity","type":"uint256"},{"internalType":"string","name":"qualityGrade","type":"string"},{"internalType":"bool","name":"isProcessed","type":"bool"},{"internalType":"bool","name":"isTested","type":"bool"},{"internalType":"bool","name":"isDistributed","type":"bool"},{"internalType":"address","name":"currentOwner","type":"address"},{"internalType":"string[]","name":"qualityTestResults","type":"string[]"},{"internalType":"string[]","name":"processingHistory","type":"string[]"}],"internalType":"struct AyurChakraHerbTraceability.HerbBatch","name":"batch","type":"tuple"},{"components":[{"internalType":"uint256","name":"testId","type":"uint256"},{"internalType":"uint256","name":"batchId","type":"uint256"},{"internalType":"address","name":"laboratory","type":"address"},{"internalType":"string","name":"testType","type":"string"},{"internalType":"uint256","name":"activeCompoundPercentage","type":"uint256"},{"internalType":"bool","name":"isAdulterated","type":"bool"},{"internalType":"string","name":"testResult","type":"string"},{"internalType":"uint256","name":"testTimestamp","type":"uint256"},{"internalType":"string","name":"certificateHash","type":"string"}],"internalType":"struct AyurChakraHerbTraceability.QualityTest[]","name":"tests","type":"tuple[]"},{"components":[{"internalType":"uint256","name":"stepId","type":"uint256"},{"internalType":"uint256","name":"batchId","type":"uint256"},{"internalType":"address","name":"processor","type":"address"},{"internalType":"string","name":"processType","type":"string"},{"internalType":"string","name":"processDetails","type":"string"},{"internalType":"uint256","name":"processTimestamp","type":"uint256"},{"internalType":"string","name":"gpsLocation","type":"string"}],"internalType":"struct AyurChakraHerbTraceability.ProcessingStep[]","name":"steps","type":"tuple[]"}],"stateMutability":"view","type":"function"},{"inputs":[{"internalType":"uint256","name":"","type":"uint256"}],"name":"herbBatches","outputs":[{"internalType":"uint256","name":"batchId","type":"uint256"},{"internalType":"string","name":"herbName","type":"string"},{"internalType":"string","name":"scientificName","type":"string"},{"internalType":"address","name":"farmer","type":"address"},{"internalType":"string","name":"cultivationRegion","type":"string"},{"internalType":"uint256","name":"harvestTimestamp","type":"uint256"},{"internalType":"string","name":"gpsCoordinates","type":"string"},{"internalType":"uint256","name":"quantity","type":"uint256"},{"internalType":"string","name":"qualityGrade","type":"string"},{"internalType":"bool","name":"isProcessed","type":"bool"},{"internalType":"bool","name":"isTested","type":"bool"},{"internalType":"bool","name":"isDistributed","type":"bool"},{"internalType":"address","name":"currentOwner","type":"address"}],"stateMutability":"view","type":"function"},{"inputs":[{"internalType":"address","name":"_farmer","type":"address"}],"name":"isAuthorizedFarmer","outputs":[{"internalType":"bool","name":"","type":"bool"}],"stateMutability":"view","type":"function"},{"inputs":[{"internalType":"address","name":"_laboratory","type":"address"}],"name":"isAuthorizedLaboratory","outputs":[{"internalType":"bool","name":"","type":"bool"}],"stateMutability":"view","type":"function"},{"inputs":[{"internalType":"address","name":"_processor","type":"address"}],"name":"isAuthorizedProcessor","outputs":[{"internalType":"bool","name":"","type":"bool"}],"stateMutability":"view","type":"function"},{"inputs":[{"internalType":"uint256","name":"_batchId","type":"uint256"}],"name":"markAsDistributed","outputs":[],"stateMutability":"nonpayable","type":"function"},{"inputs":[{"internalType":"uint256","name":"_batchId","type":"uint256"}],"name":"markAsProcessed","outputs":[],"stateMutability":"nonpayable","type":"function"},{"inputs":[],"name":"nextBatchId","outputs":[{"internalType":"uint256","name":"","type":"uint256"}],"stateMutability":"view","type":"function"},{"inputs":[],"name":"nextStepId","outputs":[{"internalType":"uint256","name":"","type":"uint256"}],"stateMutability":"view","type":"function"},{"inputs":[],"name":"nextTestId","outputs":[{"internalType":"uint256","name":"","type":"uint256"}],"stateMutability":"view","type":"function"},{"inputs":[],"name":"owner","outputs":[{"internalType":"address","name":"","type":"address"}],"stateMutability":"view","type":"function"},{"inputs":[{"internalType":"uint256","name":"","type":"uint256"}],"name":"processingSteps","outputs":[{"internalType":"uint256","name":"stepId","type":"uint256"},{"internalType":"uint256","name":"batchId","type":"uint256"},{"internalType":"address","name":"processor","type":"address"},{"internalType":"string","name":"processType","type":"string"},{"internalType":"string","name":"processDetails","type":"string"},{"internalType":"uint256","name":"processTimestamp","type":"uint256"},{"internalType":"string","name":"gpsLocation","type":"string"}],"stateMutability":"view","type":"function"},{"inputs":[{"internalType":"uint256","name":"","type":"uint256"}],"name":"qualityTests","outputs":[{"internalType":"uint256","name":"testId","type":"uint256"},{"internalType":"uint256","name":"batchId","type":"uint256"},{"internalType":"address","name":"laboratory","type":"address"},{"internalType":"string","name":"testType","type":"string"},{"internalType":"uint256","name":"activeCompoundPercentage","type":"uint256"},{"internalType":"bool","name":"isAdulterated","type":"bool"},{"internalType":"string","name":"testResult","type":"string"},{"internalType":"uint256","name":"testTimestamp","type":"uint256"},{"internalType":"string","name":"certificateHash","type":"string"}],"stateMutability":"view","type":"function"},{"inputs":[{"internalType":"address","name":"_farmer","type":"address"}],"name":"revokeFarmerAuthorization","outputs":[],"stateMutability":"nonpayable","type":"function"},{"inputs":[{"internalType":"address","name":"_laboratory","type":"address"}],"name":"revokeLaboratoryAuthorization","outputs":[],"stateMutability":"nonpayable","type":"function"},{"inputs":[{"internalType":"address","name":"_processor","type":"address"}],"name":"revokeProcessorAuthorization","outputs":[],"stateMutability":"nonpayable","type":"function"},{"inputs":[],"name":"totalBatches","outputs":[{"internalType":"uint256","name":"","type":"uint256"}],"stateMutability":"view","type":"function"},{"inputs":[{"internalType":"uint256","name":"_batchId","type":"uint256"},{"internalType":"address","name":"_newOwner","type":"address"}],"name":"transferOwnership","outputs":[],"stateMutability":"nonpayable","type":"function"}],"evm":{"bytecode":{"linkReferences":{},"object":"608060405260016006556001600755600160085534801561001f57600080fd5b50600980546001600160a01b03191633179055613d8a806100416000396000f3fe608060405234801561001057600080fd5b50600436106101e55760003560e01c806374b0ce9e1161010f578063a88dde0c116100a2578063d381ba4411610071578063d381ba44146104d0578063e561dddc146104f0578063f2b57b34146104f8578063f452c7381461050b57600080fd5b8063a88dde0c1461044e578063ba38bb3514610471578063bc9f03c11461049d578063cd406a5c146104bd57600080fd5b80638462a7f8116100de5780638462a7f8146103db57806388fa2aa8146103e45780638da5cb5b1461041057806398bbadd21461043b57600080fd5b806374b0ce9e14610346578063781c065c146103595780637ae210541461038c5780638057de2a146103af57600080fd5b80633d33ebee116101875780635d5c92fa116101565780635d5c92fa146102ec578063644f1ec51461030c57806369ff6abb146103155780636c5de9b31461031e57600080fd5b80633d33ebee146102a057806340005df2146102b35780634fdd17e4146102c657806357ecdf3e146102d957600080fd5b806329507f73116101c357806329507f7314610241578063311a0deb1461025457806332a86e95146102675780633844ece91461027e57600080fd5b806308906a91146101ea578063247ab51f146101ff57806325ff981814610212575b600080fd5b6101fd6101f8366004612e54565b610537565b005b6101fd61020d366004612e78565b6105e1565b610225610220366004612e78565b6106d2565b6040516102389796959493929190612ee1565b60405180910390f35b6101fd61024f366004612f48565b6108b1565b6101fd610262366004612e54565b610a22565b61027060075481565b604051908152602001610238565b61029161028c366004612e78565b610a6d565b604051610238939291906132b3565b6101fd6102ae366004612e54565b6110a2565b6101fd6102c1366004612e54565b61113c565b6101fd6102d4366004612e54565b611187565b6102706102e73660046133fa565b6111d2565b6102ff6102fa366004612e78565b611524565b60405161023891906134d3565b61027060085481565b610270600a5481565b61033161032c366004612e78565b6118aa565b604051610238999897969594939291906134e6565b6101fd610354366004612e78565b611a9c565b61037c610367366004612e54565b60056020526000908152604090205460ff1681565b6040519015158152602001610238565b61037c61039a366004612e54565b60046020526000908152604090205460ff1681565b61037c6103bd366004612e54565b6001600160a01b031660009081526003602052604090205460ff1690565b61027060065481565b6103f76103f2366004612e78565b611be5565b6040516102389d9c9b9a99989796959493929190613565565b600954610423906001600160a01b031681565b6040516001600160a01b039091168152602001610238565b61027061044936600461362c565b611f10565b61037c61045c366004612e54565b60036020526000908152604090205460ff1681565b61037c61047f366004612e54565b6001600160a01b031660009081526004602052604090205460ff1690565b6104b06104ab366004612e78565b6120af565b60405161023891906136bd565b6102706104cb3660046136de565b61245c565b6104e36104de366004612e78565b6126f0565b6040516102389190613772565b600a54610270565b6101fd610506366004612e54565b612c53565b61037c610519366004612e54565b6001600160a01b031660009081526005602052604090205460ff1690565b6009546001600160a01b0316331461056a5760405162461bcd60e51b815260040161056190613785565b60405180910390fd5b6001600160a01b03811660008181526003602052604090819020805460ff19166001179055517f282392bddd0aaa0b50d2c25268a4cb6c4fb4fb6ada94caee6b633a87df7fbc43906105d6906020808252600690820152652330b936b2b960d11b604082015260600190565b60405180910390a250565b3360009081526005602052604090205460ff166106105760405162461bcd60e51b8152600401610561906137c7565b80600081118015610622575060065481105b61063e5760405162461bcd60e51b815260040161056190613819565b600082815260208190526040902060090154610100900460ff166106b35760405162461bcd60e51b815260206004820152602660248201527f4261746368206d75737420626520746573746564206265666f72652070726f63604482015265657373696e6760d01b6064820152608401610561565b506000908152602081905260409020600901805460ff19166001179055565b600260208190526000918252604090912080546001820154928201546003830180549294936001600160a01b039092169261070c90613847565b80601f016020809104026020016040519081016040528092919081815260200182805461073890613847565b80156107855780601f1061075a57610100808354040283529160200191610785565b820191906000526020600020905b81548152906001019060200180831161076857829003601f168201915b50505050509080600401805461079a90613847565b80601f01602080910402602001604051908101604052809291908181526020018280546107c690613847565b80156108135780601f106107e857610100808354040283529160200191610813565b820191906000526020600020905b8154815290600101906020018083116107f657829003601f168201915b50505050509080600501549080600601805461082e90613847565b80601f016020809104026020016040519081016040528092919081815260200182805461085a90613847565b80156108a75780601f1061087c576101008083540402835291602001916108a7565b820191906000526020600020905b81548152906001019060200180831161088a57829003601f168201915b5050505050905087565b816000811180156108c3575060065481105b6108df5760405162461bcd60e51b815260040161056190613819565b600083815260208190526040902060090154630100000090046001600160a01b0316331461094f5760405162461bcd60e51b815260206004820152601f60248201527f4f6e6c792063757272656e74206f776e65722063616e207472616e73666572006044820152606401610561565b6001600160a01b0382166109a55760405162461bcd60e51b815260206004820152601960248201527f496e76616c6964206e6577206f776e65722061646472657373000000000000006044820152606401610561565b6000838152602081815260409182902060090180546001600160a01b0386811663010000008181026301000000600160b81b03198516179094558551939092041680835292820152909185917f16b85f49bf01212961345d3016c9a531894accf62eb7680f2045d79185cc0ec0910160405180910390a250505050565b6009546001600160a01b03163314610a4c5760405162461bcd60e51b815260040161056190613785565b6001600160a01b03166000908152600460205260409020805460ff19169055565b610a75612cec565b60608083600081118015610a8a575060065481105b610aa65760405162461bcd60e51b815260040161056190613819565b6000858152602081815260409182902082516101e08101909352805483526001810180549192840191610ad890613847565b80601f0160208091040260200160405190810160405280929190818152602001828054610b0490613847565b8015610b515780601f10610b2657610100808354040283529160200191610b51565b820191906000526020600020905b815481529060010190602001808311610b3457829003601f168201915b50505050508152602001600282018054610b6a90613847565b80601f0160208091040260200160405190810160405280929190818152602001828054610b9690613847565b8015610be35780601f10610bb857610100808354040283529160200191610be3565b820191906000526020600020905b815481529060010190602001808311610bc657829003601f168201915b505050918352505060038201546001600160a01b03166020820152600482018054604090920191610c1390613847565b80601f0160208091040260200160405190810160405280929190818152602001828054610c3f90613847565b8015610c8c5780601f10610c6157610100808354040283529160200191610c8c565b820191906000526020600020905b815481529060010190602001808311610c6f57829003601f168201915b5050505050815260200160058201548152602001600682018054610caf90613847565b80601f0160208091040260200160405190810160405280929190818152602001828054610cdb90613847565b8015610d285780601f10610cfd57610100808354040283529160200191610d28565b820191906000526020600020905b815481529060010190602001808311610d0b57829003601f168201915b5050505050815260200160078201548152602001600882018054610d4b90613847565b80601f0160208091040260200160405190810160405280929190818152602001828054610d7790613847565b8015610dc45780601f10610d9957610100808354040283529160200191610dc4565b820191906000526020600020905b815481529060010190602001808311610da757829003601f168201915b5050509183525050600982015460ff80821615156020808501919091526101008304821615156040808601919091526201000084049092161515606085015263010000009092046001600160a01b03166080840152600a8401805482518185028101850190935280835260a090940193919290919060009084015b82821015610eeb578382906000526020600020018054610e5e90613847565b80601f0160208091040260200160405190810160405280929190818152602001828054610e8a90613847565b8015610ed75780601f10610eac57610100808354040283529160200191610ed7565b820191906000526020600020905b815481529060010190602001808311610eba57829003601f168201915b505050505081526020019060010190610e3f565b505050508152602001600b8201805480602002602001604051908101604052809291908181526020016000905b82821015610fc4578382906000526020600020018054610f3790613847565b80601f0160208091040260200160405190810160405280929190818152602001828054610f6390613847565b8015610fb05780601f10610f8557610100808354040283529160200191610fb0565b820191906000526020600020905b815481529060010190602001808311610f9357829003601f168201915b505050505081526020019060010190610f18565b5050509152505060405163bc9f03c160e01b815260048101879052909450309063bc9f03c190602401600060405180830381865afa15801561100a573d6000803e3d6000fd5b505050506040513d6000823e601f3d908101601f191682016040526110329190810190613906565b604051632eae497d60e11b8152600481018790529093503090635d5c92fa90602401600060405180830381865afa158015611071573d6000803e3d6000fd5b505050506040513d6000823e601f3d908101601f191682016040526110999190810190613a84565b93959294505050565b6009546001600160a01b031633146110cc5760405162461bcd60e51b815260040161056190613785565b6001600160a01b03811660008181526004602052604090819020805460ff19166001179055517f282392bddd0aaa0b50d2c25268a4cb6c4fb4fb6ada94caee6b633a87df7fbc43906105d6906020808252600a90820152694c61626f7261746f727960b01b604082015260600190565b6009546001600160a01b031633146111665760405162461bcd60e51b815260040161056190613785565b6001600160a01b03166000908152600560205260409020805460ff19169055565b6009546001600160a01b031633146111b15760405162461bcd60e51b815260040161056190613785565b6001600160a01b03166000908152600360205260409020805460ff19169055565b3360009081526003602052604081205460ff166112495760405162461bcd60e51b815260206004820152602f60248201527f4f6e6c7920617574686f72697a6564206661726d6572732063616e207065726660448201526e37b936903a3434b99030b1ba34b7b760891b6064820152608401610561565b600680546000918261125a83613bdf565b919050559050604051806101e00160405280828152602001898152602001888152602001336001600160a01b03168152602001878152602001428152602001868152602001858152602001848152602001600015158152602001600015158152602001600015158152602001336001600160a01b0316815260200160006001600160401b038111156112ee576112ee6132ec565b60405190808252806020026020018201604052801561132157816020015b606081526020019060019003908161130c5790505b508152602001600060405190808252806020026020018201604052801561135c57816020015b60608152602001906001900390816113475790505b509052600082815260208181526040909120825181559082015160018201906113859082613c55565b506040820151600282019061139a9082613c55565b5060608201516003820180546001600160a01b0319166001600160a01b03909216919091179055608082015160048201906113d59082613c55565b5060a0820151600582015560c082015160068201906113f49082613c55565b5060e0820151600782015561010082015160088201906114149082613c55565b506101208201516009820180546101408501516101608601516101808701516001600160a01b03166301000000026301000000600160b81b031991151562010000029190911662010000600160b81b03199215156101000261ff00199615159690961661ffff19909416939093179490941716179190911790556101a082015180516114aa91600a840191602090910190612d7a565b506101c082015180516114c791600b840191602090910190612d7a565b5050600a8054915060006114da83613bdf565b9190505550807f8b8a9eb920fc6fe924ad2c88bfeb40e337fb9683c57823cce2d3360dde496f288933604051611511929190613d14565b60405180910390a2979650505050505050565b606081600081118015611538575060065481105b6115545760405162461bcd60e51b815260040161056190613819565b600060015b60085481101561159c5760008181526002602052604090206001015485900361158a578161158681613bdf565b9250505b8061159481613bdf565b915050611559565b506000816001600160401b038111156115b7576115b76132ec565b60405190808252806020026020018201604052801561163157816020015b61161e6040518060e00160405280600081526020016000815260200160006001600160a01b03168152602001606081526020016060815260200160008152602001606081525090565b8152602001906001900390816115d55790505b509050600060015b60085481101561189d5760008181526002602052604090206001015487900361188b57600081815260026020818152604092839020835160e08101855281548152600182015492810192909252918201546001600160a01b0316928101929092526003810180546060840191906116af90613847565b80601f01602080910402602001604051908101604052809291908181526020018280546116db90613847565b80156117285780601f106116fd57610100808354040283529160200191611728565b820191906000526020600020905b81548152906001019060200180831161170b57829003601f168201915b5050505050815260200160048201805461174190613847565b80601f016020809104026020016040519081016040528092919081815260200182805461176d90613847565b80156117ba5780601f1061178f576101008083540402835291602001916117ba565b820191906000526020600020905b81548152906001019060200180831161179d57829003601f168201915b50505050508152602001600582015481526020016006820180546117dd90613847565b80601f016020809104026020016040519081016040528092919081815260200182805461180990613847565b80156118565780601f1061182b57610100808354040283529160200191611856565b820191906000526020600020905b81548152906001019060200180831161183957829003601f168201915b50505050508152505083838151811061187157611871613d3e565b6020026020010181905250818061188790613bdf565b9250505b8061189581613bdf565b915050611639565b5090935050505b50919050565b6001602081905260009182526040909120805491810154600282015460038301805492936001600160a01b03909216926118e390613847565b80601f016020809104026020016040519081016040528092919081815260200182805461190f90613847565b801561195c5780601f106119315761010080835404028352916020019161195c565b820191906000526020600020905b81548152906001019060200180831161193f57829003601f168201915b50505050600483015460058401546006850180549495929460ff90921693509061198590613847565b80601f01602080910402602001604051908101604052809291908181526020018280546119b190613847565b80156119fe5780601f106119d3576101008083540402835291602001916119fe565b820191906000526020600020905b8154815290600101906020018083116119e157829003601f168201915b505050505090806007015490806008018054611a1990613847565b80601f0160208091040260200160405190810160405280929190818152602001828054611a4590613847565b8015611a925780601f10611a6757610100808354040283529160200191611a92565b820191906000526020600020905b815481529060010190602001808311611a7557829003601f168201915b5050505050905089565b80600081118015611aae575060065481105b611aca5760405162461bcd60e51b815260040161056190613819565b600082815260208190526040902060090154630100000090046001600160a01b03163314611b4d5760405162461bcd60e51b815260206004820152602a60248201527f4f6e6c792063757272656e74206f776e65722063616e206d61726b20617320646044820152691a5cdd1c9a589d5d195960b21b6064820152608401610561565b60008281526020819052604090206009015460ff16611bc25760405162461bcd60e51b815260206004820152602b60248201527f4261746368206d7573742062652070726f636573736564206265666f7265206460448201526a34b9ba3934b13aba34b7b760a91b6064820152608401610561565b506000908152602081905260409020600901805462ff0000191662010000179055565b60006020819052908152604090208054600182018054919291611c0790613847565b80601f0160208091040260200160405190810160405280929190818152602001828054611c3390613847565b8015611c805780601f10611c5557610100808354040283529160200191611c80565b820191906000526020600020905b815481529060010190602001808311611c6357829003601f168201915b505050505090806002018054611c9590613847565b80601f0160208091040260200160405190810160405280929190818152602001828054611cc190613847565b8015611d0e5780601f10611ce357610100808354040283529160200191611d0e565b820191906000526020600020905b815481529060010190602001808311611cf157829003601f168201915b505050600384015460048501805494956001600160a01b03909216949193509150611d3890613847565b80601f0160208091040260200160405190810160405280929190818152602001828054611d6490613847565b8015611db15780601f10611d8657610100808354040283529160200191611db1565b820191906000526020600020905b815481529060010190602001808311611d9457829003601f168201915b505050505090806005015490806006018054611dcc90613847565b80601f0160208091040260200160405190810160405280929190818152602001828054611df890613847565b8015611e455780601f10611e1a57610100808354040283529160200191611e45565b820191906000526020600020905b815481529060010190602001808311611e2857829003601f168201915b505050505090806007015490806008018054611e6090613847565b80601f0160208091040260200160405190810160405280929190818152602001828054611e8c90613847565b8015611ed95780601f10611eae57610100808354040283529160200191611ed9565b820191906000526020600020905b815481529060010190602001808311611ebc57829003601f168201915b5050506009909301549192505060ff80821691610100810482169162010000820416906001600160a01b036301000000909104168d565b3360009081526005602052604081205460ff16611f3f5760405162461bcd60e51b8152600401610561906137c7565b84600081118015611f51575060065481105b611f6d5760405162461bcd60e51b815260040161056190613819565b6008805460009182611f7e83613bdf565b909155506040805160e08101825282815260208082018b815233838501908152606084018c8152608085018c90524260a086015260c085018b905260008781526002948590529590952084518155915160018301555191810180546001600160a01b0319166001600160a01b0390931692909217909155915192935091600382019061200a9082613c55565b506080820151600482019061201f9082613c55565b5060a0820151600582015560c0820151600682019061203e9082613c55565b5050506000878152602081815260408220600b01805460018101825590835291200161206a8682613c55565b506040805182815233602082015288917f6189cb54e555b1a2a4e5c701c017a6e951a743c97ecde613bca991f4eb4da30b910160405180910390a29695505050505050565b6060816000811180156120c3575060065481105b6120df5760405162461bcd60e51b815260040161056190613819565b600060015b6007548110156121285760008181526001602081905260409091200154859003612116578161211281613bdf565b9250505b8061212081613bdf565b9150506120e4565b506000816001600160401b03811115612143576121436132ec565b6040519080825280602002602001820160405280156121ce57816020015b6121bb604051806101200160405280600081526020016000815260200160006001600160a01b0316815260200160608152602001600081526020016000151581526020016060815260200160008152602001606081525090565b8152602001906001900390816121615790505b509050600060015b60075481101561189d576000818152600160208190526040909120015487900361244a5760008181526001602081815260409283902083516101208101855281548152928101549183019190915260028101546001600160a01b03169282019290925260038201805491929160608401919061225190613847565b80601f016020809104026020016040519081016040528092919081815260200182805461227d90613847565b80156122ca5780601f1061229f576101008083540402835291602001916122ca565b820191906000526020600020905b8154815290600101906020018083116122ad57829003601f168201915b505050918352505060048201546020820152600582015460ff161515604082015260068201805460609092019161230090613847565b80601f016020809104026020016040519081016040528092919081815260200182805461232c90613847565b80156123795780601f1061234e57610100808354040283529160200191612379565b820191906000526020600020905b81548152906001019060200180831161235c57829003601f168201915b505050505081526020016007820154815260200160088201805461239c90613847565b80601f01602080910402602001604051908101604052809291908181526020018280546123c890613847565b80156124155780601f106123ea57610100808354040283529160200191612415565b820191906000526020600020905b8154815290600101906020018083116123f857829003601f168201915b50505050508152505083838151811061243057612430613d3e565b6020026020010181905250818061244690613bdf565b9250505b8061245481613bdf565b9150506121d6565b3360009081526004602052604081205460ff166124d85760405162461bcd60e51b815260206004820152603460248201527f4f6e6c7920617574686f72697a6564206c61626f7261746f726965732063616e604482015273103832b93337b936903a3434b99030b1ba34b7b760611b6064820152608401610561565b866000811180156124ea575060065481105b6125065760405162461bcd60e51b815260040161056190613819565b600088815260208190526040902060090154610100900460ff16156125645760405162461bcd60e51b815260206004820152601460248201527310985d18da08185b1c9958591e481d195cdd195960621b6044820152606401610561565b600780546000918261257583613bdf565b90915550604080516101208101825282815260208082018d815233838501908152606084018e8152608085018e90528c151560a086015260c085018c90524260e086015261010085018b90526000878152600194859052959095208451815591519282019290925590516002820180546001600160a01b0319166001600160a01b0390921691909117905591519293509160038201906126159082613c55565b506080820151600482015560a082015160058201805460ff191691151591909117905560c0820151600682019061264c9082613c55565b5060e08201516007820155610100820151600882019061266c9082613c55565b505050600089815260208181526040822060098101805461ff001916610100179055600a0180546001810182559083529120016126a98682613c55565b50604080518281523360208201528a917f4284c7390f4a945706bcc5addd04b1e96a30c8203086ebd20db676623f62a369910160405180910390a298975050505050505050565b6126f8612cec565b8160008111801561270a575060065481105b6127265760405162461bcd60e51b815260040161056190613819565b6000838152602081815260409182902082516101e0810190935280548352600181018054919284019161275890613847565b80601f016020809104026020016040519081016040528092919081815260200182805461278490613847565b80156127d15780601f106127a6576101008083540402835291602001916127d1565b820191906000526020600020905b8154815290600101906020018083116127b457829003601f168201915b505050505081526020016002820180546127ea90613847565b80601f016020809104026020016040519081016040528092919081815260200182805461281690613847565b80156128635780601f1061283857610100808354040283529160200191612863565b820191906000526020600020905b81548152906001019060200180831161284657829003601f168201915b505050918352505060038201546001600160a01b0316602082015260048201805460409092019161289390613847565b80601f01602080910402602001604051908101604052809291908181526020018280546128bf90613847565b801561290c5780601f106128e15761010080835404028352916020019161290c565b820191906000526020600020905b8154815290600101906020018083116128ef57829003601f168201915b505050505081526020016005820154815260200160068201805461292f90613847565b80601f016020809104026020016040519081016040528092919081815260200182805461295b90613847565b80156129a85780601f1061297d576101008083540402835291602001916129a8565b820191906000526020600020905b81548152906001019060200180831161298b57829003601f168201915b50505050508152602001600782015481526020016008820180546129cb90613847565b80601f01602080910402602001604051908101604052809291908181526020018280546129f790613847565b8015612a445780601f10612a1957610100808354040283529160200191612a44565b820191906000526020600020905b815481529060010190602001808311612a2757829003601f168201915b5050509183525050600982015460ff80821615156020808501919091526101008304821615156040808601919091526201000084049092161515606085015263010000009092046001600160a01b03166080840152600a8401805482518185028101850190935280835260a090940193919290919060009084015b82821015612b6b578382906000526020600020018054612ade90613847565b80601f0160208091040260200160405190810160405280929190818152602001828054612b0a90613847565b8015612b575780601f10612b2c57610100808354040283529160200191612b57565b820191906000526020600020905b815481529060010190602001808311612b3a57829003601f168201915b505050505081526020019060010190612abf565b505050508152602001600b8201805480602002602001604051908101604052809291908181526020016000905b82821015612c44578382906000526020600020018054612bb790613847565b80601f0160208091040260200160405190810160405280929190818152602001828054612be390613847565b8015612c305780601f10612c0557610100808354040283529160200191612c30565b820191906000526020600020905b815481529060010190602001808311612c1357829003601f168201915b505050505081526020019060010190612b98565b50505091525090949350505050565b6009546001600160a01b03163314612c7d5760405162461bcd60e51b815260040161056190613785565b6001600160a01b03811660008181526005602052604090819020805460ff19166001179055517f282392bddd0aaa0b50d2c25268a4cb6c4fb4fb6ada94caee6b633a87df7fbc43906105d690602080825260099082015268283937b1b2b9b9b7b960b91b604082015260600190565b604051806101e0016040528060008152602001606081526020016060815260200160006001600160a01b03168152602001606081526020016000815260200160608152602001600081526020016060815260200160001515815260200160001515815260200160001515815260200160006001600160a01b0316815260200160608152602001606081525090565b828054828255906000526020600020908101928215612dc0579160200282015b82811115612dc05782518290612db09082613c55565b5091602001919060010190612d9a565b50612dcc929150612dd0565b5090565b80821115612dcc576000612de48282612ded565b50600101612dd0565b508054612df990613847565b6000825580601f10612e09575050565b601f016020900490600052602060002090810190612e279190612e2a565b50565b5b80821115612dcc5760008155600101612e2b565b6001600160a01b0381168114612e2757600080fd5b600060208284031215612e6657600080fd5b8135612e7181612e3f565b9392505050565b600060208284031215612e8a57600080fd5b5035919050565b60005b83811015612eac578181015183820152602001612e94565b50506000910152565b60008151808452612ecd816020860160208601612e91565b601f01601f19169290920160200192915050565b87815286602082015260018060a01b038616604082015260e060608201526000612f0e60e0830187612eb5565b8281036080840152612f208187612eb5565b90508460a084015282810360c0840152612f3a8185612eb5565b9a9950505050505050505050565b60008060408385031215612f5b57600080fd5b823591506020830135612f6d81612e3f565b809150509250929050565b600081518084526020808501808196508360051b8101915082860160005b85811015612fc0578284038952612fae848351612eb5565b98850198935090840190600101612f96565b5091979650505050505050565b60006101e0825184526020830151816020860152612fed82860182612eb5565b915050604083015184820360408601526130078282612eb5565b915050606083015161302460608601826001600160a01b03169052565b506080830151848203608086015261303c8282612eb5565b91505060a083015160a085015260c083015184820360c08601526130608282612eb5565b91505060e083015160e085015261010080840151858303828701526130858382612eb5565b925050506101208084015161309d8287018215159052565b50506101408381015115159085015261016080840151151590850152610180808401516001600160a01b0316908501526101a080840151858303828701526130e58382612f78565b925050506101c080840151858303828701526131018382612f78565b9695505050505050565b600081518084526020808501808196508360051b8101915082860160005b85811015612fc05782840389528151610120815186528682015187870152604080830151613161828901826001600160a01b03169052565b5050606080830151828289015261317a83890182612eb5565b92505050608080830151818801525060a08083015161319c8289018215159052565b505060c080830151878303828901526131b58382612eb5565b9250505060e080830151818801525061010080830151925086820381880152506131df8183612eb5565b9a87019a9550505090840190600101613129565b600081518084526020808501808196508360051b8101915082860160005b85811015612fc057828403895281518051855285810151868601526040808201516001600160a01b03169086015260608082015160e0828801819052919061325b83890182612eb5565b92505050608080830151878303828901526132768382612eb5565b9250505060a080830151818801525060c0808301519250868203818801525061329f8183612eb5565b9a87019a9550505090840190600101613211565b6060815260006132c66060830186612fcd565b82810360208401526132d8818661310b565b9050828103604084015261310181856131f3565b634e487b7160e01b600052604160045260246000fd5b60405161012081016001600160401b0381118282101715613325576133256132ec565b60405290565b60405160e081016001600160401b0381118282101715613325576133256132ec565b604051601f8201601f191681016001600160401b0381118282101715613375576133756132ec565b604052919050565b60006001600160401b03821115613396576133966132ec565b50601f01601f191660200190565b600082601f8301126133b557600080fd5b81356133c86133c38261337d565b61334d565b8181528460208386010111156133dd57600080fd5b816020850160208301376000918101602001919091529392505050565b60008060008060008060c0878903121561341357600080fd5b86356001600160401b038082111561342a57600080fd5b6134368a838b016133a4565b9750602089013591508082111561344c57600080fd5b6134588a838b016133a4565b9650604089013591508082111561346e57600080fd5b61347a8a838b016133a4565b9550606089013591508082111561349057600080fd5b61349c8a838b016133a4565b94506080890135935060a08901359150808211156134b957600080fd5b506134c689828a016133a4565b9150509295509295509295565b602081526000612e7160208301846131f3565b898152602081018990526001600160a01b0388166040820152610120606082018190526000906135188382018a612eb5565b905087608084015286151560a084015282810360c084015261353a8187612eb5565b90508460e08401528281036101008401526135558185612eb5565b9c9b505050505050505050505050565b8d81526101a0602082015260006135806101a083018f612eb5565b8281036040840152613592818f612eb5565b6001600160a01b038e166060850152905082810360808401526135b5818d612eb5565b90508a60a084015282810360c08401526135cf818b612eb5565b90508860e08401528281036101008401526135ea8189612eb5565b9150506135fc61012083018715159052565b9315156101408201529115156101608301526001600160a01b0316610180909101529a9950505050505050505050565b6000806000806080858703121561364257600080fd5b8435935060208501356001600160401b038082111561366057600080fd5b61366c888389016133a4565b9450604087013591508082111561368257600080fd5b61368e888389016133a4565b935060608701359150808211156136a457600080fd5b506136b1878288016133a4565b91505092959194509250565b602081526000612e71602083018461310b565b8015158114612e2757600080fd5b60008060008060008060c087890312156136f757600080fd5b8635955060208701356001600160401b038082111561371557600080fd5b6137218a838b016133a4565b9650604089013595506060890135915061373a826136d0565b9093506080880135908082111561375057600080fd5b61375c8a838b016133a4565b935060a08901359150808211156134b957600080fd5b602081526000612e716020830184612fcd565b60208082526022908201527f4f6e6c79206f776e65722063616e20706572666f726d2074686973206163746960408201526137b760f11b606082015260800190565b60208082526032908201527f4f6e6c7920617574686f72697a65642070726f636573736f72732063616e207060408201527132b93337b936903a3434b99030b1ba34b7b760711b606082015260800190565b60208082526014908201527310985d18da08191bd95cc81b9bdd08195e1a5cdd60621b604082015260600190565b600181811c9082168061385b57607f821691505b6020821081036118a457634e487b7160e01b600052602260045260246000fd5b60006001600160401b03821115613894576138946132ec565b5060051b60200190565b80516138a981612e3f565b919050565b600082601f8301126138bf57600080fd5b81516138cd6133c38261337d565b8181528460208386010111156138e257600080fd5b6138f3826020830160208701612e91565b949350505050565b80516138a9816136d0565b6000602080838503121561391957600080fd5b82516001600160401b038082111561393057600080fd5b818501915085601f83011261394457600080fd5b81516139526133c38261387b565b81815260059190911b8301840190848101908883111561397157600080fd5b8585015b83811015613a775780518581111561398c57600080fd5b8601610120818c03601f19018113156139a457600080fd5b6139ac613302565b89830151815260408301518a8201526139c76060840161389e565b60408201526080830151888111156139de57600080fd5b6139ec8e8c838701016138ae565b60608301525060a08301516080820152613a0860c084016138fb565b60a082015260e08084015189811115613a215760008081fd5b613a2f8f8d838801016138ae565b60c0840152506101008481015182840152928401519289841115613a5557600091508182fd5b613a638f8d868801016138ae565b908301525085525050918601918601613975565b5098975050505050505050565b60006020808385031215613a9757600080fd5b82516001600160401b0380821115613aae57600080fd5b818501915085601f830112613ac257600080fd5b8151613ad06133c38261387b565b81815260059190911b83018401908481019088831115613aef57600080fd5b8585015b83811015613a7757805185811115613b0a57600080fd5b860160e0818c03601f19011215613b215760008081fd5b613b2961332b565b8882015181526040808301518a8301526060613b4681850161389e565b82840152608091508184015189811115613b605760008081fd5b613b6e8f8d838801016138ae565b82850152505060a08084015189811115613b885760008081fd5b613b968f8d838801016138ae565b838501525060c0915081840151818401525060e083015188811115613bbb5760008081fd5b613bc98e8c838701016138ae565b9183019190915250845250918601918601613af3565b600060018201613bff57634e487b7160e01b600052601160045260246000fd5b5060010190565b601f821115613c5057600081815260208120601f850160051c81016020861015613c2d5750805b601f850160051c820191505b81811015613c4c57828155600101613c39565b5050505b505050565b81516001600160401b03811115613c6e57613c6e6132ec565b613c8281613c7c8454613847565b84613c06565b602080601f831160018114613cb75760008415613c9f5750858301515b600019600386901b1c1916600185901b178555613c4c565b600085815260208120601f198616915b82811015613ce657888601518255948401946001909101908401613cc7565b5085821015613d045787850151600019600388901b60f8161c191681555b5050505050600190811b01905550565b604081526000613d276040830185612eb5565b905060018060a01b03831660208301529392505050565b634e487b7160e01b600052603260045260246000fdfea2646970667358221220b9ffb71a2f901d4e852520e1755c6147526efce93d123bb9102334857f67ccb564736f6c63430008130033","opcodes":"PUSH1 0x80 PUSH1 0x40 MSTORE PUSH1 0x1 PUSH1 0x6 SSTORE PUSH1 0x1 PUSH1 0x7 SSTORE PUSH1 0x1 PUSH1 0x8 SSTORE CALLVALUE DUP1 ISZERO PUSH2 0x1F JUMPI PUSH1 0x0 DUP1 REVERT JUMPDEST POP PUSH1 0x9 DUP1 SLOAD PUSH1 0x1 PUSH1 0x1 PUSH1 0xA0 SHL SUB NOT AND CALLER OR SWAP1 SSTORE PUSH2 0x3D8A DUP1 PUSH2 0x41 PUSH1 0x0 CODECOPY PUSH1 0x0 RETURN INVALID PUSH1 0x80 PUSH1 0x40 MSTORE CALLVALUE DUP1 ISZERO PUSH2 0x10 JUMPI PUSH1 0x0 DUP1 REVERT JUMPDEST POP PUSH1 0x4 CALLDATASIZE LT PUSH2 0x1E5 JUMPI PUSH1 0x0 CALLDATALOAD PUSH1 0xE0 SHR DUP1 PUSH4 0x74B0CE9E GT PUSH2 0x10F JUMPI DUP1 PUSH4 0xA88DDE0C GT PUSH2 0xA2 JUMPI DUP1 PUSH4 0xD381BA44 GT PUSH2 0x71 JUMPI DUP1 PUSH4 0xD381BA44 EQ PUSH2 0x4D0 JUMPI DUP1 PUSH4 0xE561DDDC EQ PUSH2 0x4F0 JUMPI DUP1 PUSH4 0xF2B57B34 EQ PUSH2 0x4F8 JUMPI DUP1 PUSH4 0xF452C738 EQ PUSH2 0x50B JUMPI PUSH1 0x0 DUP1 REVERT JUMPDEST DUP1 PUSH4 0xA88DDE0C EQ PUSH2 0x44E JUMPI DUP1 PUSH4 0xBA38BB35 EQ PUSH2 0x471 JUMPI DUP1 PUSH4 0xBC9F03C1 EQ PUSH2 0x49D JUMPI DUP1 PUSH4 0xCD406A5C EQ PUSH2 0x4BD JUMPI PUSH1 0x0 DUP1 REVERT JUMPDEST DUP1 PUSH4 0x8462A7F8 GT PUSH2 0xDE JUMPI DUP1 PUSH4 0x8462A7F8 EQ PUSH2 0x3DB JUMPI DUP1 PUSH4 0x88FA2AA8 EQ PUSH2 0x3E4 JUMPI DUP1 PUSH4 0x8DA5CB5B EQ PUSH2 0x410 JUMPI DUP1 PUSH4 0x98BBADD2 EQ PUSH2 0x43B JUMPI PUSH1 0x0 DUP1 REVERT JUMPDEST DUP1 PUSH4 0x74B0CE9E EQ PUSH2 0x346 JUMPI DUP1 PUSH4 0x781C065C EQ PUSH2 0x359 JUMPI DUP1 PUSH4 0x7AE21054 EQ PUSH2 0x38C JUMPI DUP1 PUSH4 0x8057DE2A EQ PUSH2 0x3AF JUMPI PUSH1 0x0 DUP1 REVERT JUMPDEST DUP1 PUSH4 0x3D33EBEE GT PUSH2 0x187 JUMPI DUP1 PUSH4 0x5D5C92FA GT PUSH2 0x156 JUMPI DUP1 PUSH4 0x5D5C92FA EQ PUSH2 0x2EC JUMPI DUP1 PUSH4 0x644F1EC5 EQ PUSH2 0x30C JUMPI DUP1 PUSH4 0x69FF6ABB EQ PUSH2 0x315 JUMPI DUP1 PUSH4 0x6C5DE9B3 EQ PUSH2 0x31E JUMPI PUSH1 0x0 DUP1 REVERT JUMPDEST DUP1 PUSH4 0x3D33EBEE EQ PUSH2 0x2A0 JUMPI DUP1 PUSH4 0x40005DF2 EQ PUSH2 0x2B3 JUMPI DUP1 PUSH4 0x4FDD17E4 EQ PUSH2 0x2C6 JUMPI DUP1 PUSH4 0x57ECDF3E EQ PUSH2 0x2D9 JUMPI PUSH1 0x0 DUP1 REVERT JUMPDEST DUP1 PUSH4 0x29507F73 GT PUSH2 0x1C3 JUMPI DUP1 PUSH4 0x29507F73 EQ PUSH2 0x241 JUMPI DUP1 PUSH4 0x311A0DEB EQ PUSH2 0x254 JUMPI DUP1 PUSH4 0x32A86E95 EQ PUSH2 0x267 JUMPI DUP1 PUSH4 0x3844ECE9 EQ PUSH2 0x27E JUMPI PUSH1 0x0 DUP1 REVERT JUMPDEST DUP1 PUSH4 0x8906A91 EQ PUSH2 0x1EA JUMPI DUP1 PUSH4 0x247AB51F EQ PUSH2 0x1FF JUMPI DUP1 PUSH4 0x25FF9818 EQ PUSH2 0x212 JUMPI JUMPDEST PUSH1 0x0 DUP1 REVERT JUMPDEST PUSH2 0x1FD PUSH2 0x1F8 CALLDATASIZE PUSH1 0x4 PUSH2 0x2E54 JUMP JUMPDEST PUSH2 0x537 JUMP JUMPDEST STOP JUMPDEST PUSH2 0x1FD PUSH2 0x20D CALLDATASIZE PUSH1 0x4 PUSH2 0x2E78 JUMP JUMPDEST PUSH2 0x5E1 JUMP JUMPDEST PUSH2 0x225 PUSH2 0x220 CALLDATASIZE PUSH1 0x4 PUSH2 0x2E78 JUMP JUMPDEST PUSH2 0x6D2 JUMP JUMPDEST PUSH1 0x40 MLOAD PUSH2 0x238 SWAP8 SWAP7 SWAP6 SWAP5 SWAP4 SWAP3 SWAP2 SWAP1 PUSH2 0x2EE1 JUMP JUMPDEST PUSH1 0x40 MLOAD DUP1 SWAP2 SUB SWAP1 RETURN JUMPDEST PUSH2 0x1FD PUSH2 0x24F CALLDATASIZE PUSH1 0x4 PUSH2 0x2F48 JUMP JUMPDEST PUSH2 0x8B1 JUMP JUMPDEST PUSH2 0x1FD PUSH2 0x262 CALLDATASIZE PUSH1 0x4 PUSH2 0x2E54 JUMP JUMPDEST PUSH2 0xA22 JUMP JUMPDEST PUSH2 0x270 PUSH1 0x7 SLOAD DUP2 JUMP JUMPDEST PUSH1 0x40 MLOAD SWAP1 DUP2 MSTORE PUSH1 0x20 ADD PUSH2 0x238 JUMP JUMPDEST PUSH2 0x291 PUSH2 0x28C CALLDATASIZE PUSH1 0x4 PUSH2 0x2E78 JUMP JUMPDEST PUSH2 0xA6D JUMP JUMPDEST PUSH1 0x40 MLOAD PUSH2 0x238 SWAP4 SWAP3 SWAP2 SWAP1 PUSH2 0x32B3 JUMP JUMPDEST PUSH2 0x1FD PUSH2 0x2AE CALLDATASIZE PUSH1 0x4 PUSH2 0x2E54 JUMP JUMPDEST PUSH2 0x10A2 JUMP JUMPDEST PUSH2 0x1FD PUSH2 0x2C1 CALLDATASIZE PUSH1 0x4 PUSH2 0x2E54 JUMP JUMPDEST PUSH2 0x113C JUMP JUMPDEST PUSH2 0x1FD PUSH2 0x2D4 CALLDATASIZE PUSH1 0x4 PUSH2 0x2E54 JUMP JUMPDEST PUSH2 0x1187 JUMP JUMPDEST PUSH2 0x270 PUSH2 0x2E7 CALLDATASIZE PUSH1 0x4 PUSH2 0x33FA JUMP JUMPDEST PUSH2 0x11D2 JUMP JUMPDEST PUSH2 0x2FF PUSH2 0x2FA CALLDATASIZE PUSH1 0x4 PUSH2 0x2E78 JUMP JUMPDEST PUSH2 0x1524 JUMP JUMPDEST PUSH1 0x40 MLOAD PUSH2 0x238 SWAP2 SWAP1 PUSH2 0x34D3 JUMP JUMPDEST PUSH2 0x270 PUSH1 0x8 SLOAD DUP2 JUMP JUMPDEST PUSH2 0x270 PUSH1 0xA SLOAD DUP2 JUMP JUMPDEST PUSH2 0x331 PUSH2 0x32C CALLDATASIZE PUSH1 0x4 PUSH2 0x2E78 JUMP JUMPDEST PUSH2 0x18AA JUMP JUMPDEST PUSH1 0x40 MLOAD PUSH2 0x238 SWAP10 SWAP9 SWAP8 SWAP7 SWAP6 SWAP5 SWAP4 SWAP3 SWAP2 SWAP1 PUSH2 0x34E6 JUMP JUMPDEST PUSH2 0x1FD PUSH2 0x354 CALLDATASIZE PUSH1 0x4 PUSH2 0x2E78 JUMP JUMPDEST PUSH2 0x1A9C JUMP JUMPDEST PUSH2 0x37C PUSH2 0x367 CALLDATASIZE PUSH1 0x4 PUSH2 0x2E54 JUMP JUMPDEST PUSH1 0x5 PUSH1 0x20 MSTORE PUSH1 0x0 SWAP1 DUP2 MSTORE PUSH1 0x40 SWAP1 KECCAK256 SLOAD PUSH1 0xFF AND DUP2 JUMP JUMPDEST PUSH1 0x40 MLOAD SWAP1 ISZERO ISZERO DUP2 MSTORE PUSH1 0x20 ADD PUSH2 0x238 JUMP JUMPDEST PUSH2 0x37C PUSH2 0x39A CALLDATASIZE PUSH1 0x4 PUSH2 0x2E54 JUMP JUMPDEST PUSH1 0x4 PUSH1 0x20 MSTORE PUSH1 0x0 SWAP1 DUP2 MSTORE PUSH1 0x40 SWAP1 KECCAK256 SLOAD PUSH1 0xFF AND DUP2 JUMP JUMPDEST PUSH2 0x37C PUSH2 0x3BD CALLDATASIZE PUSH1 0x4 PUSH2 0x2E54 JUMP JUMPDEST PUSH1 0x1 PUSH1 0x1 PUSH1 0xA0 SHL SUB AND PUSH1 0x0 SWAP1 DUP2 MSTORE PUSH1 0x3 PUSH1 0x20 MSTORE PUSH1 0x40 SWAP1 KECCAK256 SLOAD PUSH1 0xFF AND SWAP1 JUMP JUMPDEST PUSH2 0x270 PUSH1 0x6 SLOAD DUP2 JUMP JUMPDEST PUSH2 0x3F7 PUSH2 0x3F2 CALLDATASIZE PUSH1 0x4 PUSH2 0x2E78 JUMP JUMPDEST PUSH2 0x1BE5 JUMP JUMPDEST PUSH1 0x40 MLOAD PUSH2 0x238 SWAP14 SWAP13 SWAP12 SWAP11 SWAP10 SWAP9 SWAP8 SWAP7 SWAP6 SWAP5 SWAP4 SWAP3 SWAP2 SWAP1 PUSH2 0x3565 JUMP JUMPDEST PUSH1 0x9 SLOAD PUSH2 0x423 SWAP1 PUSH1 0x1 PUSH1 0x1 PUSH1 0xA0 SHL SUB AND DUP2 JUMP JUMPDEST PUSH1 0x40 MLOAD PUSH1 0x1 PUSH1 0x1 PUSH1 0xA0 SHL SUB SWAP1 SWAP2 AND DUP2 MSTORE PUSH1 0x20 ADD PUSH2 0x238 JUMP JUMPDEST PUSH2 0x270 PUSH2 0x449 CALLDATASIZE PUSH1 0x4 PUSH2 0x362C JUMP JUMPDEST PUSH2 0x1F10 JUMP JUMPDEST PUSH2 0x37C PUSH2 0x45C CALLDATASIZE PUSH1 0x4 PUSH2 0x2E54 JUMP JUMPDEST PUSH1 0x3 PUSH1 0x20 MSTORE PUSH1 0x0 SWAP1 DUP2 MSTORE PUSH1 0x40 SWAP1 KECCAK256 SLOAD PUSH1 0xFF AND DUP2 JUMP JUMPDEST PUSH2 0x37C PUSH2 0x47F CALLDATASIZE PUSH1 0x4 PUSH2 0x2E54 JUMP JUMPDEST PUSH1 0x1 PUSH1 0x1 PUSH1 0xA0 SHL SUB AND PUSH1 0x0 SWAP1 DUP2 MSTORE PUSH1 0x4 PUSH1 0x20 MSTORE PUSH1 0x40 SWAP1 KECCAK256 SLOAD PUSH1 0xFF AND SWAP1 JUMP JUMPDEST PUSH2 0x4B0 PUSH2 0x4AB CALLDATASIZE PUSH1 0x4 PUSH2 0x2E78 JUMP JUMPDEST PUSH2 0x20AF JUMP JUMPDEST PUSH1 0x40 MLOAD PUSH2 0x238 SWAP2 SWAP1 PUSH2 0x36BD JUMP JUMPDEST PUSH2 0x270 PUSH2 0x4CB CALLDATASIZE PUSH1 0x4 PUSH2 0x36DE JUMP JUMPDEST PUSH2 0x245C JUMP JUMPDEST PUSH2 0x4E3 PUSH2 0x4DE CALLDATASIZE PUSH1 0x4 PUSH2 0x2E78 JUMP JUMPDEST PUSH2 0x26F0 JUMP JUMPDEST PUSH1 0x40 MLOAD PUSH2 0x238 SWAP2 SWAP1 PUSH2 0x3772 JUMP JUMPDEST PUSH1 0xA SLOAD PUSH2 0x270 JUMP JUMPDEST PUSH2 0x1FD PUSH2 0x506 CALLDATASIZE PUSH1 0x4 PUSH2 0x2E54 JUMP JUMPDEST PUSH2 0x2C53 JUMP JUMPDEST PUSH2 0x37C PUSH2 0x519 CALLDATASIZE PUSH1 0x4 PUSH2 0x2E54 JUMP JUMPDEST PUSH1 0x1 PUSH1 0x1 PUSH1 0xA0 SHL SUB AND PUSH1 0x0 SWAP1 DUP2 MSTORE PUSH1 0x5 PUSH1 0x20 MSTORE PUSH1 0x40 SWAP1 KECCAK256 SLOAD PUSH1 0xFF AND SWAP1 JUMP JUMPDEST PUSH1 0x9 SLOAD PUSH1 0x1 PUSH1 0x1 PUSH1 0xA0 SHL SUB AND CALLER EQ PUSH2 0x56A JUMPI PUSH1 0x40 MLOAD PUSH3 0x461BCD PUSH1 0xE5 SHL DUP2 MSTORE PUSH1 0x4 ADD PUSH2 0x561 SWAP1 PUSH2 0x3785 JUMP JUMPDEST PUSH1 0x40 MLOAD DUP1 SWAP2 SUB SWAP1 REVERT JUMPDEST PUSH1 0x1 PUSH1 0x1 PUSH1 0xA0 SHL SUB DUP2 AND PUSH1 0x0 DUP2 DUP2 MSTORE PUSH1 0x3 PUSH1 0x20 MSTORE PUSH1 0x40 SWAP1 DUP2 SWAP1 KECCAK256 DUP1 SLOAD PUSH1 0xFF NOT AND PUSH1 0x1 OR SWAP1 SSTORE MLOAD PUSH32 0x282392BDDD0AAA0B50D2C25268A4CB6C4FB4FB6ADA94CAEE6B633A87DF7FBC43 SWAP1 PUSH2 0x5D6 SWAP1 PUSH1 0x20 DUP1 DUP3 MSTORE PUSH1 0x6 SWAP1 DUP3 ADD MSTORE PUSH6 0x2330B936B2B9 PUSH1 0xD1 SHL PUSH1 0x40 DUP3 ADD MSTORE PUSH1 0x60 ADD SWAP1 JUMP JUMPDEST PUSH1 0x40 MLOAD DUP1 SWAP2 SUB SWAP1 LOG2 POP JUMP JUMPDEST CALLER PUSH1 0x0 SWAP1 DUP2 MSTORE PUSH1 0x5 PUSH1 0x20 MSTORE PUSH1 0x40 SWAP1 KECCAK256 SLOAD PUSH1 0xFF AND PUSH2 0x610 JUMPI PUSH1 0x40 MLOAD PUSH3 0x461BCD PUSH1 0xE5 SHL DUP2 MSTORE PUSH1 0x4 ADD PUSH2 0x561 SWAP1 PUSH2 0x37C7 JUMP JUMPDEST DUP1 PUSH1 0x0 DUP2 GT DUP1 ISZERO PUSH2 0x622 JUMPI POP PUSH1 0x6 SLOAD DUP2 LT JUMPDEST PUSH2 0x63E JUMPI PUSH1 0x40 MLOAD PUSH3 0x461BCD PUSH1 0xE5 SHL DUP2 MSTORE PUSH1 0x4 ADD PUSH2 0x561 SWAP1 PUSH2 0x3819 JUMP JUMPDEST PUSH1 0x0 DUP3 DUP2 MSTORE PUSH1 0x20 DUP2 SWAP1 MSTORE PUSH1 0x40 SWAP1 KECCAK256 PUSH1 0x9 ADD SLOAD PUSH2 0x100 SWAP1 DIV PUSH1 0xFF AND PUSH2 0x6B3 JUMPI PUSH1 0x40 MLOAD PUSH3 0x461BCD PUSH1 0xE5 SHL DUP2 MSTORE PUSH1 0x20 PUSH1 0x4 DUP3 ADD MSTORE PUSH1 0x26 PUSH1 0x24 DUP3 ADD MSTORE PUSH32 0x4261746368206D75737420626520746573746564206265666F72652070726F63 PUSH1 0x44 DUP3 ADD MSTORE PUSH6 0x657373696E67 PUSH1 0xD0 SHL PUSH1 0x64 DUP3 ADD MSTORE PUSH1 0x84 ADD PUSH2 0x561 JUMP JUMPDEST POP PUSH1 0x0 SWAP1 DUP2 MSTORE PUSH1 0x20 DUP2 SWAP1 MSTORE PUSH1 0x40 SWAP1 KECCAK256 PUSH1 0x9 ADD DUP1 SLOAD PUSH1 0xFF NOT AND PUSH1 0x1 OR SWAP1 SSTORE JUMP JUMPDEST PUSH1 0x2 PUSH1 0x20 DUP2 SWAP1 MSTORE PUSH1 0x0 SWAP2 DUP3 MSTORE PUSH1 0x40 SWAP1 SWAP2 KECCAK256 DUP1 SLOAD PUSH1 0x1 DUP3 ADD SLOAD SWAP3 DUP3 ADD SLOAD PUSH1 0x3 DUP4 ADD DUP1 SLOAD SWAP3 SWAP5 SWAP4 PUSH1 0x1 PUSH1 0x1 PUSH1 0xA0 SHL SUB SWAP1 SWAP3 AND SWAP3 PUSH2 0x70C SWAP1 PUSH2 0x3847 JUMP JUMPDEST DUP1 PUSH1 0x1F ADD PUSH1 0x20 DUP1 SWAP2 DIV MUL PUSH1 0x20 ADD PUSH1 0x40 MLOAD SWAP1 DUP2 ADD PUSH1 0x40 MSTORE DUP1 SWAP3 SWAP2 SWAP1 DUP2 DUP2 MSTORE PUSH1 0x20 ADD DUP3 DUP1 SLOAD PUSH2 0x738 SWAP1 PUSH2 0x3847 JUMP JUMPDEST DUP1 ISZERO PUSH2 0x785 JUMPI DUP1 PUSH1 0x1F LT PUSH2 0x75A JUMPI PUSH2 0x100 DUP1 DUP4 SLOAD DIV MUL DUP4 MSTORE SWAP2 PUSH1 0x20 ADD SWAP2 PUSH2 0x785 JUMP JUMPDEST DUP3 ADD SWAP2 SWAP1 PUSH1 0x0 MSTORE PUSH1 0x20 PUSH1 0x0 KECCAK256 SWAP1 JUMPDEST DUP2 SLOAD DUP2 MSTORE SWAP1 PUSH1 0x1 ADD SWAP1 PUSH1 0x20 ADD DUP1 DUP4 GT PUSH2 0x768 JUMPI DUP3 SWAP1 SUB PUSH1 0x1F AND DUP3 ADD SWAP2 JUMPDEST POP POP POP POP POP SWAP1 DUP1 PUSH1 0x4 ADD DUP1 SLOAD PUSH2 0x79A SWAP1 PUSH2 0x3847 JUMP JUMPDEST DUP1 PUSH1 0x1F ADD PUSH1 0x20 DUP1 SWAP2 DIV MUL PUSH1 0x20 ADD PUSH1 0x40 MLOAD SWAP1 DUP2 ADD PUSH1 0x40 MSTORE DUP1 SWAP3 SWAP2 SWAP1 DUP2 DUP2 MSTORE PUSH1 0x20 ADD DUP3 DUP1 SLOAD PUSH2 0x7C6 SWAP1 PUSH2 0x3847 JUMP JUMPDEST DUP1 ISZERO PUSH2 0x813 JUMPI DUP1 PUSH1 0x1F LT PUSH2 0x7E8 JUMPI PUSH2 0x100 DUP1 DUP4 SLOAD DIV MUL DUP4 MSTORE SWAP2 PUSH1 0x20 ADD SWAP2 PUSH2 0x813 JUMP JUMPDEST DUP3 ADD SWAP2 SWAP1 PUSH1 0x0 MSTORE PUSH1 0x20 PUSH1 0x0 KECCAK256 SWAP1 JUMPDEST DUP2 SLOAD DUP2 MSTORE SWAP1 PUSH1 0x1 ADD SWAP1 PUSH1 0x20 ADD DUP1 DUP4 GT PUSH2 0x7F6 JUMPI DUP3 SWAP1 SUB PUSH1 0x1F AND DUP3 ADD SWAP2 JUMPDEST POP POP POP POP POP SWAP1 DUP1 PUSH1 0x5 ADD SLOAD SWAP1 DUP1 PUSH1 0x6 ADD DUP1 SLOAD PUSH2 0x82E SWAP1 PUSH2 0x3847 JUMP JUMPDEST DUP1 PUSH1 0x1F ADD PUSH1 0x20 DUP1 SWAP2 DIV MUL PUSH1 0x20 ADD PUSH1 0x40 MLOAD SWAP1 DUP2 ADD PUSH1 0x40 MSTORE DUP1 SWAP3 SWAP2 SWAP1 DUP2 DUP2 MSTORE PUSH1 0x20 ADD DUP3 DUP1 SLOAD PUSH2 0x85A SWAP1 PUSH2 0x3847 JUMP JUMPDEST DUP1 ISZERO PUSH2 0x8A7 JUMPI DUP1 PUSH1 0x1F LT PUSH2 0x87C JUMPI PUSH2 0x100 DUP1 DUP4 SLOAD DIV MUL DUP4 MSTORE SWAP2 PUSH1 0x20 ADD SWAP2 PUSH2 0x8A7 JUMP JUMPDEST DUP3 ADD SWAP2 SWAP1 PUSH1 0x0 MSTORE PUSH1 0x20 PUSH1 0x0 KECCAK256 SWAP1 JUMPDEST DUP2 SLOAD DUP2 MSTORE SWAP1 PUSH1 0x1 ADD SWAP1 PUSH1 0x20 ADD DUP1 DUP4 GT PUSH2 0x88A JUMPI DUP3 SWAP1 SUB PUSH1 0x1F AND DUP3 ADD SWAP2 JUMPDEST POP POP POP POP POP SWAP1 POP DUP8 JUMP JUMPDEST DUP2 PUSH1 0x0 DUP2 GT DUP1 ISZERO PUSH2 0x8C3 JUMPI POP PUSH1 0x6 SLOAD DUP2 LT JUMPDEST PUSH2 0x8DF JUMPI PUSH1 0x40 MLOAD PUSH3 0x461BCD PUSH1 0xE5 SHL DUP2 MSTORE PUSH1 0x4 ADD PUSH2 0x561 SWAP1 PUSH2 0x3819 JUMP JUMPDEST PUSH1 0x0 DUP4 DUP2 MSTORE PUSH1 0x20 DUP2 SWAP1 MSTORE PUSH1 0x40 SWAP1 KECCAK256 PUSH1 0x9 ADD SLOAD PUSH4 0x1000000 SWAP1 DIV PUSH1 0x1 PUSH1 0x1 PUSH1 0xA0 SHL SUB AND CALLER EQ PUSH2 0x94F JUMPI PUSH1 0x40 MLOAD PUSH3 0x461BCD PUSH1 0xE5 SHL DUP2 MSTORE PUSH1 0x20 PUSH1 0x4 DUP3 ADD MSTORE PUSH1 0x1F PUSH1 0x24 DUP3 ADD MSTORE PUSH32 0x4F6E6C792063757272656E74206F776E65722063616E207472616E7366657200 PUSH1 0x44 DUP3 ADD MSTORE PUSH1 0x64 ADD PUSH2 0x561 JUMP JUMPDEST PUSH1 0x1 PUSH1 0x1 PUSH1 0xA0 SHL SUB DUP3 AND PUSH2 0x9A5 JUMPI PUSH1 0x40 MLOAD PUSH3 0x461BCD PUSH1 0xE5 SHL DUP2 MSTORE PUSH1 0x20 PUSH1 0x4 DUP3 ADD MSTORE PUSH1 0x19 PUSH1 0x24 DUP3 ADD MSTORE PUSH32 0x496E76616C6964206E6577206F776E6572206164647265737300000000000000 PUSH1 0x44 DUP3 ADD MSTORE PUSH1 0x64 ADD PUSH2 0x561 JUMP JUMPDEST PUSH1 0x0 DUP4 DUP2 MSTORE PUSH1 0x20 DUP2 DUP2 MSTORE PUSH1 0x40 SWAP2 DUP3 SWAP1 KECCAK256 PUSH1 0x9 ADD DUP1 SLOAD PUSH1 0x1 PUSH1 0x1 PUSH1 0xA0 SHL SUB DUP7 DUP2 AND PUSH4 0x1000000 DUP2 DUP2 MUL PUSH4 0x1000000 PUSH1 0x1 PUSH1 0xB8 SHL SUB NOT DUP6 AND OR SWAP1 SWAP5 SSTORE DUP6 MLOAD SWAP4 SWAP1 SWAP3 DIV AND DUP1 DUP4 MSTORE SWAP3 DUP3 ADD MSTORE SWAP1 SWAP2 DUP6 SWAP2 PUSH32 0x16B85F49BF01212961345D3016C9A531894ACCF62EB7680F2045D79185CC0EC0 SWAP2 ADD PUSH1 0x40 MLOAD DUP1 SWAP2 SUB SWAP1 LOG2 POP POP POP POP JUMP JUMPDEST PUSH1 0x9 SLOAD PUSH1 0x1 PUSH1 0x1 PUSH1 0xA0 SHL SUB AND CALLER EQ PUSH2 0xA4C JUMPI PUSH1 0x40 MLOAD PUSH3 0x461BCD PUSH1 0xE5 SHL DUP2 MSTORE PUSH1 0x4 ADD PUSH2 0x561 SWAP1 PUSH2 0x3785 JUMP JUMPDEST PUSH1 0x1 PUSH1 0x1 PUSH1 0xA0 SHL SUB AND PUSH1 0x0 SWAP1 DUP2 MSTORE PUSH1 0x4 PUSH1 0x20 MSTORE PUSH1 0x40 SWAP1 KECCAK256 DUP1 SLOAD PUSH1 0xFF NOT AND SWAP1 SSTORE JUMP JUMPDEST PUSH2 0xA75 PUSH2 0x2CEC JUMP JUMPDEST PUSH1 0x60 DUP1 DUP4 PUSH1 0x0 DUP2 GT DUP1 ISZERO PUSH2 0xA8A JUMPI POP PUSH1 0x6 SLOAD DUP2 LT JUMPDEST PUSH2 0xAA6 JUMPI PUSH1 0x40 MLOAD PUSH3 0x461BCD PUSH1 0xE5 SHL DUP2 MSTORE PUSH1 0x4 ADD PUSH2 0x561 SWAP1 PUSH2 0x3819 JUMP JUMPDEST PUSH1 0x0 DUP6 DUP2 MSTORE PUSH1 0x20 DUP2 DUP2 MSTORE PUSH1 0x40 SWAP2 DUP3 SWAP1 KECCAK256 DUP3 MLOAD PUSH2 0x1E0 DUP2 ADD SWAP1 SWAP4 MSTORE DUP1 SLOAD DUP4 MSTORE PUSH1 0x1 DUP2 ADD DUP1 SLOAD SWAP2 SWAP3 DUP5 ADD SWAP2 PUSH2 0xAD8 SWAP1 PUSH2 0x3847 JUMP JUMPDEST DUP1 PUSH1 0x1F ADD PUSH1 0x20 DUP1 SWAP2 DIV MUL PUSH1 0x20 ADD PUSH1 0x40 MLOAD SWAP1 DUP2 ADD PUSH1 0x40 MSTORE DUP1 SWAP3 SWAP2 SWAP1 DUP2 DUP2 MSTORE PUSH1 0x20 ADD DUP3 DUP1 SLOAD PUSH2 0xB04 SWAP1 PUSH2 0x3847 JUMP JUMPDEST DUP1 ISZERO PUSH2 0xB51 JUMPI DUP1 PUSH1 0x1F LT PUSH2 0xB26 JUMPI PUSH2 0x100 DUP1 DUP4 SLOAD DIV MUL DUP4 MSTORE SWAP2 PUSH1 0x20 ADD SWAP2 PUSH2 0xB51 JUMP JUMPDEST DUP3 ADD SWAP2 SWAP1 PUSH1 0x0 MSTORE PUSH1 0x20 PUSH1 0x0 KECCAK256 SWAP1 JUMPDEST DUP2 SLOAD DUP2 MSTORE SWAP1 PUSH1 0x1 ADD SWAP1 PUSH1 0x20 ADD DUP1 DUP4 GT PUSH2 0xB34 JUMPI DUP3 SWAP1 SUB PUSH1 0x1F AND DUP3 ADD SWAP2 JUMPDEST POP POP POP POP POP DUP2 MSTORE PUSH1 0x20 ADD PUSH1 0x2 DUP3 ADD DUP1 SLOAD PUSH2 0xB6A SWAP1 PUSH2 0x3847 JUMP JUMPDEST DUP1 PUSH1 0x1F ADD PUSH1 0x20 DUP1 SWAP2 DIV MUL PUSH1 0x20 ADD PUSH1 0x40 MLOAD SWAP1 DUP2 ADD PUSH1 0x40 MSTORE DUP1 SWAP3 SWAP2 SWAP1 DUP2 DUP2 MSTORE PUSH1 0x20 ADD DUP3 DUP1 SLOAD PUSH2 0xB96 SWAP1 PUSH2 0x3847 JUMP JUMPDEST DUP1 ISZERO PUSH2 0xBE3 JUMPI DUP1 PUSH1 0x1F LT PUSH2 0xBB8 JUMPI PUSH2 0x100 DUP1 DUP4 SLOAD DIV MUL DUP4 MSTORE SWAP2 PUSH1 0x20 ADD SWAP2 PUSH2 0xBE3 JUMP JUMPDEST DUP3 ADD SWAP2 SWAP1 PUSH1 0x0 MSTORE PUSH1 0x20 PUSH1 0x0 KECCAK256 SWAP1 JUMPDEST DUP2 SLOAD DUP2 MSTORE SWAP1 PUSH1 0x1 ADD SWAP1 PUSH1 0x20 ADD DUP1 DUP4 GT PUSH2 0xBC6 JUMPI DUP3 SWAP1 SUB PUSH1 0x1F AND DUP3 ADD SWAP2 JUMPDEST POP POP POP SWAP2 DUP4 MSTORE POP POP PUSH1 0x3 DUP3 ADD SLOAD PUSH1 0x1 PUSH1 0x1 PUSH1 0xA0 SHL SUB AND PUSH1 0x20 DUP3 ADD MSTORE PUSH1 0x4 DUP3 ADD DUP1 SLOAD PUSH1 0x40 SWAP1 SWAP3 ADD SWAP2 PUSH2 0xC13 SWAP1 PUSH2 0x3847 JUMP JUMPDEST DUP1 PUSH1 0x1F ADD PUSH1 0x20 DUP1 SWAP2 DIV MUL PUSH1 0x20 ADD PUSH1 0x40 MLOAD SWAP1 DUP2 ADD PUSH1 0x40 MSTORE DUP1 SWAP3 SWAP2 SWAP1 DUP2 DUP2 MSTORE PUSH1 0x20 ADD DUP3 DUP1 SLOAD PUSH2 0xC3F SWAP1 PUSH2 0x3847 JUMP JUMPDEST DUP1 ISZERO PUSH2 0xC8C JUMPI DUP1 PUSH1 0x1F LT PUSH2 0xC61 JUMPI PUSH2 0x100 DUP1 DUP4 SLOAD DIV MUL DUP4 MSTORE SWAP2 PUSH1 0x20 ADD SWAP2 PUSH2 0xC8C JUMP JUMPDEST DUP3 ADD SWAP2 SWAP1 PUSH1 0x0 MSTORE PUSH1 0x20 PUSH1 0x0 KECCAK256 SWAP1 JUMPDEST DUP2 SLOAD DUP2 MSTORE SWAP1 PUSH1 0x1 ADD SWAP1 PUSH1 0x20 ADD DUP1 DUP4 GT PUSH2 0xC6F JUMPI DUP3 SWAP1 SUB PUSH1 0x1F AND DUP3 ADD SWAP2 JUMPDEST POP POP POP POP POP DUP2 MSTORE PUSH1 0x20 ADD PUSH1 0x5 DUP3 ADD SLOAD DUP2 MSTORE PUSH1 0x20 ADD PUSH1 0x6 DUP3 ADD DUP1 SLOAD PUSH2 0xCAF SWAP1 PUSH2 0x3847 JUMP JUMPDEST DUP1 PUSH1 0x1F ADD PUSH1 0x20 DUP1 SWAP2 DIV MUL PUSH1 0x20 ADD PUSH1 0x40 MLOAD SWAP1 DUP2 ADD PUSH1 0x40 MSTORE DUP1 SWAP3 SWAP2 SWAP1 DUP2 DUP2 MSTORE PUSH1 0x20 ADD DUP3 DUP1 SLOAD PUSH2 0xCDB SWAP1 PUSH2 0x3847 JUMP JUMPDEST DUP1 ISZERO PUSH2 0xD28 JUMPI DUP1 PUSH1 0x1F LT PUSH2 0xCFD JUMPI PUSH2 0x100 DUP1 DUP4 SLOAD DIV MUL DUP4 MSTORE SWAP2 PUSH1 0x20 ADD SWAP2 PUSH2 0xD28 JUMP JUMPDEST DUP3 ADD SWAP2 SWAP1 PUSH1 0x0 MSTORE PUSH1 0x20 PUSH1 0x0 KECCAK256 SWAP1 JUMPDEST DUP2 SLOAD DUP2 MSTORE SWAP1 PUSH1 0x1 ADD SWAP1 PUSH1 0x20 ADD DUP1 DUP4 GT PUSH2 0xD0B JUMPI DUP3 SWAP1 SUB PUSH1 0x1F AND DUP3 ADD SWAP2 JUMPDEST POP POP POP POP POP DUP2 MSTORE PUSH1 0x20 ADD PUSH1 0x7 DUP3 ADD SLOAD DUP2 MSTORE PUSH1 0x20 ADD PUSH1 0x8 DUP3 ADD DUP1 SLOAD PUSH2 0xD4B SWAP1 PUSH2 0x3847 JUMP JUMPDEST DUP1 PUSH1 0x1F ADD PUSH1 0x20 DUP1 SWAP2 DIV MUL PUSH1 0x20 ADD PUSH1 0x40 MLOAD SWAP1 DUP2 ADD PUSH1 0x40 MSTORE DUP1 SWAP3 SWAP2 SWAP1 DUP2 DUP2 MSTORE PUSH1 0x20 ADD DUP3 DUP1 SLOAD PUSH2 0xD77 SWAP1 PUSH2 0x3847 JUMP JUMPDEST DUP1 ISZERO PUSH2 0xDC4 JUMPI DUP1 PUSH1 0x1F LT PUSH2 0xD99 JUMPI PUSH2 0x100 DUP1 DUP4 SLOAD DIV MUL DUP4 MSTORE SWAP2 PUSH1 0x20 ADD SWAP2 PUSH2 0xDC4 JUMP JUMPDEST DUP3 ADD SWAP2 SWAP1 PUSH1 0x0 MSTORE PUSH1 0x20 PUSH1 0x0 KECCAK256 SWAP1 JUMPDEST DUP2 SLOAD DUP2 MSTORE SWAP1 PUSH1 0x1 ADD SWAP1 PUSH1 0x20 ADD DUP1 DUP4 GT PUSH2 0xDA7 JUMPI DUP3 SWAP1 SUB PUSH1 0x1F AND DUP3 ADD SWAP2 JUMPDEST POP POP POP SWAP2 DUP4 MSTORE POP POP PUSH1 0x9 DUP3 ADD SLOAD PUSH1 0xFF DUP1 DUP3 AND ISZERO ISZERO PUSH1 0x20 DUP1 DUP6 ADD SWAP2 SWAP1 SWAP2 MSTORE PUSH2 0x100 DUP4 DIV DUP3 AND ISZERO ISZERO PUSH1 0x40 DUP1 DUP7 ADD SWAP2 SWAP1 SWAP2 MSTORE PUSH3 0x10000 DUP5 DIV SWAP1 SWAP3 AND ISZERO ISZERO PUSH1 0x60 DUP6 ADD MSTORE PUSH4 0x1000000 SWAP1 SWAP3 DIV PUSH1 0x1 PUSH1 0x1 PUSH1 0xA0 SHL SUB AND PUSH1 0x80 DUP5 ADD MSTORE PUSH1 0xA DUP5 ADD DUP1 SLOAD DUP3 MLOAD DUP2 DUP6 MUL DUP2 ADD DUP6 ADD SWAP1 SWAP4 MSTORE DUP1 DUP4 MSTORE PUSH1 0xA0 SWAP1 SWAP5 ADD SWAP4 SWAP2 SWAP3 SWAP1 SWAP2 SWAP1 PUSH1 0x0 SWAP1 DUP5 ADD JUMPDEST DUP3 DUP3 LT ISZERO PUSH2 0xEEB JUMPI DUP4 DUP3 SWAP1 PUSH1 0x0 MSTORE PUSH1 0x20 PUSH1 0x0 KECCAK256 ADD DUP1 SLOAD PUSH2 0xE5E SWAP1 PUSH2 0x3847 JUMP JUMPDEST DUP1 PUSH1 0x1F ADD PUSH1 0x20 DUP1 SWAP2 DIV MUL PUSH1 0x20 ADD PUSH1 0x40 MLOAD SWAP1 DUP2 ADD PUSH1 0x40 MSTORE DUP1 SWAP3 SWAP2 SWAP1 DUP2 DUP2 MSTORE PUSH1 0x20 ADD DUP3 DUP1 SLOAD PUSH2 0xE8A SWAP1 PUSH2 0x3847 JUMP JUMPDEST DUP1 ISZERO PUSH2 0xED7 JUMPI DUP1 PUSH1 0x1F LT PUSH2 0xEAC JUMPI PUSH2 0x100 DUP1 DUP4 SLOAD DIV MUL DUP4 MSTORE SWAP2 PUSH1 0x20 ADD SWAP2 PUSH2 0xED7 JUMP JUMPDEST DUP3 ADD SWAP2 SWAP1 PUSH1 0x0 MSTORE PUSH1 0x20 PUSH1 0x0 KECCAK256 SWAP1 JUMPDEST DUP2 SLOAD DUP2 MSTORE SWAP1 PUSH1 0x1 ADD SWAP1 PUSH1 0x20 ADD DUP1 DUP4 GT PUSH2 0xEBA JUMPI DUP3 SWAP1 SUB PUSH1 0x1F AND DUP3 ADD SWAP2 JUMPDEST POP POP POP POP POP DUP2 MSTORE PUSH1 0x20 ADD SWAP1 PUSH1 0x1 ADD SWAP1 PUSH2 0xE3F JUMP JUMPDEST POP POP POP POP DUP2 MSTORE PUSH1 0x20 ADD PUSH1 0xB DUP3 ADD DUP1 SLOAD DUP1 PUSH1 0x20 MUL PUSH1 0x20 ADD PUSH1 0x40 MLOAD SWAP1 DUP2 ADD PUSH1 0x40 MSTORE DUP1 SWAP3 SWAP2 SWAP1 DUP2 DUP2 MSTORE PUSH1 0x20 ADD PUSH1 0x0 SWAP1 JUMPDEST DUP3 DUP3 LT ISZERO PUSH2 0xFC4 JUMPI DUP4 DUP3 SWAP1 PUSH1 0x0 MSTORE PUSH1 0x20 PUSH1 0x0 KECCAK256 ADD DUP1 SLOAD PUSH2 0xF37 SWAP1 PUSH2 0x3847 JUMP JUMPDEST DUP1 PUSH1 0x1F ADD PUSH1 0x20 DUP1 SWAP2 DIV MUL PUSH1 0x20 ADD PUSH1 0x40 MLOAD SWAP1 DUP2 ADD PUSH1 0x40 MSTORE DUP1 SWAP3 SWAP2 SWAP1 DUP2 DUP2 MSTORE PUSH1 0x20 ADD DUP3 DUP1 SLOAD PUSH2 0xF63 SWAP1 PUSH2 0x3847 JUMP JUMPDEST DUP1 ISZERO PUSH2 0xFB0 JUMPI DUP1 PUSH1 0x1F LT PUSH2 0xF85 JUMPI PUSH2 0x100 DUP1 DUP4 SLOAD DIV MUL DUP4 MSTORE SWAP2 PUSH1 0x20 ADD SWAP2 PUSH2 0xFB0 JUMP JUMPDEST DUP3 ADD SWAP2 SWAP1 PUSH1 0x0 MSTORE PUSH1 0x20 PUSH1 0x0 KECCAK256 SWAP1 JUMPDEST DUP2 SLOAD DUP2 MSTORE SWAP1 PUSH1 0x1 ADD SWAP1 PUSH1 0x20 ADD DUP1 DUP4 GT PUSH2 0xF93 JUMPI DUP3 SWAP1 SUB PUSH1 0x1F AND DUP3 ADD SWAP2 JUMPDEST POP POP POP POP POP DUP2 MSTORE PUSH1 0x20 ADD SWAP1 PUSH1 0x1 ADD SWAP1 PUSH2 0xF18 JUMP JUMPDEST POP POP POP SWAP2 MSTORE POP POP PUSH1 0x40 MLOAD PUSH4 0xBC9F03C1 PUSH1 0xE0 SHL DUP2 MSTORE PUSH1 0x4 DUP2 ADD DUP8 SWAP1 MSTORE SWAP1 SWAP5 POP ADDRESS SWAP1 PUSH4 0xBC9F03C1 SWAP1 PUSH1 0x24 ADD PUSH1 0x0 PUSH1 0x40 MLOAD DUP1 DUP4 SUB DUP2 DUP7 GAS STATICCALL ISZERO DUP1 ISZERO PUSH2 0x100A JUMPI RETURNDATASIZE PUSH1 0x0 DUP1 RETURNDATACOPY RETURNDATASIZE PUSH1 0x0 REVERT JUMPDEST POP POP POP POP PUSH1 0x40 MLOAD RETURNDATASIZE PUSH1 0x0 DUP3 RETURNDATACOPY PUSH1 0x1F RETURNDATASIZE SWAP1 DUP2 ADD PUSH1 0x1F NOT AND DUP3 ADD PUSH1 0x40 MSTORE PUSH2 0x1032 SWAP2 SWAP1 DUP2 ADD SWAP1 PUSH2 0x3906 JUMP JUMPDEST PUSH1 0x40 MLOAD PUSH4 0x2EAE497D PUSH1 0xE1 SHL DUP2 MSTORE PUSH1 0x4 DUP2 ADD DUP8 SWAP1 MSTORE SWAP1 SWAP4 POP ADDRESS SWAP1 PUSH4 0x5D5C92FA SWAP1 PUSH1 0x24 ADD PUSH1 0x0 PUSH1 0x40 MLOAD DUP1 DUP4 SUB DUP2 DUP7 GAS STATICCALL ISZERO DUP1 ISZERO PUSH2 0x1071 JUMPI RETURNDATASIZE PUSH1 0x0 DUP1 RETURNDATACOPY RETURNDATASIZE PUSH1 0x0 REVERT JUMPDEST POP POP POP POP PUSH1 0x40 MLOAD RETURNDATASIZE PUSH1 0x0 DUP3 RETURNDATACOPY PUSH1 0x1F RETURNDATASIZE SWAP1 DUP2 ADD PUSH1 0x1F NOT AND DUP3 ADD PUSH1 0x40 MSTORE PUSH2 0x1099 SWAP2 SWAP1 DUP2 ADD SWAP1 PUSH2 0x3A84 JUMP JUMPDEST SWAP4 SWAP6 SWAP3 SWAP5 POP POP POP JUMP JUMPDEST PUSH1 0x9 SLOAD PUSH1 0x1 PUSH1 0x1 PUSH1 0xA0 SHL SUB AND CALLER EQ PUSH2 0x10CC JUMPI PUSH1 0x40 MLOAD PUSH3 0x461BCD PUSH1 0xE5 SHL DUP2 MSTORE PUSH1 0x4 ADD PUSH2 0x561 SWAP1 PUSH2 0x3785 JUMP JUMPDEST PUSH1 0x1 PUSH1 0x1 PUSH1 0xA0 SHL SUB DUP2 AND PUSH1 0x0 DUP2 DUP2 MSTORE PUSH1 0x4 PUSH1 0x20 MSTORE PUSH1 0x40 SWAP1 DUP2 SWAP1 KECCAK256 DUP1 SLOAD PUSH1 0xFF NOT AND PUSH1 0x1 OR SWAP1 SSTORE MLOAD PUSH32 0x282392BDDD0AAA0B50D2C25268A4CB6C4FB4FB6ADA94CAEE6B633A87DF7FBC43 SWAP1 PUSH2 0x5D6 SWAP1 PUSH1 0x20 DUP1 DUP3 MSTORE PUSH1 0xA SWAP1 DUP3 ADD MSTORE PUSH10 0x4C61626F7261746F7279 PUSH1 0xB0 SHL PUSH1 0x40 DUP3 ADD MSTORE PUSH1 0x60 ADD SWAP1 JUMP JUMPDEST PUSH1 0x9 SLOAD PUSH1 0x1 PUSH1 0x1 PUSH1 0xA0 SHL SUB AND CALLER EQ PUSH2 0x1166 JUMPI PUSH1 0x40 MLOAD PUSH3 0x461BCD PUSH1 0xE5 SHL DUP2 MSTORE PUSH1 0x4 ADD PUSH2 0x561 SWAP1 PUSH2 0x3785 JUMP JUMPDEST PUSH1 0x1 PUSH1 0x1 PUSH1 0xA0 SHL SUB AND PUSH1 0x0 SWAP1 DUP2 MSTORE PUSH1 0x5 PUSH1 0x20 MSTORE PUSH1 0x40 SWAP1 KECCAK256 DUP1 SLOAD PUSH1 0xFF NOT AND SWAP1 SSTORE JUMP JUMPDEST PUSH1 0x9 SLOAD PUSH1 0x1 PUSH1 0x1 PUSH1 0xA0 SHL SUB AND CALLER EQ PUSH2 0x11B1 JUMPI PUSH1 0x40 MLOAD PUSH3 0x461BCD PUSH1 0xE5 SHL DUP2 MSTORE PUSH1 0x4 ADD PUSH2 0x561 SWAP1 PUSH2 0x3785 JUMP JUMPDEST PUSH1 0x1 PUSH1 0x1 PUSH1 0xA0 SHL SUB AND PUSH1 0x0 SWAP1 DUP2 MSTORE PUSH1 0x3 PUSH1 0x20 MSTORE PUSH1 0x40 SWAP1 KECCAK256 DUP1 SLOAD PUSH1 0xFF NOT AND SWAP1 SSTORE JUMP JUMPDEST CALLER PUSH1 0x0 SWAP1 DUP2 MSTORE PUSH1 0x3 PUSH1 0x20 MSTORE PUSH1 0x40 DUP2 KECCAK256 SLOAD PUSH1 0xFF AND PUSH2 0x1249 JUMPI PUSH1 0x40 MLOAD PUSH3 0x461BCD PUSH1 0xE5 SHL DUP2 MSTORE PUSH1 0x20 PUSH1 0x4 DUP3 ADD MSTORE PUSH1 0x2F PUSH1 0x24 DUP3 ADD MSTORE PUSH32 0x4F6E6C7920617574686F72697A6564206661726D6572732063616E2070657266 PUSH1 0x44 DUP3 ADD MSTORE PUSH15 0x37B936903A3434B99030B1BA34B7B7 PUSH1 0x89 SHL PUSH1 0x64 DUP3 ADD MSTORE PUSH1 0x84 ADD PUSH2 0x561 JUMP JUMPDEST PUSH1 0x6 DUP1 SLOAD PUSH1 0x0 SWAP2 DUP3 PUSH2 0x125A DUP4 PUSH2 0x3BDF JUMP JUMPDEST SWAP2 SWAP1 POP SSTORE SWAP1 POP PUSH1 0x40 MLOAD DUP1 PUSH2 0x1E0 ADD PUSH1 0x40 MSTORE DUP1 DUP3 DUP2 MSTORE PUSH1 0x20 ADD DUP10 DUP2 MSTORE PUSH1 0x20 ADD DUP9 DUP2 MSTORE PUSH1 0x20 ADD CALLER PUSH1 0x1 PUSH1 0x1 PUSH1 0xA0 SHL SUB AND DUP2 MSTORE PUSH1 0x20 ADD DUP8 DUP2 MSTORE PUSH1 0x20 ADD TIMESTAMP DUP2 MSTORE PUSH1 0x20 ADD DUP7 DUP2 MSTORE PUSH1 0x20 ADD DUP6 DUP2 MSTORE PUSH1 0x20 ADD DUP5 DUP2 MSTORE PUSH1 0x20 ADD PUSH1 0x0 ISZERO ISZERO DUP2 MSTORE PUSH1 0x20 ADD PUSH1 0x0 ISZERO ISZERO DUP2 MSTORE PUSH1 0x20 ADD PUSH1 0x0 ISZERO ISZERO DUP2 MSTORE PUSH1 0x20 ADD CALLER PUSH1 0x1 PUSH1 0x1 PUSH1 0xA0 SHL SUB AND DUP2 MSTORE PUSH1 0x20 ADD PUSH1 0x0 PUSH1 0x1 PUSH1 0x1 PUSH1 0x40 SHL SUB DUP2 GT ISZERO PUSH2 0x12EE JUMPI PUSH2 0x12EE PUSH2 0x32EC JUMP JUMPDEST PUSH1 0x40 MLOAD SWAP1 DUP1 DUP3 MSTORE DUP1 PUSH1 0x20 MUL PUSH1 0x20 ADD DUP3 ADD PUSH1 0x40 MSTORE DUP1 ISZERO PUSH2 0x1321 JUMPI DUP2 PUSH1 0x20 ADD JUMPDEST PUSH1 0x60 DUP2 MSTORE PUSH1 0x20 ADD SWAP1 PUSH1 0x1 SWAP1 SUB SWAP1 DUP2 PUSH2 0x130C JUMPI SWAP1 POP JUMPDEST POP DUP2 MSTORE PUSH1 0x20 ADD PUSH1 0x0 PUSH1 0x40 MLOAD SWAP1 DUP1 DUP3 MSTORE DUP1 PUSH1 0x20 MUL PUSH1 0x20 ADD DUP3 ADD PUSH1 0x40 MSTORE DUP1 ISZERO PUSH2 0x135C JUMPI DUP2 PUSH1 0x20 ADD JUMPDEST PUSH1 0x60 DUP2 MSTORE PUSH1 0x20 ADD SWAP1 PUSH1 0x1 SWAP1 SUB SWAP1 DUP2 PUSH2 0x1347 JUMPI SWAP1 POP JUMPDEST POP SWAP1 MSTORE PUSH1 0x0 DUP3 DUP2 MSTORE PUSH1 0x20 DUP2 DUP2 MSTORE PUSH1 0x40 SWAP1 SWAP2 KECCAK256 DUP3 MLOAD DUP2 SSTORE SWAP1 DUP3 ADD MLOAD PUSH1 0x1 DUP3 ADD SWAP1 PUSH2 0x1385 SWAP1 DUP3 PUSH2 0x3C55 JUMP JUMPDEST POP PUSH1 0x40 DUP3 ADD MLOAD PUSH1 0x2 DUP3 ADD SWAP1 PUSH2 0x139A SWAP1 DUP3 PUSH2 0x3C55 JUMP JUMPDEST POP PUSH1 0x60 DUP3 ADD MLOAD PUSH1 0x3 DUP3 ADD DUP1 SLOAD PUSH1 0x1 PUSH1 0x1 PUSH1 0xA0 SHL SUB NOT AND PUSH1 0x1 PUSH1 0x1 PUSH1 0xA0 SHL SUB SWAP1 SWAP3 AND SWAP2 SWAP1 SWAP2 OR SWAP1 SSTORE PUSH1 0x80 DUP3 ADD MLOAD PUSH1 0x4 DUP3 ADD SWAP1 PUSH2 0x13D5 SWAP1 DUP3 PUSH2 0x3C55 JUMP JUMPDEST POP PUSH1 0xA0 DUP3 ADD MLOAD PUSH1 0x5 DUP3 ADD SSTORE PUSH1 0xC0 DUP3 ADD MLOAD PUSH1 0x6 DUP3 ADD SWAP1 PUSH2 0x13F4 SWAP1 DUP3 PUSH2 0x3C55 JUMP JUMPDEST POP PUSH1 0xE0 DUP3 ADD MLOAD PUSH1 0x7 DUP3 ADD SSTORE PUSH2 0x100 DUP3 ADD MLOAD PUSH1 0x8 DUP3 ADD SWAP1 PUSH2 0x1414 SWAP1 DUP3 PUSH2 0x3C55 JUMP JUMPDEST POP PUSH2 0x120 DUP3 ADD MLOAD PUSH1 0x9 DUP3 ADD DUP1 SLOAD PUSH2 0x140 DUP6 ADD MLOAD PUSH2 0x160 DUP7 ADD MLOAD PUSH2 0x180 DUP8 ADD MLOAD PUSH1 0x1 PUSH1 0x1 PUSH1 0xA0 SHL SUB AND PUSH4 0x1000000 MUL PUSH4 0x1000000 PUSH1 0x1 PUSH1 0xB8 SHL SUB NOT SWAP2 ISZERO ISZERO PUSH3 0x10000 MUL SWAP2 SWAP1 SWAP2 AND PUSH3 0x10000 PUSH1 0x1 PUSH1 0xB8 SHL SUB NOT SWAP3 ISZERO ISZERO PUSH2 0x100 MUL PUSH2 0xFF00 NOT SWAP7 ISZERO ISZERO SWAP7 SWAP1 SWAP7 AND PUSH2 0xFFFF NOT SWAP1 SWAP5 AND SWAP4 SWAP1 SWAP4 OR SWAP5 SWAP1 SWAP5 OR AND OR SWAP2 SWAP1 SWAP2 OR SWAP1 SSTORE PUSH2 0x1A0 DUP3 ADD MLOAD DUP1 MLOAD PUSH2 0x14AA SWAP2 PUSH1 0xA DUP5 ADD SWAP2 PUSH1 0x20 SWAP1 SWAP2 ADD SWAP1 PUSH2 0x2D7A JUMP JUMPDEST POP PUSH2 0x1C0 DUP3 ADD MLOAD DUP1 MLOAD PUSH2 0x14C7 SWAP2 PUSH1 0xB DUP5 ADD SWAP2 PUSH1 0x20 SWAP1 SWAP2 ADD SWAP1 PUSH2 0x2D7A JUMP JUMPDEST POP POP PUSH1 0xA DUP1 SLOAD SWAP2 POP PUSH1 0x0 PUSH2 0x14DA DUP4 PUSH2 0x3BDF JUMP JUMPDEST SWAP2 SWAP1 POP SSTORE POP DUP1 PUSH32 0x8B8A9EB920FC6FE924AD2C88BFEB40E337FB9683C57823CCE2D3360DDE496F28 DUP10 CALLER PUSH1 0x40 MLOAD PUSH2 0x1511 SWAP3 SWAP2 SWAP1 PUSH2 0x3D14 JUMP JUMPDEST PUSH1 0x40 MLOAD DUP1 SWAP2 SUB SWAP1 LOG2 SWAP8 SWAP7 POP POP POP POP POP POP POP JUMP JUMPDEST PUSH1 0x60 DUP2 PUSH1 0x0 DUP2 GT DUP1 ISZERO PUSH2 0x1538 JUMPI POP PUSH1 0x6 SLOAD DUP2 LT JUMPDEST PUSH2 0x1554 JUMPI PUSH1 0x40 MLOAD PUSH3 0x461BCD PUSH1 0xE5 SHL DUP2 MSTORE PUSH1 0x4 ADD PUSH2 0x561 SWAP1 PUSH2 0x3819 JUMP JUMPDEST PUSH1 0x0 PUSH1 0x1 JUMPDEST PUSH1 0x8 SLOAD DUP2 LT ISZERO PUSH2 0x159C JUMPI PUSH1 0x0 DUP2 DUP2 MSTORE PUSH1 0x2 PUSH1 0x20 MSTORE PUSH1 0x40 SWAP1 KECCAK256 PUSH1 0x1 ADD SLOAD DUP6 SWAP1 SUB PUSH2 0x158A JUMPI DUP2 PUSH2 0x1586 DUP2 PUSH2 0x3BDF JUMP JUMPDEST SWAP3 POP POP JUMPDEST DUP1 PUSH2 0x1594 DUP2 PUSH2 0x3BDF JUMP JUMPDEST SWAP2 POP POP PUSH2 0x1559 JUMP JUMPDEST POP PUSH1 0x0 DUP2 PUSH1 0x1 PUSH1 0x1 PUSH1 0x40 SHL SUB DUP2 GT ISZERO PUSH2 0x15B7 JUMPI PUSH2 0x15B7 PUSH2 0x32EC JUMP JUMPDEST PUSH1 0x40 MLOAD SWAP1 DUP1 DUP3 MSTORE DUP1 PUSH1 0x20 MUL PUSH1 0x20 ADD DUP3 ADD PUSH1 0x40 MSTORE DUP1 ISZERO PUSH2 0x1631 JUMPI DUP2 PUSH1 0x20 ADD JUMPDEST PUSH2 0x161E PUSH1 0x40 MLOAD DUP1 PUSH1 0xE0 ADD PUSH1 0x40 MSTORE DUP1 PUSH1 0x0 DUP2 MSTORE PUSH1 0x20 ADD PUSH1 0x0 DUP2 MSTORE PUSH1 0x20 ADD PUSH1 0x0 PUSH1 0x1 PUSH1 0x1 PUSH1 0xA0 SHL SUB AND DUP2 MSTORE PUSH1 0x20 ADD PUSH1 0x60 DUP2 MSTORE PUSH1 0x20 ADD PUSH1 0x60 DUP2 MSTORE PUSH1 0x20 ADD PUSH1 0x0 DUP2 MSTORE PUSH1 0x20 ADD PUSH1 0x60 DUP2 MSTORE POP SWAP1 JUMP JUMPDEST DUP2 MSTORE PUSH1 0x20 ADD SWAP1 PUSH1 0x1 SWAP1 SUB SWAP1 DUP2 PUSH2 0x15D5 JUMPI SWAP1 POP JUMPDEST POP SWAP1 POP PUSH1 0x0 PUSH1 0x1 JUMPDEST PUSH1 0x8 SLOAD DUP2 LT ISZERO PUSH2 0x189D JUMPI PUSH1 0x0 DUP2 DUP2 MSTORE PUSH1 0x2 PUSH1 0x20 MSTORE PUSH1 0x40 SWAP1 KECCAK256 PUSH1 0x1 ADD SLOAD DUP8 SWAP1 SUB PUSH2 0x188B JUMPI PUSH1 0x0 DUP2 DUP2 MSTORE PUSH1 0x2 PUSH1 0x20 DUP2 DUP2 MSTORE PUSH1 0x40 SWAP3 DUP4 SWAP1 KECCAK256 DUP4 MLOAD PUSH1 0xE0 DUP2 ADD DUP6 MSTORE DUP2 SLOAD DUP2 MSTORE PUSH1 0x1 DUP3 ADD SLOAD SWAP3 DUP2 ADD SWAP3 SWAP1 SWAP3 MSTORE SWAP2 DUP3 ADD SLOAD PUSH1 0x1 PUSH1 0x1 PUSH1 0xA0 SHL SUB AND SWAP3 DUP2 ADD SWAP3 SWAP1 SWAP3 MSTORE PUSH1 0x3 DUP2 ADD DUP1 SLOAD PUSH1 0x60 DUP5 ADD SWAP2 SWAP1 PUSH2 0x16AF SWAP1 PUSH2 0x3847 JUMP JUMPDEST DUP1 PUSH1 0x1F ADD PUSH1 0x20 DUP1 SWAP2 DIV MUL PUSH1 0x20 ADD PUSH1 0x40 MLOAD SWAP1 DUP2 ADD PUSH1 0x40 MSTORE DUP1 SWAP3 SWAP2 SWAP1 DUP2 DUP2 MSTORE PUSH1 0x20 ADD DUP3 DUP1 SLOAD PUSH2 0x16DB SWAP1 PUSH2 0x3847 JUMP JUMPDEST DUP1 ISZERO PUSH2 0x1728 JUMPI DUP1 PUSH1 0x1F LT PUSH2 0x16FD JUMPI PUSH2 0x100 DUP1 DUP4 SLOAD DIV MUL DUP4 MSTORE SWAP2 PUSH1 0x20 ADD SWAP2 PUSH2 0x1728 JUMP JUMPDEST DUP3 ADD SWAP2 SWAP1 PUSH1 0x0 MSTORE PUSH1 0x20 PUSH1 0x0 KECCAK256 SWAP1 JUMPDEST DUP2 SLOAD DUP2 MSTORE SWAP1 PUSH1 0x1 ADD SWAP1 PUSH1 0x20 ADD DUP1 DUP4 GT PUSH2 0x170B JUMPI DUP3 SWAP1 SUB PUSH1 0x1F AND DUP3 ADD SWAP2 JUMPDEST POP POP POP POP POP DUP2 MSTORE PUSH1 0x20 ADD PUSH1 0x4 DUP3 ADD DUP1 SLOAD PUSH2 0x1741 SWAP1 PUSH2 0x3847 JUMP JUMPDEST DUP1 PUSH1 0x1F ADD PUSH1 0x20 DUP1 SWAP2 DIV MUL PUSH1 0x20 ADD PUSH1 0x40 MLOAD SWAP1 DUP2 ADD PUSH1 0x40 MSTORE DUP1 SWAP3 SWAP2 SWAP1 DUP2 DUP2 MSTORE PUSH1 0x20 ADD DUP3 DUP1 SLOAD PUSH2 0x176D SWAP1 PUSH2 0x3847 JUMP JUMPDEST DUP1 ISZERO PUSH2 0x17BA JUMPI DUP1 PUSH1 0x1F LT PUSH2 0x178F JUMPI PUSH2 0x100 DUP1 DUP4 SLOAD DIV MUL DUP4 MSTORE SWAP2 PUSH1 0x20 ADD SWAP2 PUSH2 0x17BA JUMP JUMPDEST DUP3 ADD SWAP2 SWAP1 PUSH1 0x0 MSTORE PUSH1 0x20 PUSH1 0x0 KECCAK256 SWAP1 JUMPDEST DUP2 SLOAD DUP2 MSTORE SWAP1 PUSH1 0x1 ADD SWAP1 PUSH1 0x20 ADD DUP1 DUP4 GT PUSH2 0x179D JUMPI DUP3 SWAP1 SUB PUSH1 0x1F AND DUP3 ADD SWAP2 JUMPDEST POP POP POP POP POP DUP2 MSTORE PUSH1 0x20 ADD PUSH1 0x5 DUP3 ADD SLOAD DUP2 MSTORE PUSH1 0x20 ADD PUSH1 0x6 DUP3 ADD DUP1 SLOAD PUSH2 0x17DD SWAP1 PUSH2 0x3847 JUMP JUMPDEST DUP1 PUSH1 0x1F ADD PUSH1 0x20 DUP1 SWAP2 DIV MUL PUSH1 0x20 ADD PUSH1 0x40 MLOAD SWAP1 DUP2 ADD PUSH1 0x40 MSTORE DUP1 SWAP3 SWAP2 SWAP1 DUP2 DUP2 MSTORE PUSH1 0x20 ADD DUP3 DUP1 SLOAD PUSH2 0x1809 SWAP1 PUSH2 0x3847 JUMP JUMPDEST DUP1 ISZERO PUSH2 0x1856 JUMPI DUP1 PUSH1 0x1F LT PUSH2 0x182B JUMPI PUSH2 0x100 DUP1 DUP4 SLOAD DIV MUL DUP4 MSTORE SWAP2 PUSH1 0x20 ADD SWAP2 PUSH2 0x1856 JUMP JUMPDEST DUP3 ADD SWAP2 SWAP1 PUSH1 0x0 MSTORE PUSH1 0x20 PUSH1 0x0 KECCAK256 SWAP1 JUMPDEST DUP2 SLOAD DUP2 MSTORE SWAP1 PUSH1 0x1 ADD SWAP1 PUSH1 0x20 ADD DUP1 DUP4 GT PUSH2 0x1839 JUMPI DUP3 SWAP1 SUB PUSH1 0x1F AND DUP3 ADD SWAP2 JUMPDEST POP POP POP POP POP DUP2 MSTORE POP POP DUP4 DUP4 DUP2 MLOAD DUP2 LT PUSH2 0x1871 JUMPI PUSH2 0x1871 PUSH2 0x3D3E JUMP JUMPDEST PUSH1 0x20 MUL PUSH1 0x20 ADD ADD DUP2 SWAP1 MSTORE POP DUP2 DUP1 PUSH2 0x1887 SWAP1 PUSH2 0x3BDF JUMP JUMPDEST SWAP3 POP POP JUMPDEST DUP1 PUSH2 0x1895 DUP2 PUSH2 0x3BDF JUMP JUMPDEST SWAP2 POP POP PUSH2 0x1639 JUMP JUMPDEST POP SWAP1 SWAP4 POP POP POP JUMPDEST POP SWAP2 SWAP1 POP JUMP JUMPDEST PUSH1 0x1 PUSH1 0x20 DUP2 SWAP1 MSTORE PUSH1 0x0 SWAP2 DUP3 MSTORE PUSH1 0x40 SWAP1 SWAP2 KECCAK256 DUP1 SLOAD SWAP2 DUP2 ADD SLOAD PUSH1 0x2 DUP3 ADD SLOAD PUSH1 0x3 DUP4 ADD DUP1 SLOAD SWAP3 SWAP4 PUSH1 0x1 PUSH1 0x1 PUSH1 0xA0 SHL SUB SWAP1 SWAP3 AND SWAP3 PUSH2 0x18E3 SWAP1 PUSH2 0x3847 JUMP JUMPDEST DUP1 PUSH1 0x1F ADD PUSH1 0x20 DUP1 SWAP2 DIV MUL PUSH1 0x20 ADD PUSH1 0x40 MLOAD SWAP1 DUP2 ADD PUSH1 0x40 MSTORE DUP1 SWAP3 SWAP2 SWAP1 DUP2 DUP2 MSTORE PUSH1 0x20 ADD DUP3 DUP1 SLOAD PUSH2 0x190F SWAP1 PUSH2 0x3847 JUMP JUMPDEST DUP1 ISZERO PUSH2 0x195C JUMPI DUP1 PUSH1 0x1F LT PUSH2 0x1931 JUMPI PUSH2 0x100 DUP1 DUP4 SLOAD DIV MUL DUP4 MSTORE SWAP2 PUSH1 0x20 ADD SWAP2 PUSH2 0x195C JUMP JUMPDEST DUP3 ADD SWAP2 SWAP1 PUSH1 0x0 MSTORE PUSH1 0x20 PUSH1 0x0 KECCAK256 SWAP1 JUMPDEST DUP2 SLOAD DUP2 MSTORE SWAP1 PUSH1 0x1 ADD SWAP1 PUSH1 0x20 ADD DUP1 DUP4 GT PUSH2 0x193F JUMPI DUP3 SWAP1 SUB PUSH1 0x1F AND DUP3 ADD SWAP2 JUMPDEST POP POP POP POP PUSH1 0x4 DUP4 ADD SLOAD PUSH1 0x5 DUP5 ADD SLOAD PUSH1 0x6 DUP6 ADD DUP1 SLOAD SWAP5 SWAP6 SWAP3 SWAP5 PUSH1 0xFF SWAP1 SWAP3 AND SWAP4 POP SWAP1 PUSH2 0x1985 SWAP1 PUSH2 0x3847 JUMP JUMPDEST DUP1 PUSH1 0x1F ADD PUSH1 0x20 DUP1 SWAP2 DIV MUL PUSH1 0x20 ADD PUSH1 0x40 MLOAD SWAP1 DUP2 ADD PUSH1 0x40 MSTORE DUP1 SWAP3 SWAP2 SWAP1 DUP2 DUP2 MSTORE PUSH1 0x20 ADD DUP3 DUP1 SLOAD PUSH2 0x19B1 SWAP1 PUSH2 0x3847 JUMP JUMPDEST DUP1 ISZERO PUSH2 0x19FE JUMPI DUP1 PUSH1 0x1F LT PUSH2 0x19D3 JUMPI PUSH2 0x100 DUP1 DUP4 SLOAD DIV MUL DUP4 MSTORE SWAP2 PUSH1 0x20 ADD SWAP2 PUSH2 0x19FE JUMP JUMPDEST DUP3 ADD SWAP2 SWAP1 PUSH1 0x0 MSTORE PUSH1 0x20 PUSH1 0x0 KECCAK256 SWAP1 JUMPDEST DUP2 SLOAD DUP2 MSTORE SWAP1 PUSH1 0x1 ADD SWAP1 PUSH1 0x20 ADD DUP1 DUP4 GT PUSH2 0x19E1 JUMPI DUP3 SWAP1 SUB PUSH1 0x1F AND DUP3 ADD SWAP2 JUMPDEST POP POP POP POP POP SWAP1 DUP1 PUSH1 0x7 ADD SLOAD SWAP1 DUP1 PUSH1 0x8 ADD DUP1 SLOAD PUSH2 0x1A19 SWAP1 PUSH2 0x3847 JUMP JUMPDEST DUP1 PUSH1 0x1F ADD PUSH1 0x20 DUP1 SWAP2 DIV MUL PUSH1 0x20 ADD PUSH1 0x40 MLOAD SWAP1 DUP2 ADD PUSH1 0x40 MSTORE DUP1 SWAP3 SWAP2 SWAP1 DUP2 DUP2 MSTORE PUSH1 0x20 ADD DUP3 DUP1 SLOAD PUSH2 0x1A45 SWAP1 PUSH2 0x3847 JUMP JUMPDEST DUP1 ISZERO PUSH2 0x1A92 JUMPI DUP1 PUSH1 0x1F LT PUSH2 0x1A67 JUMPI PUSH2 0x100 DUP1 DUP4 SLOAD DIV MUL DUP4 MSTORE SWAP2 PUSH1 0x20 ADD SWAP2 PUSH2 0x1A92 JUMP JUMPDEST DUP3 ADD SWAP2 SWAP1 PUSH1 0x0 MSTORE PUSH1 0x20 PUSH1 0x0 KECCAK256 SWAP1 JUMPDEST DUP2 SLOAD DUP2 MSTORE SWAP1 PUSH1 0x1 ADD SWAP1 PUSH1 0x20 ADD DUP1 DUP4 GT PUSH2 0x1A75 JUMPI DUP3 SWAP1 SUB PUSH1 0x1F AND DUP3 ADD SWAP2 JUMPDEST POP POP POP POP POP SWAP1 POP DUP10 JUMP JUMPDEST DUP1 PUSH1 0x0 DUP2 GT DUP1 ISZERO PUSH2 0x1AAE JUMPI POP PUSH1 0x6 SLOAD DUP2 LT JUMPDEST PUSH2 0x1ACA JUMPI PUSH1 0x40 MLOAD PUSH3 0x461BCD PUSH1 0xE5 SHL DUP2 MSTORE PUSH1 0x4 ADD PUSH2 0x561 SWAP1 PUSH2 0x3819 JUMP JUMPDEST PUSH1 0x0 DUP3 DUP2 MSTORE PUSH1 0x20 DUP2 SWAP1 MSTORE PUSH1 0x40 SWAP1 KECCAK256 PUSH1 0x9 ADD SLOAD PUSH4 0x1000000 SWAP1 DIV PUSH1 0x1 PUSH1 0x1 PUSH1 0xA0 SHL SUB AND CALLER EQ PUSH2 0x1B4D JUMPI PUSH1 0x40 MLOAD PUSH3 0x461BCD PUSH1 0xE5 SHL DUP2 MSTORE PUSH1 0x20 PUSH1 0x4 DUP3 ADD MSTORE PUSH1 0x2A PUSH1 0x24 DUP3 ADD MSTORE PUSH32 0x4F6E6C792063757272656E74206F776E65722063616E206D61726B2061732064 PUSH1 0x44 DUP3 ADD MSTORE PUSH10 0x1A5CDD1C9A589D5D1959 PUSH1 0xB2 SHL PUSH1 0x64 DUP3 ADD MSTORE PUSH1 0x84 ADD PUSH2 0x561 JUMP JUMPDEST PUSH1 0x0 DUP3 DUP2 MSTORE PUSH1 0x20 DUP2 SWAP1 MSTORE PUSH1 0x40 SWAP1 KECCAK256 PUSH1 0x9 ADD SLOAD PUSH1 0xFF AND PUSH2 0x1BC2 JUMPI PUSH1 0x40 MLOAD PUSH3 0x461BCD PUSH1 0xE5 SHL DUP2 MSTORE PUSH1 0x20 PUSH1 0x4 DUP3 ADD MSTORE PUSH1 0x2B PUSH1 0x24 DUP3 ADD MSTORE PUSH32 0x4261746368206D7573742062652070726F636573736564206265666F72652064 PUSH1 0x44 DUP3 ADD MSTORE PUSH11 0x34B9BA3934B13ABA34B7B7 PUSH1 0xA9 SHL PUSH1 0x64 DUP3 ADD MSTORE PUSH1 0x84 ADD PUSH2 0x561 JUMP JUMPDEST POP PUSH1 0x0 SWAP1 DUP2 MSTORE PUSH1 0x20 DUP2 SWAP1 MSTORE PUSH1 0x40 SWAP1 KECCAK256 PUSH1 0x9 ADD DUP1 SLOAD PUSH3 0xFF0000 NOT AND PUSH3 0x10000 OR SWAP1 SSTORE JUMP JUMPDEST PUSH1 0x0 PUSH1 0x20 DUP2 SWAP1 MSTORE SWAP1 DUP2 MSTORE PUSH1 0x40 SWAP1 KECCAK256 DUP1 SLOAD PUSH1 0x1 DUP3 ADD DUP1 SLOAD SWAP2 SWAP3 SWAP2 PUSH2 0x1C07 SWAP1 PUSH2 0x3847 JUMP JUMPDEST DUP1 PUSH1 0x1F ADD PUSH1 0x20 DUP1 SWAP2 DIV MUL PUSH1 0x20 ADD PUSH1 0x40 MLOAD SWAP1 DUP2 ADD PUSH1 0x40 MSTORE DUP1 SWAP3 SWAP2 SWAP1 DUP2 DUP2 MSTORE PUSH1 0x20 ADD DUP3 DUP1 SLOAD PUSH2 0x1C33 SWAP1 PUSH2 0x3847 JUMP JUMPDEST DUP1 ISZERO PUSH2 0x1C80 JUMPI DUP1 PUSH1 0x1F LT PUSH2 0x1C55 JUMPI PUSH2 0x100 DUP1 DUP4 SLOAD DIV MUL DUP4 MSTORE SWAP2 PUSH1 0x20 ADD SWAP2 PUSH2 0x1C80 JUMP JUMPDEST DUP3 ADD SWAP2 SWAP1 PUSH1 0x0 MSTORE PUSH1 0x20 PUSH1 0x0 KECCAK256 SWAP1 JUMPDEST DUP2 SLOAD DUP2 MSTORE SWAP1 PUSH1 0x1 ADD SWAP1 PUSH1 0x20 ADD DUP1 DUP4 GT PUSH2 0x1C63 JUMPI DUP3 SWAP1 SUB PUSH1 0x1F AND DUP3 ADD SWAP2 JUMPDEST POP POP POP POP POP SWAP1 DUP1 PUSH1 0x2 ADD DUP1 SLOAD PUSH2 0x1C95 SWAP1 PUSH2 0x3847 JUMP JUMPDEST DUP1 PUSH1 0x1F ADD PUSH1 0x20 DUP1 SWAP2 DIV MUL PUSH1 0x20 ADD PUSH1 0x40 MLOAD SWAP1 DUP2 ADD PUSH1 0x40 MSTORE DUP1 SWAP3 SWAP2 SWAP1 DUP2 DUP2 MSTORE PUSH1 0x20 ADD DUP3 DUP1 SLOAD PUSH2 0x1CC1 SWAP1 PUSH2 0x3847 JUMP JUMPDEST DUP1 ISZERO PUSH2 0x1D0E JUMPI DUP1 PUSH1 0x1F LT PUSH2 0x1CE3 JUMPI PUSH2 0x100 DUP1 DUP4 SLOAD DIV MUL DUP4 MSTORE SWAP2 PUSH1 0x20 ADD SWAP2 PUSH2 0x1D0E JUMP JUMPDEST DUP3 ADD SWAP2 SWAP1 PUSH1 0x0 MSTORE PUSH1 0x20 PUSH1 0x0 KECCAK256 SWAP1 JUMPDEST DUP2 SLOAD DUP2 MSTORE SWAP1 PUSH1 0x1 ADD SWAP1 PUSH1 0x20 ADD DUP1 DUP4 GT PUSH2 0x1CF1 JUMPI DUP3 SWAP1 SUB PUSH1 0x1F AND DUP3 ADD SWAP2 JUMPDEST POP POP POP PUSH1 0x3 DUP5 ADD SLOAD PUSH1 0x4 DUP6 ADD DUP1 SLOAD SWAP5 SWAP6 PUSH1 0x1 PUSH1 0x1 PUSH1 0xA0 SHL SUB SWAP1 SWAP3 AND SWAP5 SWAP2 SWAP4 POP SWAP2 POP PUSH2 0x1D38 SWAP1 PUSH2 0x3847 JUMP JUMPDEST DUP1 PUSH1 0x1F ADD PUSH1 0x20 DUP1 SWAP2 DIV MUL PUSH1 0x20 ADD PUSH1 0x40 MLOAD SWAP1 DUP2 ADD PUSH1 0x40 MSTORE DUP1 SWAP3 SWAP2 SWAP1 DUP2 DUP2 MSTORE PUSH1 0x20 ADD DUP3 DUP1 SLOAD PUSH2 0x1D64 SWAP1 PUSH2 0x3847 JUMP JUMPDEST DUP1 ISZERO PUSH2 0x1DB1 JUMPI DUP1 PUSH1 0x1F LT PUSH2 0x1D86 JUMPI PUSH2 0x100 DUP1 DUP4 SLOAD DIV MUL DUP4 MSTORE SWAP2 PUSH1 0x20 ADD SWAP2 PUSH2 0x1DB1 JUMP JUMPDEST DUP3 ADD SWAP2 SWAP1 PUSH1 0x0 MSTORE PUSH1 0x20 PUSH1 0x0 KECCAK256 SWAP1 JUMPDEST DUP2 SLOAD DUP2 MSTORE SWAP1 PUSH1 0x1 ADD SWAP1 PUSH1 0x20 ADD DUP1 DUP4 GT PUSH2 0x1D94 JUMPI DUP3 SWAP1 SUB PUSH1 0x1F AND DUP3 ADD SWAP2 JUMPDEST POP POP POP POP POP SWAP1 DUP1 PUSH1 0x5 ADD SLOAD SWAP1 DUP1 PUSH1 0x6 ADD DUP1 SLOAD PUSH2 0x1DCC SWAP1 PUSH2 0x3847 JUMP JUMPDEST DUP1 PUSH1 0x1F ADD PUSH1 0x20 DUP1 SWAP2 DIV MUL PUSH1 0x20 ADD PUSH1 0x40 MLOAD SWAP1 DUP2 ADD PUSH1 0x40 MSTORE DUP1 SWAP3 SWAP2 SWAP1 DUP2 DUP2 MSTORE PUSH1 0x20 ADD DUP3 DUP1 SLOAD PUSH2 0x1DF8 SWAP1 PUSH2 0x3847 JUMP JUMPDEST DUP1 ISZERO PUSH2 0x1E45 JUMPI DUP1 PUSH1 0x1F LT PUSH2 0x1E1A JUMPI PUSH2 0x100 DUP1 DUP4 SLOAD DIV MUL DUP4 MSTORE SWAP2 PUSH1 0x20 ADD SWAP2 PUSH2 0x1E45 JUMP JUMPDEST DUP3 ADD SWAP2 SWAP1 PUSH1 0x0 MSTORE PUSH1 0x20 PUSH1 0x0 KECCAK256 SWAP1 JUMPDEST DUP2 SLOAD DUP2 MSTORE SWAP1 PUSH1 0x1 ADD SWAP1 PUSH1 0x20 ADD DUP1 DUP4 GT PUSH2 0x1E28 JUMPI DUP3 SWAP1 SUB PUSH1 0x1F AND DUP3 ADD SWAP2 JUMPDEST POP POP POP POP POP SWAP1 DUP1 PUSH1 0x7 ADD SLOAD SWAP1 DUP1 PUSH1 0x8 ADD DUP1 SLOAD PUSH2 0x1E60 SWAP1 PUSH2 0x3847 JUMP JUMPDEST DUP1 PUSH1 0x1F ADD PUSH1 0x20 DUP1 SWAP2 DIV MUL PUSH1 0x20 ADD PUSH1 0x40 MLOAD SWAP1 DUP2 ADD PUSH1 0x40 MSTORE DUP1 SWAP3 SWAP2 SWAP1 DUP2 DUP2 MSTORE PUSH1 0x20 ADD DUP3 DUP1 SLOAD PUSH2 0x1E8C SWAP1 PUSH2 0x3847 JUMP JUMPDEST DUP1 ISZERO PUSH2 0x1ED9 JUMPI DUP1 PUSH1 0x1F LT PUSH2 0x1EAE JUMPI PUSH2 0x100 DUP1 DUP4 SLOAD DIV MUL DUP4 MSTORE SWAP2 PUSH1 0x20 ADD SWAP2 PUSH2 0x1ED9 JUMP JUMPDEST DUP3 ADD SWAP2 SWAP1 PUSH1 0x0 MSTORE PUSH1 0x20 PUSH1 0x0 KECCAK256 SWAP1 JUMPDEST DUP2 SLOAD DUP2 MSTORE SWAP1 PUSH1 0x1 ADD SWAP1 PUSH1 0x20 ADD DUP1 DUP4 GT PUSH2 0x1EBC JUMPI DUP3 SWAP1 SUB PUSH1 0x1F AND DUP3 ADD SWAP2 JUMPDEST POP POP POP PUSH1 0x9 SWAP1 SWAP4 ADD SLOAD SWAP2 SWAP3 POP POP PUSH1 0xFF DUP1 DUP3 AND SWAP2 PUSH2 0x100 DUP2 DIV DUP3 AND SWAP2 PUSH3 0x10000 DUP3 DIV AND SWAP1 PUSH1 0x1 PUSH1 0x1 PUSH1 0xA0 SHL SUB PUSH4 0x1000000 SWAP1 SWAP2 DIV AND DUP14 JUMP JUMPDEST CALLER PUSH1 0x0 SWAP1 DUP2 MSTORE PUSH1 0x5 PUSH1 0x20 MSTORE PUSH1 0x40 DUP2 KECCAK256 SLOAD PUSH1 0xFF AND PUSH2 0x1F3F JUMPI PUSH1 0x40 MLOAD PUSH3 0x461BCD PUSH1 0xE5 SHL DUP2 MSTORE PUSH1 0x4 ADD PUSH2 0x561 SWAP1 PUSH2 0x37C7 JUMP JUMPDEST DUP5 PUSH1 0x0 DUP2 GT DUP1 ISZERO PUSH2 0x1F51 JUMPI POP PUSH1 0x6 SLOAD DUP2 LT JUMPDEST PUSH2 0x1F6D JUMPI PUSH1 0x40 MLOAD PUSH3 0x461BCD PUSH1 0xE5 SHL DUP2 MSTORE PUSH1 0x4 ADD PUSH2 0x561 SWAP1 PUSH2 0x3819 JUMP JUMPDEST PUSH1 0x8 DUP1 SLOAD PUSH1 0x0 SWAP2 DUP3 PUSH2 0x1F7E DUP4 PUSH2 0x3BDF JUMP JUMPDEST SWAP1 SWAP2 SSTORE POP PUSH1 0x40 DUP1 MLOAD PUSH1 0xE0 DUP2 ADD DUP3 MSTORE DUP3 DUP2 MSTORE PUSH1 0x20 DUP1 DUP3 ADD DUP12 DUP2 MSTORE CALLER DUP4 DUP6 ADD SWAP1 DUP2 MSTORE PUSH1 0x60 DUP5 ADD DUP13 DUP2 MSTORE PUSH1 0x80 DUP6 ADD DUP13 SWAP1 MSTORE TIMESTAMP PUSH1 0xA0 DUP7 ADD MSTORE PUSH1 0xC0 DUP6 ADD DUP12 SWAP1 MSTORE PUSH1 0x0 DUP8 DUP2 MSTORE PUSH1 0x2 SWAP5 DUP6 SWAP1 MSTORE SWAP6 SWAP1 SWAP6 KECCAK256 DUP5 MLOAD DUP2 SSTORE SWAP2 MLOAD PUSH1 0x1 DUP4 ADD SSTORE MLOAD SWAP2 DUP2 ADD DUP1 SLOAD PUSH1 0x1 PUSH1 0x1 PUSH1 0xA0 SHL SUB NOT AND PUSH1 0x1 PUSH1 0x1 PUSH1 0xA0 SHL SUB SWAP1 SWAP4 AND SWAP3 SWAP1 SWAP3 OR SWAP1 SWAP2 SSTORE SWAP2 MLOAD SWAP3 SWAP4 POP SWAP2 PUSH1 0x3 DUP3 ADD SWAP1 PUSH2 0x200A SWAP1 DUP3 PUSH2 0x3C55 JUMP JUMPDEST POP PUSH1 0x80 DUP3 ADD MLOAD PUSH1 0x4 DUP3 ADD SWAP1 PUSH2 0x201F SWAP1 DUP3 PUSH2 0x3C55 JUMP JUMPDEST POP PUSH1 0xA0 DUP3 ADD MLOAD PUSH1 0x5 DUP3 ADD SSTORE PUSH1 0xC0 DUP3 ADD MLOAD PUSH1 0x6 DUP3 ADD SWAP1 PUSH2 0x203E SWAP1 DUP3 PUSH2 0x3C55 JUMP JUMPDEST POP POP POP PUSH1 0x0 DUP8 DUP2 MSTORE PUSH1 0x20 DUP2 DUP2 MSTORE PUSH1 0x40 DUP3 KECCAK256 PUSH1 0xB ADD DUP1 SLOAD PUSH1 0x1 DUP2 ADD DUP3 SSTORE SWAP1 DUP4 MSTORE SWAP2 KECCAK256 ADD PUSH2 0x206A DUP7 DUP3 PUSH2 0x3C55 JUMP JUMPDEST POP PUSH1 0x40 DUP1 MLOAD DUP3 DUP2 MSTORE CALLER PUSH1 0x20 DUP3 ADD MSTORE DUP9 SWAP2 PUSH32 0x6189CB54E555B1A2A4E5C701C017A6E951A743C97ECDE613BCA991F4EB4DA30B SWAP2 ADD PUSH1 0x40 MLOAD DUP1 SWAP2 SUB SWAP1 LOG2 SWAP7 SWAP6 POP POP POP POP POP POP JUMP JUMPDEST PUSH1 0x60 DUP2 PUSH1 0x0 DUP2 GT DUP1 ISZERO PUSH2 0x20C3 JUMPI POP PUSH1 0x6 SLOAD DUP2 LT JUMPDEST PUSH2 0x20DF JUMPI PUSH1 0x40 MLOAD PUSH3 0x461BCD PUSH1 0xE5 SHL DUP2 MSTORE PUSH1 0x4 ADD PUSH2 0x561 SWAP1 PUSH2 0x3819 JUMP JUMPDEST PUSH1 0x0 PUSH1 0x1 JUMPDEST PUSH1 0x7 SLOAD DUP2 LT ISZERO PUSH2 0x2128 JUMPI PUSH1 0x0 DUP2 DUP2 MSTORE PUSH1 0x1 PUSH1 0x20 DUP2 SWAP1 MSTORE PUSH1 0x40 SWAP1 SWAP2 KECCAK256 ADD SLOAD DUP6 SWAP1 SUB PUSH2 0x2116 JUMPI DUP2 PUSH2 0x2112 DUP2 PUSH2 0x3BDF JUMP JUMPDEST SWAP3 POP POP JUMPDEST DUP1 PUSH2 0x2120 DUP2 PUSH2 0x3BDF JUMP JUMPDEST SWAP2 POP POP PUSH2 0x20E4 JUMP JUMPDEST POP PUSH1 0x0 DUP2 PUSH1 0x1 PUSH1 0x1 PUSH1 0x40 SHL SUB DUP2 GT ISZERO PUSH2 0x2143 JUMPI PUSH2 0x2143 PUSH2 0x32EC JUMP JUMPDEST PUSH1 0x40 MLOAD SWAP1 DUP1 DUP3 MSTORE DUP1 PUSH1 0x20 MUL PUSH1 0x20 ADD DUP3 ADD PUSH1 0x40 MSTORE DUP1 ISZERO PUSH2 0x21CE JUMPI DUP2 PUSH1 0x20 ADD JUMPDEST PUSH2 0x21BB PUSH1 0x40 MLOAD DUP1 PUSH2 0x120 ADD PUSH1 0x40 MSTORE DUP1 PUSH1 0x0 DUP2 MSTORE PUSH1 0x20 ADD PUSH1 0x0 DUP2 MSTORE PUSH1 0x20 ADD PUSH1 0x0 PUSH1 0x1 PUSH1 0x1 PUSH1 0xA0 SHL SUB AND DUP2 MSTORE PUSH1 0x20 ADD PUSH1 0x60 DUP2 MSTORE PUSH1 0x20 ADD PUSH1 0x0 DUP2 MSTORE PUSH1 0x20 ADD PUSH1 0x0 ISZERO ISZERO DUP2 MSTORE PUSH1 0x20 ADD PUSH1 0x60 DUP2 MSTORE PUSH1 0x20 ADD PUSH1 0x0 DUP2 MSTORE PUSH1 0x20 ADD PUSH1 0x60 DUP2 MSTORE POP SWAP1 JUMP JUMPDEST DUP2 MSTORE PUSH1 0x20 ADD SWAP1 PUSH1 0x1 SWAP1 SUB SWAP1 DUP2 PUSH2 0x2161 JUMPI SWAP1 POP JUMPDEST POP SWAP1 POP PUSH1 0x0 PUSH1 0x1 JUMPDEST PUSH1 0x7 SLOAD DUP2 LT ISZERO PUSH2 0x189D JUMPI PUSH1 0x0 DUP2 DUP2 MSTORE PUSH1 0x1 PUSH1 0x20 DUP2 SWAP1 MSTORE PUSH1 0x40 SWAP1 SWAP2 KECCAK256 ADD SLOAD DUP8 SWAP1 SUB PUSH2 0x244A JUMPI PUSH1 0x0 DUP2 DUP2 MSTORE PUSH1 0x1 PUSH1 0x20 DUP2 DUP2 MSTORE PUSH1 0x40 SWAP3 DUP4 SWAP1 KECCAK256 DUP4 MLOAD PUSH2 0x120 DUP2 ADD DUP6 MSTORE DUP2 SLOAD DUP2 MSTORE SWAP3 DUP2 ADD SLOAD SWAP2 DUP4 ADD SWAP2 SWAP1 SWAP2 MSTORE PUSH1 0x2 DUP2 ADD SLOAD PUSH1 0x1 PUSH1 0x1 PUSH1 0xA0 SHL SUB AND SWAP3 DUP3 ADD SWAP3 SWAP1 SWAP3 MSTORE PUSH1 0x3 DUP3 ADD DUP1 SLOAD SWAP2 SWAP3 SWAP2 PUSH1 0x60 DUP5 ADD SWAP2 SWAP1 PUSH2 0x2251 SWAP1 PUSH2 0x3847 JUMP JUMPDEST DUP1 PUSH1 0x1F ADD PUSH1 0x20 DUP1 SWAP2 DIV MUL PUSH1 0x20 ADD PUSH1 0x40 MLOAD SWAP1 DUP2 ADD PUSH1 0x40 MSTORE DUP1 SWAP3 SWAP2 SWAP1 DUP2 DUP2 MSTORE PUSH1 0x20 ADD DUP3 DUP1 SLOAD PUSH2 0x227D SWAP1 PUSH2 0x3847 JUMP JUMPDEST DUP1 ISZERO PUSH2 0x22CA JUMPI DUP1 PUSH1 0x1F LT PUSH2 0x229F JUMPI PUSH2 0x100 DUP1 DUP4 SLOAD DIV MUL DUP4 MSTORE SWAP2 PUSH1 0x20 ADD SWAP2 PUSH2 0x22CA JUMP JUMPDEST DUP3 ADD SWAP2 SWAP1 PUSH1 0x0 MSTORE PUSH1 0x20 PUSH1 0x0 KECCAK256 SWAP1 JUMPDEST DUP2 SLOAD DUP2 MSTORE SWAP1 PUSH1 0x1 ADD SWAP1 PUSH1 0x20 ADD DUP1 DUP4 GT PUSH2 0x22AD JUMPI DUP3 SWAP1 SUB PUSH1 0x1F AND DUP3 ADD SWAP2 JUMPDEST POP POP POP SWAP2 DUP4 MSTORE POP POP PUSH1 0x4 DUP3 ADD SLOAD PUSH1 0x20 DUP3 ADD MSTORE PUSH1 0x5 DUP3 ADD SLOAD PUSH1 0xFF AND ISZERO ISZERO PUSH1 0x40 DUP3 ADD MSTORE PUSH1 0x6 DUP3 ADD DUP1 SLOAD PUSH1 0x60 SWAP1 SWAP3 ADD SWAP2 PUSH2 0x2300 SWAP1 PUSH2 0x3847 JUMP JUMPDEST DUP1 PUSH1 0x1F ADD PUSH1 0x20 DUP1 SWAP2 DIV MUL PUSH1 0x20 ADD PUSH1 0x40 MLOAD SWAP1 DUP2 ADD PUSH1 0x40 MSTORE DUP1 SWAP3 SWAP2 SWAP1 DUP2 DUP2 MSTORE PUSH1 0x20 ADD DUP3 DUP1 SLOAD PUSH2 0x232C SWAP1 PUSH2 0x3847 JUMP JUMPDEST DUP1 ISZERO PUSH2 0x2379 JUMPI DUP1 PUSH1 0x1F LT PUSH2 0x234E JUMPI PUSH2 0x100 DUP1 DUP4 SLOAD DIV MUL DUP4 MSTORE SWAP2 PUSH1 0x20 ADD SWAP2 PUSH2 0x2379 JUMP JUMPDEST DUP3 ADD SWAP2 SWAP1 PUSH1 0x0 MSTORE PUSH1 0x20 PUSH1 0x0 KECCAK256 SWAP1 JUMPDEST DUP2 SLOAD DUP2 MSTORE SWAP1 PUSH1 0x1 ADD SWAP1 PUSH1 0x20 ADD DUP1 DUP4 GT PUSH2 0x235C JUMPI DUP3 SWAP1 SUB PUSH1 0x1F AND DUP3 ADD SWAP2 JUMPDEST POP POP POP POP POP DUP2 MSTORE PUSH1 0x20 ADD PUSH1 0x7 DUP3 ADD SLOAD DUP2 MSTORE PUSH1 0x20 ADD PUSH1 0x8 DUP3 ADD DUP1 SLOAD PUSH2 0x239C SWAP1 PUSH2 0x3847 JUMP JUMPDEST DUP1 PUSH1 0x1F ADD PUSH1 0x20 DUP1 SWAP2 DIV MUL PUSH1 0x20 ADD PUSH1 0x40 MLOAD SWAP1 DUP2 ADD PUSH1 0x40 MSTORE DUP1 SWAP3 SWAP2 SWAP1 DUP2 DUP2 MSTORE PUSH1 0x20 ADD DUP3 DUP1 SLOAD PUSH2 0x23C8 SWAP1 PUSH2 0x3847 JUMP JUMPDEST DUP1 ISZERO PUSH2 0x2415 JUMPI DUP1 PUSH1 0x1F LT PUSH2 0x23EA JUMPI PUSH2 0x100 DUP1 DUP4 SLOAD DIV MUL DUP4 MSTORE SWAP2 PUSH1 0x20 ADD SWAP2 PUSH2 0x2415 JUMP JUMPDEST DUP3 ADD SWAP2 SWAP1 PUSH1 0x0 MSTORE PUSH1 0x20 PUSH1 0x0 KECCAK256 SWAP1 JUMPDEST DUP2 SLOAD DUP2 MSTORE SWAP1 PUSH1 0x1 ADD SWAP1 PUSH1 0x20 ADD DUP1 DUP4 GT PUSH2 0x23F8 JUMPI DUP3 SWAP1 SUB PUSH1 0x1F AND DUP3 ADD SWAP2 JUMPDEST POP POP POP POP POP DUP2 MSTORE POP POP DUP4 DUP4 DUP2 MLOAD DUP2 LT PUSH2 0x2430 JUMPI PUSH2 0x2430 PUSH2 0x3D3E JUMP JUMPDEST PUSH1 0x20 MUL PUSH1 0x20 ADD ADD DUP2 SWAP1 MSTORE POP DUP2 DUP1 PUSH2 0x2446 SWAP1 PUSH2 0x3BDF JUMP JUMPDEST SWAP3 POP POP JUMPDEST DUP1 PUSH2 0x2454 DUP2 PUSH2 0x3BDF JUMP JUMPDEST SWAP2 POP POP PUSH2 0x21D6 JUMP JUMPDEST CALLER PUSH1 0x0 SWAP1 DUP2 MSTORE PUSH1 0x4 PUSH1 0x20 MSTORE PUSH1 0x40 DUP2 KECCAK256 SLOAD PUSH1 0xFF AND PUSH2 0x24D8 JUMPI PUSH1 0x40 MLOAD PUSH3 0x461BCD PUSH1 0xE5 SHL DUP2 MSTORE PUSH1 0x20 PUSH1 0x4 DUP3 ADD MSTORE PUSH1 0x34 PUSH1 0x24 DUP3 ADD MSTORE PUSH32 0x4F6E6C7920617574686F72697A6564206C61626F7261746F726965732063616E PUSH1 0x44 DUP3 ADD MSTORE PUSH20 0x103832B93337B936903A3434B99030B1BA34B7B7 PUSH1 0x61 SHL PUSH1 0x64 DUP3 ADD MSTORE PUSH1 0x84 ADD PUSH2 0x561 JUMP JUMPDEST DUP7 PUSH1 0x0 DUP2 GT DUP1 ISZERO PUSH2 0x24EA JUMPI POP PUSH1 0x6 SLOAD DUP2 LT JUMPDEST PUSH2 0x2506 JUMPI PUSH1 0x40 MLOAD PUSH3 0x461BCD PUSH1 0xE5 SHL DUP2 MSTORE PUSH1 0x4 ADD PUSH2 0x561 SWAP1 PUSH2 0x3819 JUMP JUMPDEST PUSH1 0x0 DUP9 DUP2 MSTORE PUSH1 0x20 DUP2 SWAP1 MSTORE PUSH1 0x40 SWAP1 KECCAK256 PUSH1 0x9 ADD SLOAD PUSH2 0x100 SWAP1 DIV PUSH1 0xFF AND ISZERO PUSH2 0x2564 JUMPI PUSH1 0x40 MLOAD PUSH3 0x461BCD PUSH1 0xE5 SHL DUP2 MSTORE PUSH1 0x20 PUSH1 0x4 DUP3 ADD MSTORE PUSH1 0x14 PUSH1 0x24 DUP3 ADD MSTORE PUSH20 0x10985D18DA08185B1C9958591E481D195CDD1959 PUSH1 0x62 SHL PUSH1 0x44 DUP3 ADD MSTORE PUSH1 0x64 ADD PUSH2 0x561 JUMP JUMPDEST PUSH1 0x7 DUP1 SLOAD PUSH1 0x0 SWAP2 DUP3 PUSH2 0x2575 DUP4 PUSH2 0x3BDF JUMP JUMPDEST SWAP1 SWAP2 SSTORE POP PUSH1 0x40 DUP1 MLOAD PUSH2 0x120 DUP2 ADD DUP3 MSTORE DUP3 DUP2 MSTORE PUSH1 0x20 DUP1 DUP3 ADD DUP14 DUP2 MSTORE CALLER DUP4 DUP6 ADD SWAP1 DUP2 MSTORE PUSH1 0x60 DUP5 ADD DUP15 DUP2 MSTORE PUSH1 0x80 DUP6 ADD DUP15 SWAP1 MSTORE DUP13 ISZERO ISZERO PUSH1 0xA0 DUP7 ADD MSTORE PUSH1 0xC0 DUP6 ADD DUP13 SWAP1 MSTORE TIMESTAMP PUSH1 0xE0 DUP7 ADD MSTORE PUSH2 0x100 DUP6 ADD DUP12 SWAP1 MSTORE PUSH1 0x0 DUP8 DUP2 MSTORE PUSH1 0x1 SWAP5 DUP6 SWAP1 MSTORE SWAP6 SWAP1 SWAP6 KECCAK256 DUP5 MLOAD DUP2 SSTORE SWAP2 MLOAD SWAP3 DUP3 ADD SWAP3 SWAP1 SWAP3 SSTORE SWAP1 MLOAD PUSH1 0x2 DUP3 ADD DUP1 SLOAD PUSH1 0x1 PUSH1 0x1 PUSH1 0xA0 SHL SUB NOT AND PUSH1 0x1 PUSH1 0x1 PUSH1 0xA0 SHL SUB SWAP1 SWAP3 AND SWAP2 SWAP1 SWAP2 OR SWAP1 SSTORE SWAP2 MLOAD SWAP3 SWAP4 POP SWAP2 PUSH1 0x3 DUP3 ADD SWAP1 PUSH2 0x2615 SWAP1 DUP3 PUSH2 0x3C55 JUMP JUMPDEST POP PUSH1 0x80 DUP3 ADD MLOAD PUSH1 0x4 DUP3 ADD SSTORE PUSH1 0xA0 DUP3 ADD MLOAD PUSH1 0x5 DUP3 ADD DUP1 SLOAD PUSH1 0xFF NOT AND SWAP2 ISZERO ISZERO SWAP2 SWAP1 SWAP2 OR SWAP1 SSTORE PUSH1 0xC0 DUP3 ADD MLOAD PUSH1 0x6 DUP3 ADD SWAP1 PUSH2 0x264C SWAP1 DUP3 PUSH2 0x3C55 JUMP JUMPDEST POP PUSH1 0xE0 DUP3 ADD MLOAD PUSH1 0x7 DUP3 ADD SSTORE PUSH2 0x100 DUP3 ADD MLOAD PUSH1 0x8 DUP3 ADD SWAP1 PUSH2 0x266C SWAP1 DUP3 PUSH2 0x3C55 JUMP JUMPDEST POP POP POP PUSH1 0x0 DUP10 DUP2 MSTORE PUSH1 0x20 DUP2 DUP2 MSTORE PUSH1 0x40 DUP3 KECCAK256 PUSH1 0x9 DUP2 ADD DUP1 SLOAD PUSH2 0xFF00 NOT AND PUSH2 0x100 OR SWAP1 SSTORE PUSH1 0xA ADD DUP1 SLOAD PUSH1 0x1 DUP2 ADD DUP3 SSTORE SWAP1 DUP4 MSTORE SWAP2 KECCAK256 ADD PUSH2 0x26A9 DUP7 DUP3 PUSH2 0x3C55 JUMP JUMPDEST POP PUSH1 0x40 DUP1 MLOAD DUP3 DUP2 MSTORE CALLER PUSH1 0x20 DUP3 ADD MSTORE DUP11 SWAP2 PUSH32 0x4284C7390F4A945706BCC5ADDD04B1E96A30C8203086EBD20DB676623F62A369 SWAP2 ADD PUSH1 0x40 MLOAD DUP1 SWAP2 SUB SWAP1 LOG2 SWAP9 SWAP8 POP POP POP POP POP POP POP POP JUMP JUMPDEST PUSH2 0x26F8 PUSH2 0x2CEC JUMP JUMPDEST DUP2 PUSH1 0x0 DUP2 GT DUP1 ISZERO PUSH2 0x270A JUMPI POP PUSH1 0x6 SLOAD DUP2 LT JUMPDEST PUSH2 0x2726 JUMPI PUSH1 0x40 MLOAD PUSH3 0x461BCD PUSH1 0xE5 SHL DUP2 MSTORE PUSH1 0x4 ADD PUSH2 0x561 SWAP1 PUSH2 0x3819 JUMP JUMPDEST PUSH1 0x0 DUP4 DUP2 MSTORE PUSH1 0x20 DUP2 DUP2 MSTORE PUSH1 0x40 SWAP2 DUP3 SWAP1 KECCAK256 DUP3 MLOAD PUSH2 0x1E0 DUP2 ADD SWAP1 SWAP4 MSTORE DUP1 SLOAD DUP4 MSTORE PUSH1 0x1 DUP2 ADD DUP1 SLOAD SWAP2 SWAP3 DUP5 ADD SWAP2 PUSH2 0x2758 SWAP1 PUSH2 0x3847 JUMP JUMPDEST DUP1 PUSH1 0x1F ADD PUSH1 0x20 DUP1 SWAP2 DIV MUL PUSH1 0x20 ADD PUSH1 0x40 MLOAD SWAP1 DUP2 ADD PUSH1 0x40 MSTORE DUP1 SWAP3 SWAP2 SWAP1 DUP2 DUP2 MSTORE PUSH1 0x20 ADD DUP3 DUP1 SLOAD PUSH2 0x2784 SWAP1 PUSH2 0x3847 JUMP JUMPDEST DUP1 ISZERO PUSH2 0x27D1 JUMPI DUP1 PUSH1 0x1F LT PUSH2 0x27A6 JUMPI PUSH2 0x100 DUP1 DUP4 SLOAD DIV MUL DUP4 MSTORE SWAP2 PUSH1 0x20 ADD SWAP2 PUSH2 0x27D1 JUMP JUMPDEST DUP3 ADD SWAP2 SWAP1 PUSH1 0x0 MSTORE PUSH1 0x20 PUSH1 0x0 KECCAK256 SWAP1 JUMPDEST DUP2 SLOAD DUP2 MSTORE SWAP1 PUSH1 0x1 ADD SWAP1 PUSH1 0x20 ADD DUP1 DUP4 GT PUSH2 0x27B4 JUMPI DUP3 SWAP1 SUB PUSH1 0x1F AND DUP3 ADD SWAP2 JUMPDEST POP POP POP POP POP DUP2 MSTORE PUSH1 0x20 ADD PUSH1 0x2 DUP3 ADD DUP1 SLOAD PUSH2 0x27EA SWAP1 PUSH2 0x3847 JUMP JUMPDEST DUP1 PUSH1 0x1F ADD PUSH1 0x20 DUP1 SWAP2 DIV MUL PUSH1 0x20 ADD PUSH1 0x40 MLOAD SWAP1 DUP2 ADD PUSH1 0x40 MSTORE DUP1 SWAP3 SWAP2 SWAP1 DUP2 DUP2 MSTORE PUSH1 0x20 ADD DUP3 DUP1 SLOAD PUSH2 0x2816 SWAP1 PUSH2 0x3847 JUMP JUMPDEST DUP1 ISZERO PUSH2 0x2863 JUMPI DUP1 PUSH1 0x1F LT PUSH2 0x2838 JUMPI PUSH2 0x100 DUP1 DUP4 SLOAD DIV MUL DUP4 MSTORE SWAP2 PUSH1 0x20 ADD SWAP2 PUSH2 0x2863 JUMP JUMPDEST DUP3 ADD SWAP2 SWAP1 PUSH1 0x0 MSTORE PUSH1 0x20 PUSH1 0x0 KECCAK256 SWAP1 JUMPDEST DUP2 SLOAD DUP2 MSTORE SWAP1 PUSH1 0x1 ADD SWAP1 PUSH1 0x20 ADD DUP1 DUP4 GT PUSH2 0x2846 JUMPI DUP3 SWAP1 SUB PUSH1 0x1F AND DUP3 ADD SWAP2 JUMPDEST POP POP POP SWAP2 DUP4 MSTORE POP POP PUSH1 0x3 DUP3 ADD SLOAD PUSH1 0x1 PUSH1 0x1 PUSH1 0xA0 SHL SUB AND PUSH1 0x20 DUP3 ADD MSTORE PUSH1 0x4 DUP3 ADD DUP1 SLOAD PUSH1 0x40 SWAP1 SWAP3 ADD SWAP2 PUSH2 0x2893 SWAP1 PUSH2 0x3847 JUMP JUMPDEST DUP1 PUSH1 0x1F ADD PUSH1 0x20 DUP1 SWAP2 DIV MUL PUSH1 0x20 ADD PUSH1 0x40 MLOAD SWAP1 DUP2 ADD PUSH1 0x40 MSTORE DUP1 SWAP3 SWAP2 SWAP1 DUP2 DUP2 MSTORE PUSH1 0x20 ADD DUP3 DUP1 SLOAD PUSH2 0x28BF SWAP1 PUSH2 0x3847 JUMP JUMPDEST DUP1 ISZERO PUSH2 0x290C JUMPI DUP1 PUSH1 0x1F LT PUSH2 0x28E1 JUMPI PUSH2 0x100 DUP1 DUP4 SLOAD DIV MUL DUP4 MSTORE SWAP2 PUSH1 0x20 ADD SWAP2 PUSH2 0x290C JUMP JUMPDEST DUP3 ADD SWAP2 SWAP1 PUSH1 0x0 MSTORE PUSH1 0x20 PUSH1 0x0 KECCAK256 SWAP1 JUMPDEST DUP2 SLOAD DUP2 MSTORE SWAP1 PUSH1 0x1 ADD SWAP1 PUSH1 0x20 ADD DUP1 DUP4 GT PUSH2 0x28EF JUMPI DUP3 SWAP1 SUB PUSH1 0x1F AND DUP3 ADD SWAP2 JUMPDEST POP POP POP POP POP DUP2 MSTORE PUSH1 0x20 ADD PUSH1 0x5 DUP3 ADD SLOAD DUP2 MSTORE PUSH1 0x20 ADD PUSH1 0x6 DUP3 ADD DUP1 SLOAD PUSH2 0x292F SWAP1 PUSH2 0x3847 JUMP JUMPDEST DUP1 PUSH1 0x1F ADD PUSH1 0x20 DUP1 SWAP2 DIV MUL PUSH1 0x20 ADD PUSH1 0x40 MLOAD SWAP1 DUP2 ADD PUSH1 0x40 MSTORE DUP1 SWAP3 SWAP2 SWAP1 DUP2 DUP2 MSTORE PUSH1 0x20 ADD DUP3 DUP1 SLOAD PUSH2 0x295B SWAP1 PUSH2 0x3847 JUMP JUMPDEST DUP1 ISZERO PUSH2 0x29A8 JUMPI DUP1 PUSH1 0x1F LT PUSH2 0x297D JUMPI PUSH2 0x100 DUP1 DUP4 SLOAD DIV MUL DUP4 MSTORE SWAP2 PUSH1 0x20 ADD SWAP2 PUSH2 0x29A8 JUMP JUMPDEST DUP3 ADD SWAP2 SWAP1 PUSH1 0x0 MSTORE PUSH1 0x20 PUSH1 0x0 KECCAK256 SWAP1 JUMPDEST DUP2 SLOAD DUP2 MSTORE SWAP1 PUSH1 0x1 ADD SWAP1 PUSH1 0x20 ADD DUP1 DUP4 GT PUSH2 0x298B JUMPI DUP3 SWAP1 SUB PUSH1 0x1F AND DUP3 ADD SWAP2 JUMPDEST POP POP POP POP POP DUP2 MSTORE PUSH1 0x20 ADD PUSH1 0x7 DUP3 ADD SLOAD DUP2 MSTORE PUSH1 0x20 ADD PUSH1 0x8 DUP3 ADD DUP1 SLOAD PUSH2 0x29CB SWAP1 PUSH2 0x3847 JUMP JUMPDEST DUP1 PUSH1 0x1F ADD PUSH1 0x20 DUP1 SWAP2 DIV MUL PUSH1 0x20 ADD PUSH1 0x40 MLOAD SWAP1 DUP2 ADD PUSH1 0x40 MSTORE DUP1 SWAP3 SWAP2 SWAP1 DUP2 DUP2 MSTORE PUSH1 0x20 ADD DUP3 DUP1 SLOAD PUSH2 0x29F7 SWAP1 PUSH2 0x3847 JUMP JUMPDEST DUP1 ISZERO PUSH2 0x2A44 JUMPI DUP1 PUSH1 0x1F LT PUSH2 0x2A19 JUMPI PUSH2 0x100 DUP1 DUP4 SLOAD DIV MUL DUP4 MSTORE SWAP2 PUSH1 0x20 ADD SWAP2 PUSH2 0x2A44 JUMP JUMPDEST DUP3 ADD SWAP2 SWAP1 PUSH1 0x0 MSTORE PUSH1 0x20 PUSH1 0x0 KECCAK256 SWAP1 JUMPDEST DUP2 SLOAD DUP2 MSTORE SWAP1 PUSH1 0x1 ADD SWAP1 PUSH1 0x20 ADD DUP1 DUP4 GT PUSH2 0x2A27 JUMPI DUP3 SWAP1 SUB PUSH1 0x1F AND DUP3 ADD SWAP2 JUMPDEST POP POP POP SWAP2 DUP4 MSTORE POP POP PUSH1 0x9 DUP3 ADD SLOAD PUSH1 0xFF DUP1 DUP3 AND ISZERO ISZERO PUSH1 0x20 DUP1 DUP6 ADD SWAP2 SWAP1 SWAP2 MSTORE PUSH2 0x100 DUP4 DIV DUP3 AND ISZERO ISZERO PUSH1 0x40 DUP1 DUP7 ADD SWAP2 SWAP1 SWAP2 MSTORE PUSH3 0x10000 DUP5 DIV SWAP1 SWAP3 AND ISZERO ISZERO PUSH1 0x60 DUP6 ADD MSTORE PUSH4 0x1000000 SWAP1 SWAP3 DIV PUSH1 0x1 PUSH1 0x1 PUSH1 0xA0 SHL SUB AND PUSH1 0x80 DUP5 ADD MSTORE PUSH1 0xA DUP5 ADD DUP1 SLOAD DUP3 MLOAD DUP2 DUP6 MUL DUP2 ADD DUP6 ADD SWAP1 SWAP4 MSTORE DUP1 DUP4 MSTORE PUSH1 0xA0 SWAP1 SWAP5 ADD SWAP4 SWAP2 SWAP3 SWAP1 SWAP2 SWAP1 PUSH1 0x0 SWAP1 DUP5 ADD JUMPDEST DUP3 DUP3 LT ISZERO PUSH2 0x2B6B JUMPI DUP4 DUP3 SWAP1 PUSH1 0x0 MSTORE PUSH1 0x20 PUSH1 0x0 KECCAK256 ADD DUP1 SLOAD PUSH2 0x2ADE SWAP1 PUSH2 0x3847 JUMP JUMPDEST DUP1 PUSH1 0x1F ADD PUSH1 0x20 DUP1 SWAP2 DIV MUL PUSH1 0x20 ADD PUSH1 0x40 MLOAD SWAP1 DUP2 ADD PUSH1 0x40 MSTORE DUP1 SWAP3 SWAP2 SWAP1 DUP2 DUP2 MSTORE PUSH1 0x20 ADD DUP3 DUP1 SLOAD PUSH2 0x2B0A SWAP1 PUSH2 0x3847 JUMP JUMPDEST DUP1 ISZERO PUSH2 0x2B57 JUMPI DUP1 PUSH1 0x1F LT PUSH2 0x2B2C JUMPI PUSH2 0x100 DUP1 DUP4 SLOAD DIV MUL DUP4 MSTORE SWAP2 PUSH1 0x20 ADD SWAP2 PUSH2 0x2B57 JUMP JUMPDEST DUP3 ADD SWAP2 SWAP1 PUSH1 0x0 MSTORE PUSH1 0x20 PUSH1 0x0 KECCAK256 SWAP1 JUMPDEST DUP2 SLOAD DUP2 MSTORE SWAP1 PUSH1 0x1 ADD SWAP1 PUSH1 0x20 ADD DUP1 DUP4 GT PUSH2 0x2B3A JUMPI DUP3 SWAP1 SUB PUSH1 0x1F AND DUP3 ADD SWAP2 JUMPDEST POP POP POP POP POP DUP2 MSTORE PUSH1 0x20 ADD SWAP1 PUSH1 0x1 ADD SWAP1 PUSH2 0x2ABF JUMP JUMPDEST POP POP POP POP DUP2 MSTORE PUSH1 0x20 ADD PUSH1 0xB DUP3 ADD DUP1 SLOAD DUP1 PUSH1 0x20 MUL PUSH1 0x20 ADD PUSH1 0x40 MLOAD SWAP1 DUP2 ADD PUSH1 0x40 MSTORE DUP1 SWAP3 SWAP2 SWAP1 DUP2 DUP2 MSTORE PUSH1 0x20 ADD PUSH1 0x0 SWAP1 JUMPDEST DUP3 DUP3 LT ISZERO PUSH2 0x2C44 JUMPI DUP4 DUP3 SWAP1 PUSH1 0x0 MSTORE PUSH1 0x20 PUSH1 0x0 KECCAK256 ADD DUP1 SLOAD PUSH2 0x2BB7 SWAP1 PUSH2 0x3847 JUMP JUMPDEST DUP1 PUSH1 0x1F ADD PUSH1 0x20 DUP1 SWAP2 DIV MUL PUSH1 0x20 ADD PUSH1 0x40 MLOAD SWAP1 DUP2 ADD PUSH1 0x40 MSTORE DUP1 SWAP3 SWAP2 SWAP1 DUP2 DUP2 MSTORE PUSH1 0x20 ADD DUP3 DUP1 SLOAD PUSH2 0x2BE3 SWAP1 PUSH2 0x3847 JUMP JUMPDEST DUP1 ISZERO PUSH2 0x2C30 JUMPI DUP1 PUSH1 0x1F LT PUSH2 0x2C05 JUMPI PUSH2 0x100 DUP1 DUP4 SLOAD DIV MUL DUP4 MSTORE SWAP2 PUSH1 0x20 ADD SWAP2 PUSH2 0x2C30 JUMP JUMPDEST DUP3 ADD SWAP2 SWAP1 PUSH1 0x0 MSTORE PUSH1 0x20 PUSH1 0x0 KECCAK256 SWAP1 JUMPDEST DUP2 SLOAD DUP2 MSTORE SWAP1 PUSH1 0x1 ADD SWAP1 PUSH1 0x20 ADD DUP1 DUP4 GT PUSH2 0x2C13 JUMPI DUP3 SWAP1 SUB PUSH1 0x1F AND DUP3 ADD SWAP2 JUMPDEST POP POP POP POP POP DUP2 MSTORE PUSH1 0x20 ADD SWAP1 PUSH1 0x1 ADD SWAP1 PUSH2 0x2B98 JUMP JUMPDEST POP POP POP SWAP2 MSTORE POP SWAP1 SWAP5 SWAP4 POP POP POP POP JUMP JUMPDEST PUSH1 0x9 SLOAD PUSH1 0x1 PUSH1 0x1 PUSH1 0xA0 SHL SUB AND CALLER EQ PUSH2 0x2C7D JUMPI PUSH1 0x40 MLOAD PUSH3 0x461BCD PUSH1 0xE5 SHL DUP2 MSTORE PUSH1 0x4 ADD PUSH2 0x561 SWAP1 PUSH2 0x3785 JUMP JUMPDEST PUSH1 0x1 PUSH1 0x1 PUSH1 0xA0 SHL SUB DUP2 AND PUSH1 0x0 DUP2 DUP2 MSTORE PUSH1 0x5 PUSH1 0x20 MSTORE PUSH1 0x40 SWAP1 DUP2 SWAP1 KECCAK256 DUP1 SLOAD PUSH1 0xFF NOT AND PUSH1 0x1 OR SWAP1 SSTORE MLOAD PUSH32 0x282392BDDD0AAA0B50D2C25268A4CB6C4FB4FB6ADA94CAEE6B633A87DF7FBC43 SWAP1 PUSH2 0x5D6 SWAP1 PUSH1 0x20 DUP1 DUP3 MSTORE PUSH1 0x9 SWAP1 DUP3 ADD MSTORE PUSH9 0x283937B1B2B9B9B7B9 PUSH1 0xB9 SHL PUSH1 0x40 DUP3 ADD MSTORE PUSH1 0x60 ADD SWAP1 JUMP JUMPDEST PUSH1 0x40 MLOAD DUP1 PUSH2 0x1E0 ADD PUSH1 0x40 MSTORE DUP1 PUSH1 0x0 DUP2 MSTORE PUSH1 0x20 ADD PUSH1 0x60 DUP2 MSTORE PUSH1 0x20 ADD PUSH1 0x60 DUP2 MSTORE PUSH1 0x20 ADD PUSH1 0x0 PUSH1 0x1 PUSH1 0x1 PUSH1 0xA0 SHL SUB AND DUP2 MSTORE PUSH1 0x20 ADD PUSH1 0x60 DUP2 MSTORE PUSH1 0x20 ADD PUSH1 0x0 DUP2 MSTORE PUSH1 0x20 ADD PUSH1 0x60 DUP2 MSTORE PUSH1 0x20 ADD PUSH1 0x0 DUP2 MSTORE PUSH1 0x20 ADD PUSH1 0x60 DUP2 MSTORE PUSH1 0x20 ADD PUSH1 0x0 ISZERO ISZERO DUP2 MSTORE PUSH1 0x20 ADD PUSH1 0x0 ISZERO ISZERO DUP2 MSTORE PUSH1 0x20 ADD PUSH1 0x0 ISZERO ISZERO DUP2 MSTORE PUSH1 0x20 ADD PUSH1 0x0 PUSH1 0x1 PUSH1 0x1 PUSH1 0xA0 SHL SUB AND DUP2 MSTORE PUSH1 0x20 ADD PUSH1 0x60 DUP2 MSTORE PUSH1 0x20 ADD PUSH1 0x60 DUP2 MSTORE POP SWAP1 JUMP JUMPDEST DUP3 DUP1 SLOAD DUP3 DUP3 SSTORE SWAP1 PUSH1 0x0 MSTORE PUSH1 0x20 PUSH1 0x0 KECCAK256 SWAP1 DUP2 ADD SWAP3 DUP3 ISZERO PUSH2 0x2DC0 JUMPI SWAP2 PUSH1 0x20 MUL DUP3 ADD JUMPDEST DUP3 DUP2 GT ISZERO PUSH2 0x2DC0 JUMPI DUP3 MLOAD DUP3 SWAP1 PUSH2 0x2DB0 SWAP1 DUP3 PUSH2 0x3C55 JUMP JUMPDEST POP SWAP2 PUSH1 0x20 ADD SWAP2 SWAP1 PUSH1 0x1 ADD SWAP1 PUSH2 0x2D9A JUMP JUMPDEST POP PUSH2 0x2DCC SWAP3 SWAP2 POP PUSH2 0x2DD0 JUMP JUMPDEST POP SWAP1 JUMP JUMPDEST DUP1 DUP3 GT ISZERO PUSH2 0x2DCC JUMPI PUSH1 0x0 PUSH2 0x2DE4 DUP3 DUP3 PUSH2 0x2DED JUMP JUMPDEST POP PUSH1 0x1 ADD PUSH2 0x2DD0 JUMP JUMPDEST POP DUP1 SLOAD PUSH2 0x2DF9 SWAP1 PUSH2 0x3847 JUMP JUMPDEST PUSH1 0x0 DUP3 SSTORE DUP1 PUSH1 0x1F LT PUSH2 0x2E09 JUMPI POP POP JUMP JUMPDEST PUSH1 0x1F ADD PUSH1 0x20 SWAP1 DIV SWAP1 PUSH1 0x0 MSTORE PUSH1 0x20 PUSH1 0x0 KECCAK256 SWAP1 DUP2 ADD SWAP1 PUSH2 0x2E27 SWAP2 SWAP1 PUSH2 0x2E2A JUMP JUMPDEST POP JUMP JUMPDEST JUMPDEST DUP1 DUP3 GT ISZERO PUSH2 0x2DCC JUMPI PUSH1 0x0 DUP2 SSTORE PUSH1 0x1 ADD PUSH2 0x2E2B JUMP JUMPDEST PUSH1 0x1 PUSH1 0x1 PUSH1 0xA0 SHL SUB DUP2 AND DUP2 EQ PUSH2 0x2E27 JUMPI PUSH1 0x0 DUP1 REVERT JUMPDEST PUSH1 0x0 PUSH1 0x20 DUP3 DUP5 SUB SLT ISZERO PUSH2 0x2E66 JUMPI PUSH1 0x0 DUP1 REVERT JUMPDEST DUP2 CALLDATALOAD PUSH2 0x2E71 DUP2 PUSH2 0x2E3F JUMP JUMPDEST SWAP4 SWAP3 POP POP POP JUMP JUMPDEST PUSH1 0x0 PUSH1 0x20 DUP3 DUP5 SUB SLT ISZERO PUSH2 0x2E8A JUMPI PUSH1 0x0 DUP1 REVERT JUMPDEST POP CALLDATALOAD SWAP2 SWAP1 POP JUMP JUMPDEST PUSH1 0x0 JUMPDEST DUP4 DUP2 LT ISZERO PUSH2 0x2EAC JUMPI DUP2 DUP2 ADD MLOAD DUP4 DUP3 ADD MSTORE PUSH1 0x20 ADD PUSH2 0x2E94 JUMP JUMPDEST POP POP PUSH1 0x0 SWAP2 ADD MSTORE JUMP JUMPDEST PUSH1 0x0 DUP2 MLOAD DUP1 DUP5 MSTORE PUSH2 0x2ECD DUP2 PUSH1 0x20 DUP7 ADD PUSH1 0x20 DUP7 ADD PUSH2 0x2E91 JUMP JUMPDEST PUSH1 0x1F ADD PUSH1 0x1F NOT AND SWAP3 SWAP1 SWAP3 ADD PUSH1 0x20 ADD SWAP3 SWAP2 POP POP JUMP JUMPDEST DUP8 DUP2 MSTORE DUP7 PUSH1 0x20 DUP3 ADD MSTORE PUSH1 0x1 DUP1 PUSH1 0xA0 SHL SUB DUP7 AND PUSH1 0x40 DUP3 ADD MSTORE PUSH1 0xE0 PUSH1 0x60 DUP3 ADD MSTORE PUSH1 0x0 PUSH2 0x2F0E PUSH1 0xE0 DUP4 ADD DUP8 PUSH2 0x2EB5 JUMP JUMPDEST DUP3 DUP2 SUB PUSH1 0x80 DUP5 ADD MSTORE PUSH2 0x2F20 DUP2 DUP8 PUSH2 0x2EB5 JUMP JUMPDEST SWAP1 POP DUP5 PUSH1 0xA0 DUP5 ADD MSTORE DUP3 DUP2 SUB PUSH1 0xC0 DUP5 ADD MSTORE PUSH2 0x2F3A DUP2 DUP6 PUSH2 0x2EB5 JUMP JUMPDEST SWAP11 SWAP10 POP POP POP POP POP POP POP POP POP POP JUMP JUMPDEST PUSH1 0x0 DUP1 PUSH1 0x40 DUP4 DUP6 SUB SLT ISZERO PUSH2 0x2F5B JUMPI PUSH1 0x0 DUP1 REVERT JUMPDEST DUP3 CALLDATALOAD SWAP2 POP PUSH1 0x20 DUP4 ADD CALLDATALOAD PUSH2 0x2F6D DUP2 PUSH2 0x2E3F JUMP JUMPDEST DUP1 SWAP2 POP POP SWAP3 POP SWAP3 SWAP1 POP JUMP JUMPDEST PUSH1 0x0 DUP2 MLOAD DUP1 DUP5 MSTORE PUSH1 0x20 DUP1 DUP6 ADD DUP1 DUP2 SWAP7 POP DUP4 PUSH1 0x5 SHL DUP2 ADD SWAP2 POP DUP3 DUP7 ADD PUSH1 0x0 JUMPDEST DUP6 DUP2 LT ISZERO PUSH2 0x2FC0 JUMPI DUP3 DUP5 SUB DUP10 MSTORE PUSH2 0x2FAE DUP5 DUP4 MLOAD PUSH2 0x2EB5 JUMP JUMPDEST SWAP9 DUP6 ADD SWAP9 SWAP4 POP SWAP1 DUP5 ADD SWAP1 PUSH1 0x1 ADD PUSH2 0x2F96 JUMP JUMPDEST POP SWAP2 SWAP8 SWAP7 POP POP POP POP POP POP POP JUMP JUMPDEST PUSH1 0x0 PUSH2 0x1E0 DUP3 MLOAD DUP5 MSTORE PUSH1 0x20 DUP4 ADD MLOAD DUP2 PUSH1 0x20 DUP7 ADD MSTORE PUSH2 0x2FED DUP3 DUP7 ADD DUP3 PUSH2 0x2EB5 JUMP JUMPDEST SWAP2 POP POP PUSH1 0x40 DUP4 ADD MLOAD DUP5 DUP3 SUB PUSH1 0x40 DUP7 ADD MSTORE PUSH2 0x3007 DUP3 DUP3 PUSH2 0x2EB5 JUMP JUMPDEST SWAP2 POP POP PUSH1 0x60 DUP4 ADD MLOAD PUSH2 0x3024 PUSH1 0x60 DUP7 ADD DUP3 PUSH1 0x1 PUSH1 0x1 PUSH1 0xA0 SHL SUB AND SWAP1 MSTORE JUMP JUMPDEST POP PUSH1 0x80 DUP4 ADD MLOAD DUP5 DUP3 SUB PUSH1 0x80 DUP7 ADD MSTORE PUSH2 0x303C DUP3 DUP3 PUSH2 0x2EB5 JUMP JUMPDEST SWAP2 POP POP PUSH1 0xA0 DUP4 ADD MLOAD PUSH1 0xA0 DUP6 ADD MSTORE PUSH1 0xC0 DUP4 ADD MLOAD DUP5 DUP3 SUB PUSH1 0xC0 DUP7 ADD MSTORE PUSH2 0x3060 DUP3 DUP3 PUSH2 0x2EB5 JUMP JUMPDEST SWAP2 POP POP PUSH1 0xE0 DUP4 ADD MLOAD PUSH1 0xE0 DUP6 ADD MSTORE PUSH2 0x100 DUP1 DUP5 ADD MLOAD DUP6 DUP4 SUB DUP3 DUP8 ADD MSTORE PUSH2 0x3085 DUP4 DUP3 PUSH2 0x2EB5 JUMP JUMPDEST SWAP3 POP POP POP PUSH2 0x120 DUP1 DUP5 ADD MLOAD PUSH2 0x309D DUP3 DUP8 ADD DUP3 ISZERO ISZERO SWAP1 MSTORE JUMP JUMPDEST POP POP PUSH2 0x140 DUP4 DUP2 ADD MLOAD ISZERO ISZERO SWAP1 DUP6 ADD MSTORE PUSH2 0x160 DUP1 DUP5 ADD MLOAD ISZERO ISZERO SWAP1 DUP6 ADD MSTORE PUSH2 0x180 DUP1 DUP5 ADD MLOAD PUSH1 0x1 PUSH1 0x1 PUSH1 0xA0 SHL SUB AND SWAP1 DUP6 ADD MSTORE PUSH2 0x1A0 DUP1 DUP5 ADD MLOAD DUP6 DUP4 SUB DUP3 DUP8 ADD MSTORE PUSH2 0x30E5 DUP4 DUP3 PUSH2 0x2F78 JUMP JUMPDEST SWAP3 POP POP POP PUSH2 0x1C0 DUP1 DUP5 ADD MLOAD DUP6 DUP4 SUB DUP3 DUP8 ADD MSTORE PUSH2 0x3101 DUP4 DUP3 PUSH2 0x2F78 JUMP JUMPDEST SWAP7 SWAP6 POP POP POP POP POP POP JUMP JUMPDEST PUSH1 0x0 DUP2 MLOAD DUP1 DUP5 MSTORE PUSH1 0x20 DUP1 DUP6 ADD DUP1 DUP2 SWAP7 POP DUP4 PUSH1 0x5 SHL DUP2 ADD SWAP2 POP DUP3 DUP7 ADD PUSH1 0x0 JUMPDEST DUP6 DUP2 LT ISZERO PUSH2 0x2FC0 JUMPI DUP3 DUP5 SUB DUP10 MSTORE DUP2 MLOAD PUSH2 0x120 DUP2 MLOAD DUP7 MSTORE DUP7 DUP3 ADD MLOAD DUP8 DUP8 ADD MSTORE PUSH1 0x40 DUP1 DUP4 ADD MLOAD PUSH2 0x3161 DUP3 DUP10 ADD DUP3 PUSH1 0x1 PUSH1 0x1 PUSH1 0xA0 SHL SUB AND SWAP1 MSTORE JUMP JUMPDEST POP POP PUSH1 0x60 DUP1 DUP4 ADD MLOAD DUP3 DUP3 DUP10 ADD MSTORE PUSH2 0x317A DUP4 DUP10 ADD DUP3 PUSH2 0x2EB5 JUMP JUMPDEST SWAP3 POP POP POP PUSH1 0x80 DUP1 DUP4 ADD MLOAD DUP2 DUP9 ADD MSTORE POP PUSH1 0xA0 DUP1 DUP4 ADD MLOAD PUSH2 0x319C DUP3 DUP10 ADD DUP3 ISZERO ISZERO SWAP1 MSTORE JUMP JUMPDEST POP POP PUSH1 0xC0 DUP1 DUP4 ADD MLOAD DUP8 DUP4 SUB DUP3 DUP10 ADD MSTORE PUSH2 0x31B5 DUP4 DUP3 PUSH2 0x2EB5 JUMP JUMPDEST SWAP3 POP POP POP PUSH1 0xE0 DUP1 DUP4 ADD MLOAD DUP2 DUP9 ADD MSTORE POP PUSH2 0x100 DUP1 DUP4 ADD MLOAD SWAP3 POP DUP7 DUP3 SUB DUP2 DUP9 ADD MSTORE POP PUSH2 0x31DF DUP2 DUP4 PUSH2 0x2EB5 JUMP JUMPDEST SWAP11 DUP8 ADD SWAP11 SWAP6 POP POP POP SWAP1 DUP5 ADD SWAP1 PUSH1 0x1 ADD PUSH2 0x3129 JUMP JUMPDEST PUSH1 0x0 DUP2 MLOAD DUP1 DUP5 MSTORE PUSH1 0x20 DUP1 DUP6 ADD DUP1 DUP2 SWAP7 POP DUP4 PUSH1 0x5 SHL DUP2 ADD SWAP2 POP DUP3 DUP7 ADD PUSH1 0x0 JUMPDEST DUP6 DUP2 LT ISZERO PUSH2 0x2FC0 JUMPI DUP3 DUP5 SUB DUP10 MSTORE DUP2 MLOAD DUP1 MLOAD DUP6 MSTORE DUP6 DUP2 ADD MLOAD DUP7 DUP7 ADD MSTORE PUSH1 0x40 DUP1 DUP3 ADD MLOAD PUSH1 0x1 PUSH1 0x1 PUSH1 0xA0 SHL SUB AND SWAP1 DUP7 ADD MSTORE PUSH1 0x60 DUP1 DUP3 ADD MLOAD PUSH1 0xE0 DUP3 DUP9 ADD DUP2 SWAP1 MSTORE SWAP2 SWAP1 PUSH2 0x325B DUP4 DUP10 ADD DUP3 PUSH2 0x2EB5 JUMP JUMPDEST SWAP3 POP POP POP PUSH1 0x80 DUP1 DUP4 ADD MLOAD DUP8 DUP4 SUB DUP3 DUP10 ADD MSTORE PUSH2 0x3276 DUP4 DUP3 PUSH2 0x2EB5 JUMP JUMPDEST SWAP3 POP POP POP PUSH1 0xA0 DUP1 DUP4 ADD MLOAD DUP2 DUP9 ADD MSTORE POP PUSH1 0xC0 DUP1 DUP4 ADD MLOAD SWAP3 POP DUP7 DUP3 SUB DUP2 DUP9 ADD MSTORE POP PUSH2 0x329F DUP2 DUP4 PUSH2 0x2EB5 JUMP JUMPDEST SWAP11 DUP8 ADD SWAP11 SWAP6 POP POP POP SWAP1 DUP5 ADD SWAP1 PUSH1 0x1 ADD PUSH2 0x3211 JUMP JUMPDEST PUSH1 0x60 DUP2 MSTORE PUSH1 0x0 PUSH2 0x32C6 PUSH1 0x60 DUP4 ADD DUP7 PUSH2 0x2FCD JUMP JUMPDEST DUP3 DUP2 SUB PUSH1 0x20 DUP5 ADD MSTORE PUSH2 0x32D8 DUP2 DUP7 PUSH2 0x310B JUMP JUMPDEST SWAP1 POP DUP3 DUP2 SUB PUSH1 0x40 DUP5 ADD MSTORE PUSH2 0x3101 DUP2 DUP6 PUSH2 0x31F3 JUMP JUMPDEST PUSH4 0x4E487B71 PUSH1 0xE0 SHL PUSH1 0x0 MSTORE PUSH1 0x41 PUSH1 0x4 MSTORE PUSH1 0x24 PUSH1 0x0 REVERT JUMPDEST PUSH1 0x40 MLOAD PUSH2 0x120 DUP2 ADD PUSH1 0x1 PUSH1 0x1 PUSH1 0x40 SHL SUB DUP2 GT DUP3 DUP3 LT OR ISZERO PUSH2 0x3325 JUMPI PUSH2 0x3325 PUSH2 0x32EC JUMP JUMPDEST PUSH1 0x40 MSTORE SWAP1 JUMP JUMPDEST PUSH1 0x40 MLOAD PUSH1 0xE0 DUP2 ADD PUSH1 0x1 PUSH1 0x1 PUSH1 0x40 SHL SUB DUP2 GT DUP3 DUP3 LT OR ISZERO PUSH2 0x3325 JUMPI PUSH2 0x3325 PUSH2 0x32EC JUMP JUMPDEST PUSH1 0x40 MLOAD PUSH1 0x1F DUP3 ADD PUSH1 0x1F NOT AND DUP2 ADD PUSH1 0x1 PUSH1 0x1 PUSH1 0x40 SHL SUB DUP2 GT DUP3 DUP3 LT OR ISZERO PUSH2 0x3375 JUMPI PUSH2 0x3375 PUSH2 0x32EC JUMP JUMPDEST PUSH1 0x40 MSTORE SWAP2 SWAP1 POP JUMP JUMPDEST PUSH1 0x0 PUSH1 0x1 PUSH1 0x1 PUSH1 0x40 SHL SUB DUP3 GT ISZERO PUSH2 0x3396 JUMPI PUSH2 0x3396 PUSH2 0x32EC JUMP JUMPDEST POP PUSH1 0x1F ADD PUSH1 0x1F NOT AND PUSH1 0x20 ADD SWAP1 JUMP JUMPDEST PUSH1 0x0 DUP3 PUSH1 0x1F DUP4 ADD SLT PUSH2 0x33B5 JUMPI PUSH1 0x0 DUP1 REVERT JUMPDEST DUP2 CALLDATALOAD PUSH2 0x33C8 PUSH2 0x33C3 DUP3 PUSH2 0x337D JUMP JUMPDEST PUSH2 0x334D JUMP JUMPDEST DUP2 DUP2 MSTORE DUP5 PUSH1 0x20 DUP4 DUP7 ADD ADD GT ISZERO PUSH2 0x33DD JUMPI PUSH1 0x0 DUP1 REVERT JUMPDEST DUP2 PUSH1 0x20 DUP6 ADD PUSH1 0x20 DUP4 ADD CALLDATACOPY PUSH1 0x0 SWAP2 DUP2 ADD PUSH1 0x20 ADD SWAP2 SWAP1 SWAP2 MSTORE SWAP4 SWAP3 POP POP POP JUMP JUMPDEST PUSH1 0x0 DUP1 PUSH1 0x0 DUP1 PUSH1 0x0 DUP1 PUSH1 0xC0 DUP8 DUP10 SUB SLT ISZERO PUSH2 0x3413 JUMPI PUSH1 0x0 DUP1 REVERT JUMPDEST DUP7 CALLDATALOAD PUSH1 0x1 PUSH1 0x1 PUSH1 0x40 SHL SUB DUP1 DUP3 GT ISZERO PUSH2 0x342A JUMPI PUSH1 0x0 DUP1 REVERT JUMPDEST PUSH2 0x3436 DUP11 DUP4 DUP12 ADD PUSH2 0x33A4 JUMP JUMPDEST SWAP8 POP PUSH1 0x20 DUP10 ADD CALLDATALOAD SWAP2 POP DUP1 DUP3 GT ISZERO PUSH2 0x344C JUMPI PUSH1 0x0 DUP1 REVERT JUMPDEST PUSH2 0x3458 DUP11 DUP4 DUP12 ADD PUSH2 0x33A4 JUMP JUMPDEST SWAP7 POP PUSH1 0x40 DUP10 ADD CALLDATALOAD SWAP2 POP DUP1 DUP3 GT ISZERO PUSH2 0x346E JUMPI PUSH1 0x0 DUP1 REVERT JUMPDEST PUSH2 0x347A DUP11 DUP4 DUP12 ADD PUSH2 0x33A4 JUMP JUMPDEST SWAP6 POP PUSH1 0x60 DUP10 ADD CALLDATALOAD SWAP2 POP DUP1 DUP3 GT ISZERO PUSH2 0x3490 JUMPI PUSH1 0x0 DUP1 REVERT JUMPDEST PUSH2 0x349C DUP11 DUP4 DUP12 ADD PUSH2 0x33A4 JUMP JUMPDEST SWAP5 POP PUSH1 0x80 DUP10 ADD CALLDATALOAD SWAP4 POP PUSH1 0xA0 DUP10 ADD CALLDATALOAD SWAP2 POP DUP1 DUP3 GT ISZERO PUSH2 0x34B9 JUMPI PUSH1 0x0 DUP1 REVERT JUMPDEST POP PUSH2 0x34C6 DUP10 DUP3 DUP11 ADD PUSH2 0x33A4 JUMP JUMPDEST SWAP2 POP POP SWAP3 SWAP6 POP SWAP3 SWAP6 POP SWAP3 SWAP6 JUMP JUMPDEST PUSH1 0x20 DUP2 MSTORE PUSH1 0x0 PUSH2 0x2E71 PUSH1 0x20 DUP4 ADD DUP5 PUSH2 0x31F3 JUMP JUMPDEST DUP10 DUP2 MSTORE PUSH1 0x20 DUP2 ADD DUP10 SWAP1 MSTORE PUSH1 0x1 PUSH1 0x1 PUSH1 0xA0 SHL SUB DUP9 AND PUSH1 0x40 DUP3 ADD MSTORE PUSH2 0x120 PUSH1 0x60 DUP3 ADD DUP2 SWAP1 MSTORE PUSH1 0x0 SWAP1 PUSH2 0x3518 DUP4 DUP3 ADD DUP11 PUSH2 0x2EB5 JUMP JUMPDEST SWAP1 POP DUP8 PUSH1 0x80 DUP5 ADD MSTORE DUP7 ISZERO ISZERO PUSH1 0xA0 DUP5 ADD MSTORE DUP3 DUP2 SUB PUSH1 0xC0 DUP5 ADD MSTORE PUSH2 0x353A DUP2 DUP8 PUSH2 0x2EB5 JUMP JUMPDEST SWAP1 POP DUP5 PUSH1 0xE0 DUP5 ADD MSTORE DUP3 DUP2 SUB PUSH2 0x100 DUP5 ADD MSTORE PUSH2 0x3555 DUP2 DUP6 PUSH2 0x2EB5 JUMP JUMPDEST SWAP13 SWAP12 POP POP POP POP POP POP POP POP POP POP POP POP JUMP JUMPDEST DUP14 DUP2 MSTORE PUSH2 0x1A0 PUSH1 0x20 DUP3 ADD MSTORE PUSH1 0x0 PUSH2 0x3580 PUSH2 0x1A0 DUP4 ADD DUP16 PUSH2 0x2EB5 JUMP JUMPDEST DUP3 DUP2 SUB PUSH1 0x40 DUP5 ADD MSTORE PUSH2 0x3592 DUP2 DUP16 PUSH2 0x2EB5 JUMP JUMPDEST PUSH1 0x1 PUSH1 0x1 PUSH1 0xA0 SHL SUB DUP15 AND PUSH1 0x60 DUP6 ADD MSTORE SWAP1 POP DUP3 DUP2 SUB PUSH1 0x80 DUP5 ADD MSTORE PUSH2 0x35B5 DUP2 DUP14 PUSH2 0x2EB5 JUMP JUMPDEST SWAP1 POP DUP11 PUSH1 0xA0 DUP5 ADD MSTORE DUP3 DUP2 SUB PUSH1 0xC0 DUP5 ADD MSTORE PUSH2 0x35CF DUP2 DUP12 PUSH2 0x2EB5 JUMP JUMPDEST SWAP1 POP DUP9 PUSH1 0xE0 DUP5 ADD MSTORE DUP3 DUP2 SUB PUSH2 0x100 DUP5 ADD MSTORE PUSH2 0x35EA DUP2 DUP10 PUSH2 0x2EB5 JUMP JUMPDEST SWAP2 POP POP PUSH2 0x35FC PUSH2 0x120 DUP4 ADD DUP8 ISZERO ISZERO SWAP1 MSTORE JUMP JUMPDEST SWAP4 ISZERO ISZERO PUSH2 0x140 DUP3 ADD MSTORE SWAP2 ISZERO ISZERO PUSH2 0x160 DUP4 ADD MSTORE PUSH1 0x1 PUSH1 0x1 PUSH1 0xA0 SHL SUB AND PUSH2 0x180 SWAP1 SWAP2 ADD MSTORE SWAP11 SWAP10 POP POP POP POP POP POP POP POP POP POP JUMP JUMPDEST PUSH1 0x0 DUP1 PUSH1 0x0 DUP1 PUSH1 0x80 DUP6 DUP8 SUB SLT ISZERO PUSH2 0x3642 JUMPI PUSH1 0x0 DUP1 REVERT JUMPDEST DUP5 CALLDATALOAD SWAP4 POP PUSH1 0x20 DUP6 ADD CALLDATALOAD PUSH1 0x1 PUSH1 0x1 PUSH1 0x40 SHL SUB DUP1 DUP3 GT ISZERO PUSH2 0x3660 JUMPI PUSH1 0x0 DUP1 REVERT JUMPDEST PUSH2 0x366C DUP9 DUP4 DUP10 ADD PUSH2 0x33A4 JUMP JUMPDEST SWAP5 POP PUSH1 0x40 DUP8 ADD CALLDATALOAD SWAP2 POP DUP1 DUP3 GT ISZERO PUSH2 0x3682 JUMPI PUSH1 0x0 DUP1 REVERT JUMPDEST PUSH2 0x368E DUP9 DUP4 DUP10 ADD PUSH2 0x33A4 JUMP JUMPDEST SWAP4 POP PUSH1 0x60 DUP8 ADD CALLDATALOAD SWAP2 POP DUP1 DUP3 GT ISZERO PUSH2 0x36A4 JUMPI PUSH1 0x0 DUP1 REVERT JUMPDEST POP PUSH2 0x36B1 DUP8 DUP3 DUP9 ADD PUSH2 0x33A4 JUMP JUMPDEST SWAP2 POP POP SWAP3 SWAP6 SWAP2 SWAP5 POP SWAP3 POP JUMP JUMPDEST PUSH1 0x20 DUP2 MSTORE PUSH1 0x0 PUSH2 0x2E71 PUSH1 0x20 DUP4 ADD DUP5 PUSH2 0x310B JUMP JUMPDEST DUP1 ISZERO ISZERO DUP2 EQ PUSH2 0x2E27 JUMPI PUSH1 0x0 DUP1 REVERT JUMPDEST PUSH1 0x0 DUP1 PUSH1 0x0 DUP1 PUSH1 0x0 DUP1 PUSH1 0xC0 DUP8 DUP10 SUB SLT ISZERO PUSH2 0x36F7 JUMPI PUSH1 0x0 DUP1 REVERT JUMPDEST DUP7 CALLDATALOAD SWAP6 POP PUSH1 0x20 DUP8 ADD CALLDATALOAD PUSH1 0x1 PUSH1 0x1 PUSH1 0x40 SHL SUB DUP1 DUP3 GT ISZERO PUSH2 0x3715 JUMPI PUSH1 0x0 DUP1 REVERT JUMPDEST PUSH2 0x3721 DUP11 DUP4 DUP12 ADD PUSH2 0x33A4 JUMP JUMPDEST SWAP7 POP PUSH1 0x40 DUP10 ADD CALLDATALOAD SWAP6 POP PUSH1 0x60 DUP10 ADD CALLDATALOAD SWAP2 POP PUSH2 0x373A DUP3 PUSH2 0x36D0 JUMP JUMPDEST SWAP1 SWAP4 POP PUSH1 0x80 DUP9 ADD CALLDATALOAD SWAP1 DUP1 DUP3 GT ISZERO PUSH2 0x3750 JUMPI PUSH1 0x0 DUP1 REVERT JUMPDEST PUSH2 0x375C DUP11 DUP4 DUP12 ADD PUSH2 0x33A4 JUMP JUMPDEST SWAP4 POP PUSH1 0xA0 DUP10 ADD CALLDATALOAD SWAP2 POP DUP1 DUP3 GT ISZERO PUSH2 0x34B9 JUMPI PUSH1 0x0 DUP1 REVERT JUMPDEST PUSH1 0x20 DUP2 MSTORE PUSH1 0x0 PUSH2 0x2E71 PUSH1 0x20 DUP4 ADD DUP5 PUSH2 0x2FCD JUMP JUMPDEST PUSH1 0x20 DUP1 DUP3 MSTORE PUSH1 0x22 SWAP1 DUP3 ADD MSTORE PUSH32 0x4F6E6C79206F776E65722063616E20706572666F726D20746869732061637469 PUSH1 0x40 DUP3 ADD MSTORE PUSH2 0x37B7 PUSH1 0xF1 SHL PUSH1 0x60 DUP3 ADD MSTORE PUSH1 0x80 ADD SWAP1 JUMP JUMPDEST PUSH1 0x20 DUP1 DUP3 MSTORE PUSH1 0x32 SWAP1 DUP3 ADD MSTORE PUSH32 0x4F6E6C7920617574686F72697A65642070726F636573736F72732063616E2070 PUSH1 0x40 DUP3 ADD MSTORE PUSH18 0x32B93337B936903A3434B99030B1BA34B7B7 PUSH1 0x71 SHL PUSH1 0x60 DUP3 ADD MSTORE PUSH1 0x80 ADD SWAP1 JUMP JUMPDEST PUSH1 0x20 DUP1 DUP3 MSTORE PUSH1 0x14 SWAP1 DUP3 ADD MSTORE PUSH20 0x10985D18DA08191BD95CC81B9BDD08195E1A5CDD PUSH1 0x62 SHL PUSH1 0x40 DUP3 ADD MSTORE PUSH1 0x60 ADD SWAP1 JUMP JUMPDEST PUSH1 0x1 DUP2 DUP2 SHR SWAP1 DUP3 AND DUP1 PUSH2 0x385B JUMPI PUSH1 0x7F DUP3 AND SWAP2 POP JUMPDEST PUSH1 0x20 DUP3 LT DUP2 SUB PUSH2 0x18A4 JUMPI PUSH4 0x4E487B71 PUSH1 0xE0 SHL PUSH1 0x0 MSTORE PUSH1 0x22 PUSH1 0x4 MSTORE PUSH1 0x24 PUSH1 0x0 REVERT JUMPDEST PUSH1 0x0 PUSH1 0x1 PUSH1 0x1 PUSH1 0x40 SHL SUB DUP3 GT ISZERO PUSH2 0x3894 JUMPI PUSH2 0x3894 PUSH2 0x32EC JUMP JUMPDEST POP PUSH1 0x5 SHL PUSH1 0x20 ADD SWAP1 JUMP JUMPDEST DUP1 MLOAD PUSH2 0x38A9 DUP2 PUSH2 0x2E3F JUMP JUMPDEST SWAP2 SWAP1 POP JUMP JUMPDEST PUSH1 0x0 DUP3 PUSH1 0x1F DUP4 ADD SLT PUSH2 0x38BF JUMPI PUSH1 0x0 DUP1 REVERT JUMPDEST DUP2 MLOAD PUSH2 0x38CD PUSH2 0x33C3 DUP3 PUSH2 0x337D JUMP JUMPDEST DUP2 DUP2 MSTORE DUP5 PUSH1 0x20 DUP4 DUP7 ADD ADD GT ISZERO PUSH2 0x38E2 JUMPI PUSH1 0x0 DUP1 REVERT JUMPDEST PUSH2 0x38F3 DUP3 PUSH1 0x20 DUP4 ADD PUSH1 0x20 DUP8 ADD PUSH2 0x2E91 JUMP JUMPDEST SWAP5 SWAP4 POP POP POP POP JUMP JUMPDEST DUP1 MLOAD PUSH2 0x38A9 DUP2 PUSH2 0x36D0 JUMP JUMPDEST PUSH1 0x0 PUSH1 0x20 DUP1 DUP4 DUP6 SUB SLT ISZERO PUSH2 0x3919 JUMPI PUSH1 0x0 DUP1 REVERT JUMPDEST DUP3 MLOAD PUSH1 0x1 PUSH1 0x1 PUSH1 0x40 SHL SUB DUP1 DUP3 GT ISZERO PUSH2 0x3930 JUMPI PUSH1 0x0 DUP1 REVERT JUMPDEST DUP2 DUP6 ADD SWAP2 POP DUP6 PUSH1 0x1F DUP4 ADD SLT PUSH2 0x3944 JUMPI PUSH1 0x0 DUP1 REVERT JUMPDEST DUP2 MLOAD PUSH2 0x3952 PUSH2 0x33C3 DUP3 PUSH2 0x387B JUMP JUMPDEST DUP2 DUP2 MSTORE PUSH1 0x5 SWAP2 SWAP1 SWAP2 SHL DUP4 ADD DUP5 ADD SWAP1 DUP5 DUP2 ADD SWAP1 DUP9 DUP4 GT ISZERO PUSH2 0x3971 JUMPI PUSH1 0x0 DUP1 REVERT JUMPDEST DUP6 DUP6 ADD JUMPDEST DUP4 DUP2 LT ISZERO PUSH2 0x3A77 JUMPI DUP1 MLOAD DUP6 DUP2 GT ISZERO PUSH2 0x398C JUMPI PUSH1 0x0 DUP1 REVERT JUMPDEST DUP7 ADD PUSH2 0x120 DUP2 DUP13 SUB PUSH1 0x1F NOT ADD DUP2 SGT ISZERO PUSH2 0x39A4 JUMPI PUSH1 0x0 DUP1 REVERT JUMPDEST PUSH2 0x39AC PUSH2 0x3302 JUMP JUMPDEST DUP10 DUP4 ADD MLOAD DUP2 MSTORE PUSH1 0x40 DUP4 ADD MLOAD DUP11 DUP3 ADD MSTORE PUSH2 0x39C7 PUSH1 0x60 DUP5 ADD PUSH2 0x389E JUMP JUMPDEST PUSH1 0x40 DUP3 ADD MSTORE PUSH1 0x80 DUP4 ADD MLOAD DUP9 DUP2 GT ISZERO PUSH2 0x39DE JUMPI PUSH1 0x0 DUP1 REVERT JUMPDEST PUSH2 0x39EC DUP15 DUP13 DUP4 DUP8 ADD ADD PUSH2 0x38AE JUMP JUMPDEST PUSH1 0x60 DUP4 ADD MSTORE POP PUSH1 0xA0 DUP4 ADD MLOAD PUSH1 0x80 DUP3 ADD MSTORE PUSH2 0x3A08 PUSH1 0xC0 DUP5 ADD PUSH2 0x38FB JUMP JUMPDEST PUSH1 0xA0 DUP3 ADD MSTORE PUSH1 0xE0 DUP1 DUP5 ADD MLOAD DUP10 DUP2 GT ISZERO PUSH2 0x3A21 JUMPI PUSH1 0x0 DUP1 DUP2 REVERT JUMPDEST PUSH2 0x3A2F DUP16 DUP14 DUP4 DUP9 ADD ADD PUSH2 0x38AE JUMP JUMPDEST PUSH1 0xC0 DUP5 ADD MSTORE POP PUSH2 0x100 DUP5 DUP2 ADD MLOAD DUP3 DUP5 ADD MSTORE SWAP3 DUP5 ADD MLOAD SWAP3 DUP10 DUP5 GT ISZERO PUSH2 0x3A55 JUMPI PUSH1 0x0 SWAP2 POP DUP2 DUP3 REVERT JUMPDEST PUSH2 0x3A63 DUP16 DUP14 DUP7 DUP9 ADD ADD PUSH2 0x38AE JUMP JUMPDEST SWAP1 DUP4 ADD MSTORE POP DUP6 MSTORE POP POP SWAP2 DUP7 ADD SWAP2 DUP7 ADD PUSH2 0x3975 JUMP JUMPDEST POP SWAP9 SWAP8 POP POP POP POP POP POP POP POP JUMP JUMPDEST PUSH1 0x0 PUSH1 0x20 DUP1 DUP4 DUP6 SUB SLT ISZERO PUSH2 0x3A97 JUMPI PUSH1 0x0 DUP1 REVERT JUMPDEST DUP3 MLOAD PUSH1 0x1 PUSH1 0x1 PUSH1 0x40 SHL SUB DUP1 DUP3 GT ISZERO PUSH2 0x3AAE JUMPI PUSH1 0x0 DUP1 REVERT JUMPDEST DUP2 DUP6 ADD SWAP2 POP DUP6 PUSH1 0x1F DUP4 ADD SLT PUSH2 0x3AC2 JUMPI PUSH1 0x0 DUP1 REVERT JUMPDEST DUP2 MLOAD PUSH2 0x3AD0 PUSH2 0x33C3 DUP3 PUSH2 0x387B JUMP JUMPDEST DUP2 DUP2 MSTORE PUSH1 0x5 SWAP2 SWAP1 SWAP2 SHL DUP4 ADD DUP5 ADD SWAP1 DUP5 DUP2 ADD SWAP1 DUP9 DUP4 GT ISZERO PUSH2 0x3AEF JUMPI PUSH1 0x0 DUP1 REVERT JUMPDEST DUP6 DUP6 ADD JUMPDEST DUP4 DUP2 LT ISZERO PUSH2 0x3A77 JUMPI DUP1 MLOAD DUP6 DUP2 GT ISZERO PUSH2 0x3B0A JUMPI PUSH1 0x0 DUP1 REVERT JUMPDEST DUP7 ADD PUSH1 0xE0 DUP2 DUP13 SUB PUSH1 0x1F NOT ADD SLT ISZERO PUSH2 0x3B21 JUMPI PUSH1 0x0 DUP1 DUP2 REVERT JUMPDEST PUSH2 0x3B29 PUSH2 0x332B JUMP JUMPDEST DUP9 DUP3 ADD MLOAD DUP2 MSTORE PUSH1 0x40 DUP1 DUP4 ADD MLOAD DUP11 DUP4 ADD MSTORE PUSH1 0x60 PUSH2 0x3B46 DUP2 DUP6 ADD PUSH2 0x389E JUMP JUMPDEST DUP3 DUP5 ADD MSTORE PUSH1 0x80 SWAP2 POP DUP2 DUP5 ADD MLOAD DUP10 DUP2 GT ISZERO PUSH2 0x3B60 JUMPI PUSH1 0x0 DUP1 DUP2 REVERT JUMPDEST PUSH2 0x3B6E DUP16 DUP14 DUP4 DUP9 ADD ADD PUSH2 0x38AE JUMP JUMPDEST DUP3 DUP6 ADD MSTORE POP POP PUSH1 0xA0 DUP1 DUP5 ADD MLOAD DUP10 DUP2 GT ISZERO PUSH2 0x3B88 JUMPI PUSH1 0x0 DUP1 DUP2 REVERT JUMPDEST PUSH2 0x3B96 DUP16 DUP14 DUP4 DUP9 ADD ADD PUSH2 0x38AE JUMP JUMPDEST DUP4 DUP6 ADD MSTORE POP PUSH1 0xC0 SWAP2 POP DUP2 DUP5 ADD MLOAD DUP2 DUP5 ADD MSTORE POP PUSH1 0xE0 DUP4 ADD MLOAD DUP9 DUP2 GT ISZERO PUSH2 0x3BBB JUMPI PUSH1 0x0 DUP1 DUP2 REVERT JUMPDEST PUSH2 0x3BC9 DUP15 DUP13 DUP4 DUP8 ADD ADD PUSH2 0x38AE JUMP JUMPDEST SWAP2 DUP4 ADD SWAP2 SWAP1 SWAP2 MSTORE POP DUP5 MSTORE POP SWAP2 DUP7 ADD SWAP2 DUP7 ADD PUSH2 0x3AF3 JUMP JUMPDEST PUSH1 0x0 PUSH1 0x1 DUP3 ADD PUSH2 0x3BFF JUMPI PUSH4 0x4E487B71 PUSH1 0xE0 SHL PUSH1 0x0 MSTORE PUSH1 0x11 PUSH1 0x4 MSTORE PUSH1 0x24 PUSH1 0x0 REVERT JUMPDEST POP PUSH1 0x1 ADD SWAP1 JUMP JUMPDEST PUSH1 0x1F DUP3 GT ISZERO PUSH2 0x3C50 JUMPI PUSH1 0x0 DUP2 DUP2 MSTORE PUSH1 0x20 DUP2 KECCAK256 PUSH1 0x1F DUP6 ADD PUSH1 0x5 SHR DUP2 ADD PUSH1 0x20 DUP7 LT ISZERO PUSH2 0x3C2D JUMPI POP DUP1 JUMPDEST PUSH1 0x1F DUP6 ADD PUSH1 0x5 SHR DUP3 ADD SWAP2 POP JUMPDEST DUP2 DUP2 LT ISZERO PUSH2 0x3C4C JUMPI DUP3 DUP2 SSTORE PUSH1 0x1 ADD PUSH2 0x3C39 JUMP JUMPDEST POP POP POP JUMPDEST POP POP POP JUMP JUMPDEST DUP2 MLOAD PUSH1 0x1 PUSH1 0x1 PUSH1 0x40 SHL SUB DUP2 GT ISZERO PUSH2 0x3C6E JUMPI PUSH2 0x3C6E PUSH2 0x32EC JUMP JUMPDEST PUSH2 0x3C82 DUP2 PUSH2 0x3C7C DUP5 SLOAD PUSH2 0x3847 JUMP JUMPDEST DUP5 PUSH2 0x3C06 JUMP JUMPDEST PUSH1 0x20 DUP1 PUSH1 0x1F DUP4 GT PUSH1 0x1 DUP2 EQ PUSH2 0x3CB7 JUMPI PUSH1 0x0 DUP5 ISZERO PUSH2 0x3C9F JUMPI POP DUP6 DUP4 ADD MLOAD JUMPDEST PUSH1 0x0 NOT PUSH1 0x3 DUP7 SWAP1 SHL SHR NOT AND PUSH1 0x1 DUP6 SWAP1 SHL OR DUP6 SSTORE PUSH2 0x3C4C JUMP JUMPDEST PUSH1 0x0 DUP6 DUP2 MSTORE PUSH1 0x20 DUP2 KECCAK256 PUSH1 0x1F NOT DUP7 AND SWAP2 JUMPDEST DUP3 DUP2 LT ISZERO PUSH2 0x3CE6 JUMPI DUP9 DUP7 ADD MLOAD DUP3 SSTORE SWAP5 DUP5 ADD SWAP5 PUSH1 0x1 SWAP1 SWAP2 ADD SWAP1 DUP5 ADD PUSH2 0x3CC7 JUMP JUMPDEST POP DUP6 DUP3 LT ISZERO PUSH2 0x3D04 JUMPI DUP8 DUP6 ADD MLOAD PUSH1 0x0 NOT PUSH1 0x3 DUP9 SWAP1 SHL PUSH1 0xF8 AND SHR NOT AND DUP2 SSTORE JUMPDEST POP POP POP POP POP PUSH1 0x1 SWAP1 DUP2 SHL ADD SWAP1 SSTORE POP JUMP JUMPDEST PUSH1 0x40 DUP2 MSTORE PUSH1 0x0 PUSH2 0x3D27 PUSH1 0x40 DUP4 ADD DUP6 PUSH2 0x2EB5 JUMP JUMPDEST SWAP1 POP PUSH1 0x1 DUP1 PUSH1 0xA0 SHL SUB DUP4 AND PUSH1 0x20 DUP4 ADD MSTORE SWAP4 SWAP3 POP POP POP JUMP JUMPDEST PUSH4 0x4E487B71 PUSH1 0xE0 SHL PUSH1 0x0 MSTORE PUSH1 0x32 PUSH1 0x4 MSTORE PUSH1 0x24 PUSH1 0x0 REVERT INVALID LOG2 PUSH5 0x6970667358 0x22 SLT KECCAK256 0xB9 SELFDESTRUCT 0xB7 BYTE 0x2F SWAP1 SAR 0x4E DUP6 0x25 KECCAK256 0xE1 PUSH22 0x5C6147526EFCE93D123BB9102334857F67CCB564736F PUSH13 0x63430008130033000000000000 "},"methodIdentifiers":{"addProcessingStep(uint256,string,string,string)":"98bbadd2","addQualityTest(uint256,string,uint256,bool,string,string)":"cd406a5c","authorizeFarmer(address)":"08906a91","authorizeLaboratory(address)":"3d33ebee","authorizeProcessor(address)":"f2b57b34","authorizedFarmers(address)":"a88dde0c","authorizedLaboratories(address)":"7ae21054","authorizedProcessors(address)":"781c065c","createHerbBatch(string,string,string,string,uint256,string)":"57ecdf3e","getHerbBatch(uint256)":"d381ba44","getProcessingSteps(uint256)":"5d5c92fa","getQualityTests(uint256)":"bc9f03c1","getTotalBatches()":"e561dddc","getTraceabilityChain(uint256)":"3844ece9","herbBatches(uint256)":"88fa2aa8","isAuthorizedFarmer(address)":"8057de2a","isAuthorizedLaboratory(address)":"ba38bb35","isAuthorizedProcessor(address)":"f452c738","markAsDistributed(uint256)":"74b0ce9e","markAsProcessed(uint256)":"247ab51f","nextBatchId()":"8462a7f8","nextStepId()":"644f1ec5","nextTestId()":"32a86e95","owner()":"8da5cb5b","processingSteps(uint256)":"25ff9818","qualityTests(uint256)":"6c5de9b3","revokeFarmerAuthorization(address)":"4fdd17e4","revokeLaboratoryAuthorization(address)":"311a0deb","revokeProcessorAuthorization(address)":"40005df2","totalBatches()":"69ff6abb","transferOwnership(uint256,address)":"29507f73"}}}}}